{
  "_format": "hh-sol-artifact-1",
  "contractName": "PokemonNFT",
  "sourceName": "contracts/PokemonNFT.sol",
  "abi": [
    {
      "inputs": [
        {
          "internalType": "string",
          "name": "baseURI",
          "type": "string"
        }
      ],
      "stateMutability": "nonpayable",
      "type": "constructor"
    },
    {
      "inputs": [],
      "name": "ERC721EnumerableForbiddenBatchMint",
      "type": "error"
    },
    {
      "inputs": [
        {
          "internalType": "address",
          "name": "sender",
          "type": "address"
        },
        {
          "internalType": "uint256",
          "name": "tokenId",
          "type": "uint256"
        },
        {
          "internalType": "address",
          "name": "owner",
          "type": "address"
        }
      ],
      "name": "ERC721IncorrectOwner",
      "type": "error"
    },
    {
      "inputs": [
        {
          "internalType": "address",
          "name": "operator",
          "type": "address"
        },
        {
          "internalType": "uint256",
          "name": "tokenId",
          "type": "uint256"
        }
      ],
      "name": "ERC721InsufficientApproval",
      "type": "error"
    },
    {
      "inputs": [
        {
          "internalType": "address",
          "name": "approver",
          "type": "address"
        }
      ],
      "name": "ERC721InvalidApprover",
      "type": "error"
    },
    {
      "inputs": [
        {
          "internalType": "address",
          "name": "operator",
          "type": "address"
        }
      ],
      "name": "ERC721InvalidOperator",
      "type": "error"
    },
    {
      "inputs": [
        {
          "internalType": "address",
          "name": "owner",
          "type": "address"
        }
      ],
      "name": "ERC721InvalidOwner",
      "type": "error"
    },
    {
      "inputs": [
        {
          "internalType": "address",
          "name": "receiver",
          "type": "address"
        }
      ],
      "name": "ERC721InvalidReceiver",
      "type": "error"
    },
    {
      "inputs": [
        {
          "internalType": "address",
          "name": "sender",
          "type": "address"
        }
      ],
      "name": "ERC721InvalidSender",
      "type": "error"
    },
    {
      "inputs": [
        {
          "internalType": "uint256",
          "name": "tokenId",
          "type": "uint256"
        }
      ],
      "name": "ERC721NonexistentToken",
      "type": "error"
    },
    {
      "inputs": [
        {
          "internalType": "address",
          "name": "owner",
          "type": "address"
        },
        {
          "internalType": "uint256",
          "name": "index",
          "type": "uint256"
        }
      ],
      "name": "ERC721OutOfBoundsIndex",
      "type": "error"
    },
    {
      "inputs": [
        {
          "internalType": "address",
          "name": "owner",
          "type": "address"
        }
      ],
      "name": "OwnableInvalidOwner",
      "type": "error"
    },
    {
      "inputs": [
        {
          "internalType": "address",
          "name": "account",
          "type": "address"
        }
      ],
      "name": "OwnableUnauthorizedAccount",
      "type": "error"
    },
    {
      "anonymous": false,
      "inputs": [
        {
          "indexed": true,
          "internalType": "address",
          "name": "owner",
          "type": "address"
        },
        {
          "indexed": true,
          "internalType": "address",
          "name": "approved",
          "type": "address"
        },
        {
          "indexed": true,
          "internalType": "uint256",
          "name": "tokenId",
          "type": "uint256"
        }
      ],
      "name": "Approval",
      "type": "event"
    },
    {
      "anonymous": false,
      "inputs": [
        {
          "indexed": true,
          "internalType": "address",
          "name": "owner",
          "type": "address"
        },
        {
          "indexed": true,
          "internalType": "address",
          "name": "operator",
          "type": "address"
        },
        {
          "indexed": false,
          "internalType": "bool",
          "name": "approved",
          "type": "bool"
        }
      ],
      "name": "ApprovalForAll",
      "type": "event"
    },
    {
      "anonymous": false,
      "inputs": [
        {
          "indexed": false,
          "internalType": "uint256",
          "name": "_fromTokenId",
          "type": "uint256"
        },
        {
          "indexed": false,
          "internalType": "uint256",
          "name": "_toTokenId",
          "type": "uint256"
        }
      ],
      "name": "BatchMetadataUpdate",
      "type": "event"
    },
    {
      "anonymous": false,
      "inputs": [
        {
          "indexed": false,
          "internalType": "uint256",
          "name": "_tokenId",
          "type": "uint256"
        }
      ],
      "name": "MetadataUpdate",
      "type": "event"
    },
    {
      "anonymous": false,
      "inputs": [
        {
          "indexed": true,
          "internalType": "address",
          "name": "previousOwner",
          "type": "address"
        },
        {
          "indexed": true,
          "internalType": "address",
          "name": "newOwner",
          "type": "address"
        }
      ],
      "name": "OwnershipTransferred",
      "type": "event"
    },
    {
      "anonymous": false,
      "inputs": [
        {
          "indexed": false,
          "internalType": "uint256",
          "name": "pokemonId",
          "type": "uint256"
        },
        {
          "indexed": false,
          "internalType": "string",
          "name": "name",
          "type": "string"
        },
        {
          "indexed": false,
          "internalType": "string",
          "name": "rarity",
          "type": "string"
        },
        {
          "indexed": false,
          "internalType": "uint256",
          "name": "maxSupply",
          "type": "uint256"
        }
      ],
      "name": "PokemonAdded",
      "type": "event"
    },
    {
      "anonymous": false,
      "inputs": [
        {
          "indexed": false,
          "internalType": "uint256",
          "name": "tokenId",
          "type": "uint256"
        },
        {
          "indexed": false,
          "internalType": "uint256",
          "name": "pokemonId",
          "type": "uint256"
        },
        {
          "indexed": false,
          "internalType": "string",
          "name": "name",
          "type": "string"
        },
        {
          "indexed": false,
          "internalType": "address",
          "name": "owner",
          "type": "address"
        }
      ],
      "name": "PokemonMinted",
      "type": "event"
    },
    {
      "anonymous": false,
      "inputs": [
        {
          "indexed": true,
          "internalType": "address",
          "name": "from",
          "type": "address"
        },
        {
          "indexed": true,
          "internalType": "address",
          "name": "to",
          "type": "address"
        },
        {
          "indexed": true,
          "internalType": "uint256",
          "name": "tokenId",
          "type": "uint256"
        }
      ],
      "name": "Transfer",
      "type": "event"
    },
    {
      "inputs": [
        {
          "internalType": "uint256",
          "name": "pokemonId",
          "type": "uint256"
        },
        {
          "internalType": "string",
          "name": "name",
          "type": "string"
        },
        {
          "internalType": "string",
          "name": "pokemonType",
          "type": "string"
        },
        {
          "internalType": "string",
          "name": "rarity",
          "type": "string"
        },
        {
          "internalType": "uint256",
          "name": "attack",
          "type": "uint256"
        },
        {
          "internalType": "uint256",
          "name": "defense",
          "type": "uint256"
        },
        {
          "internalType": "uint256",
          "name": "maxSupply",
          "type": "uint256"
        }
      ],
      "name": "addPokemon",
      "outputs": [],
      "stateMutability": "nonpayable",
      "type": "function"
    },
    {
      "inputs": [
        {
          "internalType": "address",
          "name": "to",
          "type": "address"
        },
        {
          "internalType": "uint256",
          "name": "tokenId",
          "type": "uint256"
        }
      ],
      "name": "approve",
      "outputs": [],
      "stateMutability": "nonpayable",
      "type": "function"
    },
    {
      "inputs": [
        {
          "internalType": "uint256",
          "name": "",
          "type": "uint256"
        }
      ],
      "name": "availablePokemon",
      "outputs": [
        {
          "internalType": "uint256",
          "name": "pokemonId",
          "type": "uint256"
        },
        {
          "internalType": "string",
          "name": "name",
          "type": "string"
        },
        {
          "internalType": "string",
          "name": "pokemonType",
          "type": "string"
        },
        {
          "internalType": "string",
          "name": "rarity",
          "type": "string"
        },
        {
          "internalType": "uint256",
          "name": "attack",
          "type": "uint256"
        },
        {
          "internalType": "uint256",
          "name": "defense",
          "type": "uint256"
        },
        {
          "internalType": "uint256",
          "name": "maxSupply",
          "type": "uint256"
        },
        {
          "internalType": "uint256",
          "name": "currentSupply",
          "type": "uint256"
        }
      ],
      "stateMutability": "view",
      "type": "function"
    },
    {
      "inputs": [
        {
          "internalType": "address",
          "name": "owner",
          "type": "address"
        }
      ],
      "name": "balanceOf",
      "outputs": [
        {
          "internalType": "uint256",
          "name": "",
          "type": "uint256"
        }
      ],
      "stateMutability": "view",
      "type": "function"
    },
    {
      "inputs": [
        {
          "internalType": "uint256",
          "name": "tokenId",
          "type": "uint256"
        }
      ],
      "name": "getApproved",
      "outputs": [
        {
          "internalType": "address",
          "name": "",
          "type": "address"
        }
      ],
      "stateMutability": "view",
      "type": "function"
    },
    {
      "inputs": [],
      "name": "getAvailablePokemonCount",
      "outputs": [
        {
          "internalType": "uint256",
          "name": "",
          "type": "uint256"
        }
      ],
      "stateMutability": "view",
      "type": "function"
    },
    {
      "inputs": [
        {
          "internalType": "uint256",
          "name": "pokemonId",
          "type": "uint256"
        }
      ],
      "name": "getTokenIdsByPokemonId",
      "outputs": [
        {
          "internalType": "uint256[]",
          "name": "",
          "type": "uint256[]"
        }
      ],
      "stateMutability": "view",
      "type": "function"
    },
    {
      "inputs": [
        {
          "internalType": "address",
          "name": "owner",
          "type": "address"
        },
        {
          "internalType": "address",
          "name": "operator",
          "type": "address"
        }
      ],
      "name": "isApprovedForAll",
      "outputs": [
        {
          "internalType": "bool",
          "name": "",
          "type": "bool"
        }
      ],
      "stateMutability": "view",
      "type": "function"
    },
    {
      "inputs": [
        {
          "internalType": "uint256",
          "name": "pokemonIndex",
          "type": "uint256"
        },
        {
          "internalType": "address",
          "name": "recipient",
          "type": "address"
        }
      ],
      "name": "mintPokemon",
      "outputs": [
        {
          "internalType": "uint256",
          "name": "",
          "type": "uint256"
        }
      ],
      "stateMutability": "payable",
      "type": "function"
    },
    {
      "inputs": [],
      "name": "mintPrice",
      "outputs": [
        {
          "internalType": "uint256",
          "name": "",
          "type": "uint256"
        }
      ],
      "stateMutability": "view",
      "type": "function"
    },
    {
      "inputs": [
        {
          "internalType": "address",
          "name": "recipient",
          "type": "address"
        }
      ],
      "name": "mintRandomPokemon",
      "outputs": [
        {
          "internalType": "uint256",
          "name": "",
          "type": "uint256"
        }
      ],
      "stateMutability": "payable",
      "type": "function"
    },
    {
      "inputs": [],
      "name": "name",
      "outputs": [
        {
          "internalType": "string",
          "name": "",
          "type": "string"
        }
      ],
      "stateMutability": "view",
      "type": "function"
    },
    {
      "inputs": [],
      "name": "owner",
      "outputs": [
        {
          "internalType": "address",
          "name": "",
          "type": "address"
        }
      ],
      "stateMutability": "view",
      "type": "function"
    },
    {
      "inputs": [
        {
          "internalType": "uint256",
          "name": "tokenId",
          "type": "uint256"
        }
      ],
      "name": "ownerOf",
      "outputs": [
        {
          "internalType": "address",
          "name": "",
          "type": "address"
        }
      ],
      "stateMutability": "view",
      "type": "function"
    },
    {
      "inputs": [
        {
          "internalType": "uint256",
          "name": "",
          "type": "uint256"
        }
      ],
      "name": "pokemonData",
      "outputs": [
        {
          "internalType": "uint256",
          "name": "pokemonId",
          "type": "uint256"
        },
        {
          "internalType": "string",
          "name": "name",
          "type": "string"
        },
        {
          "internalType": "string",
          "name": "pokemonType",
          "type": "string"
        },
        {
          "internalType": "string",
          "name": "rarity",
          "type": "string"
        },
        {
          "internalType": "uint256",
          "name": "attack",
          "type": "uint256"
        },
        {
          "internalType": "uint256",
          "name": "defense",
          "type": "uint256"
        },
        {
          "internalType": "uint256",
          "name": "maxSupply",
          "type": "uint256"
        },
        {
          "internalType": "uint256",
          "name": "currentSupply",
          "type": "uint256"
        }
      ],
      "stateMutability": "view",
      "type": "function"
    },
    {
      "inputs": [],
      "name": "renounceOwnership",
      "outputs": [],
      "stateMutability": "nonpayable",
      "type": "function"
    },
    {
      "inputs": [
        {
          "internalType": "address",
          "name": "from",
          "type": "address"
        },
        {
          "internalType": "address",
          "name": "to",
          "type": "address"
        },
        {
          "internalType": "uint256",
          "name": "tokenId",
          "type": "uint256"
        }
      ],
      "name": "safeTransferFrom",
      "outputs": [],
      "stateMutability": "nonpayable",
      "type": "function"
    },
    {
      "inputs": [
        {
          "internalType": "address",
          "name": "from",
          "type": "address"
        },
        {
          "internalType": "address",
          "name": "to",
          "type": "address"
        },
        {
          "internalType": "uint256",
          "name": "tokenId",
          "type": "uint256"
        },
        {
          "internalType": "bytes",
          "name": "data",
          "type": "bytes"
        }
      ],
      "name": "safeTransferFrom",
      "outputs": [],
      "stateMutability": "nonpayable",
      "type": "function"
    },
    {
      "inputs": [
        {
          "internalType": "address",
          "name": "operator",
          "type": "address"
        },
        {
          "internalType": "bool",
          "name": "approved",
          "type": "bool"
        }
      ],
      "name": "setApprovalForAll",
      "outputs": [],
      "stateMutability": "nonpayable",
      "type": "function"
    },
    {
      "inputs": [
        {
          "internalType": "string",
          "name": "baseURI",
          "type": "string"
        }
      ],
      "name": "setBaseURI",
      "outputs": [],
      "stateMutability": "nonpayable",
      "type": "function"
    },
    {
      "inputs": [
        {
          "internalType": "uint256",
          "name": "_mintPrice",
          "type": "uint256"
        }
      ],
      "name": "setMintPrice",
      "outputs": [],
      "stateMutability": "nonpayable",
      "type": "function"
    },
    {
      "inputs": [],
      "name": "simpleMint",
      "outputs": [
        {
          "internalType": "uint256",
          "name": "",
          "type": "uint256"
        }
      ],
      "stateMutability": "payable",
      "type": "function"
    },
    {
      "inputs": [
        {
          "internalType": "bytes4",
          "name": "interfaceId",
          "type": "bytes4"
        }
      ],
      "name": "supportsInterface",
      "outputs": [
        {
          "internalType": "bool",
          "name": "",
          "type": "bool"
        }
      ],
      "stateMutability": "view",
      "type": "function"
    },
    {
      "inputs": [],
      "name": "symbol",
      "outputs": [
        {
          "internalType": "string",
          "name": "",
          "type": "string"
        }
      ],
      "stateMutability": "view",
      "type": "function"
    },
    {
      "inputs": [
        {
          "internalType": "uint256",
          "name": "index",
          "type": "uint256"
        }
      ],
      "name": "tokenByIndex",
      "outputs": [
        {
          "internalType": "uint256",
          "name": "",
          "type": "uint256"
        }
      ],
      "stateMutability": "view",
      "type": "function"
    },
    {
      "inputs": [
        {
          "internalType": "address",
          "name": "owner",
          "type": "address"
        },
        {
          "internalType": "uint256",
          "name": "index",
          "type": "uint256"
        }
      ],
      "name": "tokenOfOwnerByIndex",
      "outputs": [
        {
          "internalType": "uint256",
          "name": "",
          "type": "uint256"
        }
      ],
      "stateMutability": "view",
      "type": "function"
    },
    {
      "inputs": [
        {
          "internalType": "uint256",
          "name": "tokenId",
          "type": "uint256"
        }
      ],
      "name": "tokenURI",
      "outputs": [
        {
          "internalType": "string",
          "name": "",
          "type": "string"
        }
      ],
      "stateMutability": "view",
      "type": "function"
    },
    {
      "inputs": [],
      "name": "totalSupply",
      "outputs": [
        {
          "internalType": "uint256",
          "name": "",
          "type": "uint256"
        }
      ],
      "stateMutability": "view",
      "type": "function"
    },
    {
      "inputs": [
        {
          "internalType": "address",
          "name": "from",
          "type": "address"
        },
        {
          "internalType": "address",
          "name": "to",
          "type": "address"
        },
        {
          "internalType": "uint256",
          "name": "tokenId",
          "type": "uint256"
        }
      ],
      "name": "transferFrom",
      "outputs": [],
      "stateMutability": "nonpayable",
      "type": "function"
    },
    {
      "inputs": [
        {
          "internalType": "address",
          "name": "newOwner",
          "type": "address"
        }
      ],
      "name": "transferOwnership",
      "outputs": [],
      "stateMutability": "nonpayable",
      "type": "function"
    },
    {
      "inputs": [],
      "name": "withdraw",
      "outputs": [],
      "stateMutability": "nonpayable",
      "type": "function"
    }
  ],
  "bytecode": "0x6080604052662386f26fc100006011553480156200001c57600080fd5b5060405162005179380380620051798339818101604052810190620000429190620003ce565b336040518060400160405280600c81526020017f506f6b656d6f6e436172647300000000000000000000000000000000000000008152506040518060400160405280600481526020017f504b4d4e000000000000000000000000000000000000000000000000000000008152508160009081620000c091906200066a565b508060019081620000d291906200066a565b505050600073ffffffffffffffffffffffffffffffffffffffff168173ffffffffffffffffffffffffffffffffffffffff16036200014a5760006040517f1e4fbdf700000000000000000000000000000000000000000000000000000000815260040162000141919062000796565b60405180910390fd5b6200015b816200017560201b60201c565b5080601090816200016d91906200066a565b5050620007b3565b6000600b60009054906101000a900473ffffffffffffffffffffffffffffffffffffffff16905081600b60006101000a81548173ffffffffffffffffffffffffffffffffffffffff021916908373ffffffffffffffffffffffffffffffffffffffff1602179055508173ffffffffffffffffffffffffffffffffffffffff168173ffffffffffffffffffffffffffffffffffffffff167f8be0079c531659141344cd1fd0a4f28419497f9722a3daafe3b4186f6b6457e060405160405180910390a35050565b6000604051905090565b600080fd5b600080fd5b600080fd5b600080fd5b6000601f19601f8301169050919050565b7f4e487b7100000000000000000000000000000000000000000000000000000000600052604160045260246000fd5b620002a48262000259565b810181811067ffffffffffffffff82111715620002c657620002c56200026a565b5b80604052505050565b6000620002db6200023b565b9050620002e9828262000299565b919050565b600067ffffffffffffffff8211156200030c576200030b6200026a565b5b620003178262000259565b9050602081019050919050565b60005b838110156200034457808201518184015260208101905062000327565b60008484015250505050565b6000620003676200036184620002ee565b620002cf565b90508281526020810184848401111562000386576200038562000254565b5b6200039384828562000324565b509392505050565b600082601f830112620003b357620003b26200024f565b5b8151620003c584826020860162000350565b91505092915050565b600060208284031215620003e757620003e662000245565b5b600082015167ffffffffffffffff8111156200040857620004076200024a565b5b62000416848285016200039b565b91505092915050565b600081519050919050565b7f4e487b7100000000000000000000000000000000000000000000000000000000600052602260045260246000fd5b600060028204905060018216806200047257607f821691505b6020821081036200048857620004876200042a565b5b50919050565b60008190508160005260206000209050919050565b60006020601f8301049050919050565b600082821b905092915050565b600060088302620004f27fffffffffffffffffffffffffffffffffffffffffffffffffffffffffffffffff82620004b3565b620004fe8683620004b3565b95508019841693508086168417925050509392505050565b6000819050919050565b6000819050919050565b60006200054b620005456200053f8462000516565b62000520565b62000516565b9050919050565b6000819050919050565b62000567836200052a565b6200057f620005768262000552565b848454620004c0565b825550505050565b600090565b6200059662000587565b620005a38184846200055c565b505050565b5b81811015620005cb57620005bf6000826200058c565b600181019050620005a9565b5050565b601f8211156200061a57620005e4816200048e565b620005ef84620004a3565b81016020851015620005ff578190505b620006176200060e85620004a3565b830182620005a8565b50505b505050565b600082821c905092915050565b60006200063f600019846008026200061f565b1980831691505092915050565b60006200065a83836200062c565b9150826002028217905092915050565b62000675826200041f565b67ffffffffffffffff8111156200069157620006906200026a565b5b6200069d825462000459565b620006aa828285620005cf565b600060209050601f831160018114620006e25760008415620006cd578287015190505b620006d985826200064c565b86555062000749565b601f198416620006f2866200048e565b60005b828110156200071c57848901518255600182019150602085019450602081019050620006f5565b868310156200073c578489015162000738601f8916826200062c565b8355505b6001600288020188555050505b505050505050565b600073ffffffffffffffffffffffffffffffffffffffff82169050919050565b60006200077e8262000751565b9050919050565b620007908162000771565b82525050565b6000602082019050620007ad600083018462000785565b92915050565b6149b680620007c36000396000f3fe6080604052600436106101d85760003560e01c80636817c76c11610102578063c1b2c1ae11610095578063f2fde38b11610064578063f2fde38b146106fe578063f4a0a52814610727578063fb3599b314610750578063ff04921914610780576101d8565b8063c1b2c1ae14610622578063c87b56dd14610666578063d607f317146106a3578063e985e9c5146106c1576101d8565b80638da5cb5b116100d15780638da5cb5b1461057a57806395d89b41146105a5578063a22cb465146105d0578063b88d4fde146105f9576101d8565b80636817c76c146104d05780636c9b1baa146104fb57806370a0823114610526578063715018a614610563576101d8565b806323b872dd1161017a5780634f6ccce7116101495780634f6ccce7146103e957806351977eb31461042657806355f804b31461046a5780636352211e14610493576101d8565b806323b872dd146103435780632f745c591461036c5780633ccfd60b146103a957806342842e0e146103c0576101d8565b8063081812fc116101b6578063081812fc14610282578063095ea7b3146102bf57806313b65ab7146102e857806318160ddd14610318576101d8565b806301c0f787146101dd57806301ffc9a71461021a57806306fdde0314610257575b600080fd5b3480156101e957600080fd5b5061020460048036038101906101ff91906135a2565b6107a9565b604051610211919061368d565b60405180910390f35b34801561022657600080fd5b50610241600480360381019061023c9190613707565b610814565b60405161024e919061374f565b60405180910390f35b34801561026357600080fd5b5061026c610826565b60405161027991906137fa565b60405180910390f35b34801561028e57600080fd5b506102a960048036038101906102a491906135a2565b6108b8565b6040516102b6919061385d565b60405180910390f35b3480156102cb57600080fd5b506102e660048036038101906102e191906138a4565b6108d4565b005b61030260048036038101906102fd91906138e4565b6108ea565b60405161030f9190613920565b60405180910390f35b34801561032457600080fd5b5061032d610aa5565b60405161033a9190613920565b60405180910390f35b34801561034f57600080fd5b5061036a6004803603810190610365919061393b565b610ab2565b005b34801561037857600080fd5b50610393600480360381019061038e91906138a4565b610bb4565b6040516103a09190613920565b60405180910390f35b3480156103b557600080fd5b506103be610c5d565b005b3480156103cc57600080fd5b506103e760048036038101906103e2919061393b565b610cb5565b005b3480156103f557600080fd5b50610410600480360381019061040b91906135a2565b610cd5565b60405161041d9190613920565b60405180910390f35b34801561043257600080fd5b5061044d600480360381019061044891906135a2565b610d4b565b60405161046198979695949392919061398e565b60405180910390f35b34801561047657600080fd5b50610491600480360381019061048c9190613b56565b610f3b565b005b34801561049f57600080fd5b506104ba60048036038101906104b591906135a2565b610f56565b6040516104c7919061385d565b60405180910390f35b3480156104dc57600080fd5b506104e5610f68565b6040516104f29190613920565b60405180910390f35b34801561050757600080fd5b50610510610f6e565b60405161051d9190613920565b60405180910390f35b34801561053257600080fd5b5061054d600480360381019061054891906138e4565b610f7b565b60405161055a9190613920565b60405180910390f35b34801561056f57600080fd5b50610578611035565b005b34801561058657600080fd5b5061058f611049565b60405161059c919061385d565b60405180910390f35b3480156105b157600080fd5b506105ba611073565b6040516105c791906137fa565b60405180910390f35b3480156105dc57600080fd5b506105f760048036038101906105f29190613bcb565b611105565b005b34801561060557600080fd5b50610620600480360381019061061b9190613cac565b61111b565b005b34801561062e57600080fd5b50610649600480360381019061064491906135a2565b611138565b60405161065d98979695949392919061398e565b60405180910390f35b34801561067257600080fd5b5061068d600480360381019061068891906135a2565b611318565b60405161069a91906137fa565b60405180910390f35b6106ab61132a565b6040516106b89190613920565b60405180910390f35b3480156106cd57600080fd5b506106e860048036038101906106e39190613d2f565b6113c8565b6040516106f5919061374f565b60405180910390f35b34801561070a57600080fd5b50610725600480360381019061072091906138e4565b61145c565b005b34801561073357600080fd5b5061074e600480360381019061074991906135a2565b6114e2565b005b61076a60048036038101906107659190613d6f565b6114f4565b6040516107779190613920565b60405180910390f35b34801561078c57600080fd5b506107a760048036038101906107a29190613daf565b6119b7565b005b6060600e600083815260200190815260200160002080548060200260200160405190810160405280929190818152602001828054801561080857602002820191906000526020600020905b8154815260200190600101908083116107f4575b50505050509050919050565b600061081f82611ae7565b9050919050565b60606000805461083590613ed4565b80601f016020809104026020016040519081016040528092919081815260200182805461086190613ed4565b80156108ae5780601f10610883576101008083540402835291602001916108ae565b820191906000526020600020905b81548152906001019060200180831161089157829003601f168201915b5050505050905090565b60006108c382611b61565b506108cd82611be9565b9050919050565b6108e682826108e1611c26565b611c2e565b5050565b600080600f8054905011610933576040517f08c379a000000000000000000000000000000000000000000000000000000000815260040161092a90613f51565b60405180910390fd5b601154341015610978576040517f08c379a000000000000000000000000000000000000000000000000000000000815260040161096f90613fbd565b60405180910390fd5b6000600f8054905042443361098d600c611c40565b6040516020016109a09493929190614046565b6040516020818303038152906040528051906020012060001c6109c391906140c3565b905060005b600f82815481106109dc576109db6140f4565b5b906000526020600020906008020160060154600f8381548110610a0257610a016140f4565b5b90600052602060002090600802016007015410610a9257600f80549050600183610a2c9190614152565b610a3691906140c3565b91508080610a4390614186565b915050600f805490508110610a8d576040517f08c379a0000000000000000000000000000000000000000000000000000000008152600401610a8490614240565b60405180910390fd5b6109c8565b610a9c8285611c4e565b92505050919050565b6000600980549050905090565b600073ffffffffffffffffffffffffffffffffffffffff168273ffffffffffffffffffffffffffffffffffffffff1603610b245760006040517f64a0ae92000000000000000000000000000000000000000000000000000000008152600401610b1b919061385d565b60405180910390fd5b6000610b388383610b33611c26565b611fbb565b90508373ffffffffffffffffffffffffffffffffffffffff168173ffffffffffffffffffffffffffffffffffffffff1614610bae578382826040517f64283d7b000000000000000000000000000000000000000000000000000000008152600401610ba593929190614260565b60405180910390fd5b50505050565b6000610bbf83610f7b565b8210610c045782826040517fa57d13dc000000000000000000000000000000000000000000000000000000008152600401610bfb929190614297565b60405180910390fd5b600760008473ffffffffffffffffffffffffffffffffffffffff1673ffffffffffffffffffffffffffffffffffffffff168152602001908152602001600020600083815260200190815260200160002054905092915050565b610c65611fd1565b610c6d611049565b73ffffffffffffffffffffffffffffffffffffffff166108fc479081150290604051600060405180830381858888f19350505050158015610cb2573d6000803e3d6000fd5b50565b610cd08383836040518060200160405280600081525061111b565b505050565b6000610cdf610aa5565b8210610d25576000826040517fa57d13dc000000000000000000000000000000000000000000000000000000008152600401610d1c929190614297565b60405180910390fd5b60098281548110610d3957610d386140f4565b5b90600052602060002001549050919050565b600f8181548110610d5b57600080fd5b9060005260206000209060080201600091509050806000015490806001018054610d8490613ed4565b80601f0160208091040260200160405190810160405280929190818152602001828054610db090613ed4565b8015610dfd5780601f10610dd257610100808354040283529160200191610dfd565b820191906000526020600020905b815481529060010190602001808311610de057829003601f168201915b505050505090806002018054610e1290613ed4565b80601f0160208091040260200160405190810160405280929190818152602001828054610e3e90613ed4565b8015610e8b5780601f10610e6057610100808354040283529160200191610e8b565b820191906000526020600020905b815481529060010190602001808311610e6e57829003601f168201915b505050505090806003018054610ea090613ed4565b80601f0160208091040260200160405190810160405280929190818152602001828054610ecc90613ed4565b8015610f195780601f10610eee57610100808354040283529160200191610f19565b820191906000526020600020905b815481529060010190602001808311610efc57829003601f168201915b5050505050908060040154908060050154908060060154908060070154905088565b610f43611fd1565b8060109081610f52919061446c565b5050565b6000610f6182611b61565b9050919050565b60115481565b6000600f80549050905090565b60008073ffffffffffffffffffffffffffffffffffffffff168273ffffffffffffffffffffffffffffffffffffffff1603610fee5760006040517f89c62b64000000000000000000000000000000000000000000000000000000008152600401610fe5919061385d565b60405180910390fd5b600360008373ffffffffffffffffffffffffffffffffffffffff1673ffffffffffffffffffffffffffffffffffffffff168152602001908152602001600020549050919050565b61103d611fd1565b6110476000612058565b565b6000600b60009054906101000a900473ffffffffffffffffffffffffffffffffffffffff16905090565b60606001805461108290613ed4565b80601f01602080910402602001604051908101604052809291908181526020018280546110ae90613ed4565b80156110fb5780601f106110d0576101008083540402835291602001916110fb565b820191906000526020600020905b8154815290600101906020018083116110de57829003601f168201915b5050505050905090565b611117611110611c26565b838361211e565b5050565b611126848484610ab2565b6111328484848461228d565b50505050565b600d60205280600052604060002060009150905080600001549080600101805461116190613ed4565b80601f016020809104026020016040519081016040528092919081815260200182805461118d90613ed4565b80156111da5780601f106111af576101008083540402835291602001916111da565b820191906000526020600020905b8154815290600101906020018083116111bd57829003601f168201915b5050505050908060020180546111ef90613ed4565b80601f016020809104026020016040519081016040528092919081815260200182805461121b90613ed4565b80156112685780601f1061123d57610100808354040283529160200191611268565b820191906000526020600020905b81548152906001019060200180831161124b57829003601f168201915b50505050509080600301805461127d90613ed4565b80601f01602080910402602001604051908101604052809291908181526020018280546112a990613ed4565b80156112f65780601f106112cb576101008083540402835291602001916112f6565b820191906000526020600020905b8154815290600101906020018083116112d957829003601f168201915b5050505050908060040154908060050154908060060154908060070154905088565b606061132382612444565b9050919050565b600080600f8054905011611373576040517f08c379a000000000000000000000000000000000000000000000000000000000815260040161136a90613f51565b60405180910390fd5b6011543410156113b8576040517f08c379a00000000000000000000000000000000000000000000000000000000081526004016113af90613fbd565b60405180910390fd5b6113c36000336114f4565b905090565b6000600560008473ffffffffffffffffffffffffffffffffffffffff1673ffffffffffffffffffffffffffffffffffffffff16815260200190815260200160002060008373ffffffffffffffffffffffffffffffffffffffff1673ffffffffffffffffffffffffffffffffffffffff16815260200190815260200160002060009054906101000a900460ff16905092915050565b611464611fd1565b600073ffffffffffffffffffffffffffffffffffffffff168173ffffffffffffffffffffffffffffffffffffffff16036114d65760006040517f1e4fbdf70000000000000000000000000000000000000000000000000000000081526004016114cd919061385d565b60405180910390fd5b6114df81612058565b50565b6114ea611fd1565b8060118190555050565b6000600f80549050831061153d576040517f08c379a00000000000000000000000000000000000000000000000000000000081526004016115349061458a565b60405180910390fd5b600f8381548110611551576115506140f4565b5b906000526020600020906008020160060154600f8481548110611577576115766140f4565b5b906000526020600020906008020160070154106115c9576040517f08c379a00000000000000000000000000000000000000000000000000000000081526004016115c09061461c565b60405180910390fd5b60115434101561160e576040517f08c379a000000000000000000000000000000000000000000000000000000000815260040161160590613fbd565b60405180910390fd5b611618600c612557565b6000611624600c611c40565b90506000600f858154811061163c5761163b6140f4565b5b9060005260206000209060080201905080600701600081548092919061166190614186565b91905055506116708483612576565b6116ae8261167c61266f565b6116898460000154612701565b60405160200161169a9291906146c4565b6040516020818303038152906040526127cf565b604051806101000160405280826000015481526020018260010180546116d390613ed4565b80601f01602080910402602001604051908101604052809291908181526020018280546116ff90613ed4565b801561174c5780601f106117215761010080835404028352916020019161174c565b820191906000526020600020905b81548152906001019060200180831161172f57829003601f168201915b5050505050815260200182600201805461176590613ed4565b80601f016020809104026020016040519081016040528092919081815260200182805461179190613ed4565b80156117de5780601f106117b3576101008083540402835291602001916117de565b820191906000526020600020905b8154815290600101906020018083116117c157829003601f168201915b505050505081526020018260030180546117f790613ed4565b80601f016020809104026020016040519081016040528092919081815260200182805461182390613ed4565b80156118705780601f1061184557610100808354040283529160200191611870565b820191906000526020600020905b81548152906001019060200180831161185357829003601f168201915b505050505081526020018260040154815260200182600501548152602001826006015481526020018260070154815250600d60008481526020019081526020016000206000820151816000015560208201518160010190816118d2919061446c565b5060408201518160020190816118e8919061446c565b5060608201518160030190816118fe919061446c565b506080820151816004015560a0820151816005015560c0820151816006015560e08201518160070155905050600e6000826000015481526020019081526020016000208290806001815401808255809150506001900390600052602060002001600090919091909150557feebfd76b8c41858f758eb77a04586bb4e4a1546ce3ebe8792374f8bc141f450482826000015483600101876040516119a49493929190614777565b60405180910390a1819250505092915050565b6119bf611fd1565b600060405180610100016040528089815260200188815260200187815260200186815260200185815260200184815260200183815260200160008152509050600f819080600181540180825580915050600190039060005260206000209060080201600090919091909150600082015181600001556020820151816001019081611a49919061446c565b506040820151816002019081611a5f919061446c565b506060820151816003019081611a75919061446c565b506080820151816004015560a0820151816005015560c0820151816006015560e0820151816007015550507fbb943a75897841273de992018d6a6fa10dcf6b7e69231efef8815db6a70ec26788888785604051611ad594939291906147c3565b60405180910390a15050505050505050565b60007f780e9d63000000000000000000000000000000000000000000000000000000007bffffffffffffffffffffffffffffffffffffffffffffffffffffffff1916827bffffffffffffffffffffffffffffffffffffffffffffffffffffffff19161480611b5a5750611b598261282b565b5b9050919050565b600080611b6d8361288c565b9050600073ffffffffffffffffffffffffffffffffffffffff168173ffffffffffffffffffffffffffffffffffffffff1603611be057826040517f7e273289000000000000000000000000000000000000000000000000000000008152600401611bd79190613920565b60405180910390fd5b80915050919050565b60006004600083815260200190815260200160002060009054906101000a900473ffffffffffffffffffffffffffffffffffffffff169050919050565b600033905090565b611c3b83838360016128c9565b505050565b600081600001549050919050565b6000611c5a600c612557565b6000611c66600c611c40565b90506000600f8581548110611c7e57611c7d6140f4565b5b90600052602060002090600802019050806007016000815480929190611ca390614186565b9190505550611cb28483612576565b60405180610100016040528082600001548152602001826001018054611cd790613ed4565b80601f0160208091040260200160405190810160405280929190818152602001828054611d0390613ed4565b8015611d505780601f10611d2557610100808354040283529160200191611d50565b820191906000526020600020905b815481529060010190602001808311611d3357829003601f168201915b50505050508152602001826002018054611d6990613ed4565b80601f0160208091040260200160405190810160405280929190818152602001828054611d9590613ed4565b8015611de25780601f10611db757610100808354040283529160200191611de2565b820191906000526020600020905b815481529060010190602001808311611dc557829003601f168201915b50505050508152602001826003018054611dfb90613ed4565b80601f0160208091040260200160405190810160405280929190818152602001828054611e2790613ed4565b8015611e745780601f10611e4957610100808354040283529160200191611e74565b820191906000526020600020905b815481529060010190602001808311611e5757829003601f168201915b505050505081526020018260040154815260200182600501548152602001826006015481526020018260070154815250600d6000848152602001908152602001600020600082015181600001556020820151816001019081611ed6919061446c565b506040820151816002019081611eec919061446c565b506060820151816003019081611f02919061446c565b506080820151816004015560a0820151816005015560c0820151816006015560e08201518160070155905050600e6000826000015481526020019081526020016000208290806001815401808255809150506001900390600052602060002001600090919091909150557feebfd76b8c41858f758eb77a04586bb4e4a1546ce3ebe8792374f8bc141f45048282600001548360010187604051611fa89493929190614777565b60405180910390a1819250505092915050565b6000611fc8848484612a8e565b90509392505050565b611fd9611c26565b73ffffffffffffffffffffffffffffffffffffffff16611ff7611049565b73ffffffffffffffffffffffffffffffffffffffff16146120565761201a611c26565b6040517f118cdaa700000000000000000000000000000000000000000000000000000000815260040161204d919061385d565b60405180910390fd5b565b6000600b60009054906101000a900473ffffffffffffffffffffffffffffffffffffffff16905081600b60006101000a81548173ffffffffffffffffffffffffffffffffffffffff021916908373ffffffffffffffffffffffffffffffffffffffff1602179055508173ffffffffffffffffffffffffffffffffffffffff168173ffffffffffffffffffffffffffffffffffffffff167f8be0079c531659141344cd1fd0a4f28419497f9722a3daafe3b4186f6b6457e060405160405180910390a35050565b600073ffffffffffffffffffffffffffffffffffffffff168273ffffffffffffffffffffffffffffffffffffffff160361218f57816040517f5b08ba18000000000000000000000000000000000000000000000000000000008152600401612186919061385d565b60405180910390fd5b80600560008573ffffffffffffffffffffffffffffffffffffffff1673ffffffffffffffffffffffffffffffffffffffff16815260200190815260200160002060008473ffffffffffffffffffffffffffffffffffffffff1673ffffffffffffffffffffffffffffffffffffffff16815260200190815260200160002060006101000a81548160ff0219169083151502179055508173ffffffffffffffffffffffffffffffffffffffff168373ffffffffffffffffffffffffffffffffffffffff167f17307eab39ab6107e8899845ad3d59bd9653f200f220920489ca2b5937696c3183604051612280919061374f565b60405180910390a3505050565b60008373ffffffffffffffffffffffffffffffffffffffff163b111561243e578273ffffffffffffffffffffffffffffffffffffffff1663150b7a026122d1611c26565b8685856040518563ffffffff1660e01b81526004016122f3949392919061486b565b6020604051808303816000875af192505050801561232f57506040513d601f19601f8201168201806040525081019061232c91906148cc565b60015b6123b3573d806000811461235f576040519150601f19603f3d011682016040523d82523d6000602084013e612364565b606091505b5060008151036123ab57836040517f64a0ae920000000000000000000000000000000000000000000000000000000081526004016123a2919061385d565b60405180910390fd5b805181602001fd5b63150b7a0260e01b7bffffffffffffffffffffffffffffffffffffffffffffffffffffffff1916817bffffffffffffffffffffffffffffffffffffffffffffffffffffffff19161461243c57836040517f64a0ae92000000000000000000000000000000000000000000000000000000008152600401612433919061385d565b60405180910390fd5b505b50505050565b606061244f82611b61565b50600060066000848152602001908152602001600020805461247090613ed4565b80601f016020809104026020016040519081016040528092919081815260200182805461249c90613ed4565b80156124e95780601f106124be576101008083540402835291602001916124e9565b820191906000526020600020905b8154815290600101906020018083116124cc57829003601f168201915b5050505050905060006124fa61266f565b9050600081510361250f578192505050612552565b60008251111561254457808260405160200161252c9291906148f9565b60405160208183030381529060405292505050612552565b61254d84612bab565b925050505b919050565b600181600001600082825461256c9190614152565b9250508190555050565b600073ffffffffffffffffffffffffffffffffffffffff168273ffffffffffffffffffffffffffffffffffffffff16036125e85760006040517f64a0ae920000000000000000000000000000000000000000000000000000000081526004016125df919061385d565b60405180910390fd5b60006125f683836000611fbb565b9050600073ffffffffffffffffffffffffffffffffffffffff168173ffffffffffffffffffffffffffffffffffffffff161461266a5760006040517f73c6ac6e000000000000000000000000000000000000000000000000000000008152600401612661919061385d565b60405180910390fd5b505050565b60606010805461267e90613ed4565b80601f01602080910402602001604051908101604052809291908181526020018280546126aa90613ed4565b80156126f75780601f106126cc576101008083540402835291602001916126f7565b820191906000526020600020905b8154815290600101906020018083116126da57829003601f168201915b5050505050905090565b60606000600161271084612c14565b01905060008167ffffffffffffffff81111561272f5761272e613a2b565b5b6040519080825280601f01601f1916602001820160405280156127615781602001600182028036833780820191505090505b509050600082602001820190505b6001156127c4578080600190039150507f3031323334353637383961626364656600000000000000000000000000000000600a86061a8153600a85816127b8576127b7614094565b5b0494506000850361276f575b819350505050919050565b806006600084815260200190815260200160002090816127ef919061446c565b507ff8e1a15aba9398e019f0b49df1a4fde98ee17ae345cb5f6b5e2c27f5033e8ce78260405161281f9190613920565b60405180910390a15050565b6000634906490660e01b7bffffffffffffffffffffffffffffffffffffffffffffffffffffffff1916827bffffffffffffffffffffffffffffffffffffffffffffffffffffffff19161480612885575061288482612d67565b5b9050919050565b60006002600083815260200190815260200160002060009054906101000a900473ffffffffffffffffffffffffffffffffffffffff169050919050565b80806129025750600073ffffffffffffffffffffffffffffffffffffffff168273ffffffffffffffffffffffffffffffffffffffff1614155b15612a3657600061291284611b61565b9050600073ffffffffffffffffffffffffffffffffffffffff168373ffffffffffffffffffffffffffffffffffffffff161415801561297d57508273ffffffffffffffffffffffffffffffffffffffff168173ffffffffffffffffffffffffffffffffffffffff1614155b8015612990575061298e81846113c8565b155b156129d257826040517fa9fbf51f0000000000000000000000000000000000000000000000000000000081526004016129c9919061385d565b60405180910390fd5b8115612a3457838573ffffffffffffffffffffffffffffffffffffffff168273ffffffffffffffffffffffffffffffffffffffff167f8c5be1e5ebec7d5bd14f71427d1e84f3dd0314c0f7b2291e5b200ac8c7c3b92560405160405180910390a45b505b836004600085815260200190815260200160002060006101000a81548173ffffffffffffffffffffffffffffffffffffffff021916908373ffffffffffffffffffffffffffffffffffffffff16021790555050505050565b600080612a9c858585612e49565b9050600073ffffffffffffffffffffffffffffffffffffffff168173ffffffffffffffffffffffffffffffffffffffff1603612ae057612adb84613063565b612b1f565b8473ffffffffffffffffffffffffffffffffffffffff168173ffffffffffffffffffffffffffffffffffffffff1614612b1e57612b1d81856130ac565b5b5b600073ffffffffffffffffffffffffffffffffffffffff168573ffffffffffffffffffffffffffffffffffffffff1603612b6157612b5c8461320d565b612ba0565b8473ffffffffffffffffffffffffffffffffffffffff168173ffffffffffffffffffffffffffffffffffffffff1614612b9f57612b9e85856132de565b5b5b809150509392505050565b6060612bb682611b61565b506000612bc161266f565b90506000815111612be15760405180602001604052806000815250612c0c565b80612beb84612701565b604051602001612bfc9291906148f9565b6040516020818303038152906040525b915050919050565b600080600090507a184f03e93ff9f4daa797ed6e38ed64bf6a1f0100000000000000008310612c72577a184f03e93ff9f4daa797ed6e38ed64bf6a1f0100000000000000008381612c6857612c67614094565b5b0492506040810190505b6d04ee2d6d415b85acef81000000008310612caf576d04ee2d6d415b85acef81000000008381612ca557612ca4614094565b5b0492506020810190505b662386f26fc100008310612cde57662386f26fc100008381612cd457612cd3614094565b5b0492506010810190505b6305f5e1008310612d07576305f5e1008381612cfd57612cfc614094565b5b0492506008810190505b6127108310612d2c576127108381612d2257612d21614094565b5b0492506004810190505b60648310612d4f5760648381612d4557612d44614094565b5b0492506002810190505b600a8310612d5e576001810190505b80915050919050565b60007f80ac58cd000000000000000000000000000000000000000000000000000000007bffffffffffffffffffffffffffffffffffffffffffffffffffffffff1916827bffffffffffffffffffffffffffffffffffffffffffffffffffffffff19161480612e3257507f5b5e139f000000000000000000000000000000000000000000000000000000007bffffffffffffffffffffffffffffffffffffffffffffffffffffffff1916827bffffffffffffffffffffffffffffffffffffffffffffffffffffffff1916145b80612e425750612e4182613369565b5b9050919050565b600080612e558461288c565b9050600073ffffffffffffffffffffffffffffffffffffffff168373ffffffffffffffffffffffffffffffffffffffff1614612e9757612e968184866133d3565b5b600073ffffffffffffffffffffffffffffffffffffffff168173ffffffffffffffffffffffffffffffffffffffff1614612f2857612ed96000856000806128c9565b6001600360008373ffffffffffffffffffffffffffffffffffffffff1673ffffffffffffffffffffffffffffffffffffffff168152602001908152602001600020600082825403925050819055505b600073ffffffffffffffffffffffffffffffffffffffff168573ffffffffffffffffffffffffffffffffffffffff1614612fab576001600360008773ffffffffffffffffffffffffffffffffffffffff1673ffffffffffffffffffffffffffffffffffffffff168152602001908152602001600020600082825401925050819055505b846002600086815260200190815260200160002060006101000a81548173ffffffffffffffffffffffffffffffffffffffff021916908373ffffffffffffffffffffffffffffffffffffffff160217905550838573ffffffffffffffffffffffffffffffffffffffff168273ffffffffffffffffffffffffffffffffffffffff167fddf252ad1be2c89b69c2b068fc378daa952ba7f163c4a11628f55a4df523b3ef60405160405180910390a4809150509392505050565b600980549050600a600083815260200190815260200160002081905550600981908060018154018082558091505060019003906000526020600020016000909190919091505550565b60006130b783610f7b565b905060006008600084815260200190815260200160002054905081811461319c576000600760008673ffffffffffffffffffffffffffffffffffffffff1673ffffffffffffffffffffffffffffffffffffffff168152602001908152602001600020600084815260200190815260200160002054905080600760008773ffffffffffffffffffffffffffffffffffffffff1673ffffffffffffffffffffffffffffffffffffffff168152602001908152602001600020600084815260200190815260200160002081905550816008600083815260200190815260200160002081905550505b6008600084815260200190815260200160002060009055600760008573ffffffffffffffffffffffffffffffffffffffff1673ffffffffffffffffffffffffffffffffffffffff16815260200190815260200160002060008381526020019081526020016000206000905550505050565b60006001600980549050613221919061491d565b90506000600a6000848152602001908152602001600020549050600060098381548110613251576132506140f4565b5b906000526020600020015490508060098381548110613273576132726140f4565b5b906000526020600020018190555081600a600083815260200190815260200160002081905550600a60008581526020019081526020016000206000905560098054806132c2576132c1614951565b5b6001900381819060005260206000200160009055905550505050565b600060016132eb84610f7b565b6132f5919061491d565b905081600760008573ffffffffffffffffffffffffffffffffffffffff1673ffffffffffffffffffffffffffffffffffffffff168152602001908152602001600020600083815260200190815260200160002081905550806008600084815260200190815260200160002081905550505050565b60007f01ffc9a7000000000000000000000000000000000000000000000000000000007bffffffffffffffffffffffffffffffffffffffffffffffffffffffff1916827bffffffffffffffffffffffffffffffffffffffffffffffffffffffff1916149050919050565b6133de838383613497565b61349257600073ffffffffffffffffffffffffffffffffffffffff168373ffffffffffffffffffffffffffffffffffffffff160361345357806040517f7e27328900000000000000000000000000000000000000000000000000000000815260040161344a9190613920565b60405180910390fd5b81816040517f177e802f000000000000000000000000000000000000000000000000000000008152600401613489929190614297565b60405180910390fd5b505050565b60008073ffffffffffffffffffffffffffffffffffffffff168373ffffffffffffffffffffffffffffffffffffffff161415801561354f57508273ffffffffffffffffffffffffffffffffffffffff168473ffffffffffffffffffffffffffffffffffffffff161480613510575061350f84846113c8565b5b8061354e57508273ffffffffffffffffffffffffffffffffffffffff1661353683611be9565b73ffffffffffffffffffffffffffffffffffffffff16145b5b90509392505050565b6000604051905090565b600080fd5b600080fd5b6000819050919050565b61357f8161356c565b811461358a57600080fd5b50565b60008135905061359c81613576565b92915050565b6000602082840312156135b8576135b7613562565b5b60006135c68482850161358d565b91505092915050565b600081519050919050565b600082825260208201905092915050565b6000819050602082019050919050565b6136048161356c565b82525050565b600061361683836135fb565b60208301905092915050565b6000602082019050919050565b600061363a826135cf565b61364481856135da565b935061364f836135eb565b8060005b83811015613680578151613667888261360a565b975061367283613622565b925050600181019050613653565b5085935050505092915050565b600060208201905081810360008301526136a7818461362f565b905092915050565b60007fffffffff0000000000000000000000000000000000000000000000000000000082169050919050565b6136e4816136af565b81146136ef57600080fd5b50565b600081359050613701816136db565b92915050565b60006020828403121561371d5761371c613562565b5b600061372b848285016136f2565b91505092915050565b60008115159050919050565b61374981613734565b82525050565b60006020820190506137646000830184613740565b92915050565b600081519050919050565b600082825260208201905092915050565b60005b838110156137a4578082015181840152602081019050613789565b60008484015250505050565b6000601f19601f8301169050919050565b60006137cc8261376a565b6137d68185613775565b93506137e6818560208601613786565b6137ef816137b0565b840191505092915050565b6000602082019050818103600083015261381481846137c1565b905092915050565b600073ffffffffffffffffffffffffffffffffffffffff82169050919050565b60006138478261381c565b9050919050565b6138578161383c565b82525050565b6000602082019050613872600083018461384e565b92915050565b6138818161383c565b811461388c57600080fd5b50565b60008135905061389e81613878565b92915050565b600080604083850312156138bb576138ba613562565b5b60006138c98582860161388f565b92505060206138da8582860161358d565b9150509250929050565b6000602082840312156138fa576138f9613562565b5b60006139088482850161388f565b91505092915050565b61391a8161356c565b82525050565b60006020820190506139356000830184613911565b92915050565b60008060006060848603121561395457613953613562565b5b60006139628682870161388f565b93505060206139738682870161388f565b92505060406139848682870161358d565b9150509250925092565b6000610100820190506139a4600083018b613911565b81810360208301526139b6818a6137c1565b905081810360408301526139ca81896137c1565b905081810360608301526139de81886137c1565b90506139ed6080830187613911565b6139fa60a0830186613911565b613a0760c0830185613911565b613a1460e0830184613911565b9998505050505050505050565b600080fd5b600080fd5b7f4e487b7100000000000000000000000000000000000000000000000000000000600052604160045260246000fd5b613a63826137b0565b810181811067ffffffffffffffff82111715613a8257613a81613a2b565b5b80604052505050565b6000613a95613558565b9050613aa18282613a5a565b919050565b600067ffffffffffffffff821115613ac157613ac0613a2b565b5b613aca826137b0565b9050602081019050919050565b82818337600083830152505050565b6000613af9613af484613aa6565b613a8b565b905082815260208101848484011115613b1557613b14613a26565b5b613b20848285613ad7565b509392505050565b600082601f830112613b3d57613b3c613a21565b5b8135613b4d848260208601613ae6565b91505092915050565b600060208284031215613b6c57613b6b613562565b5b600082013567ffffffffffffffff811115613b8a57613b89613567565b5b613b9684828501613b28565b91505092915050565b613ba881613734565b8114613bb357600080fd5b50565b600081359050613bc581613b9f565b92915050565b60008060408385031215613be257613be1613562565b5b6000613bf08582860161388f565b9250506020613c0185828601613bb6565b9150509250929050565b600067ffffffffffffffff821115613c2657613c25613a2b565b5b613c2f826137b0565b9050602081019050919050565b6000613c4f613c4a84613c0b565b613a8b565b905082815260208101848484011115613c6b57613c6a613a26565b5b613c76848285613ad7565b509392505050565b600082601f830112613c9357613c92613a21565b5b8135613ca3848260208601613c3c565b91505092915050565b60008060008060808587031215613cc657613cc5613562565b5b6000613cd48782880161388f565b9450506020613ce58782880161388f565b9350506040613cf68782880161358d565b925050606085013567ffffffffffffffff811115613d1757613d16613567565b5b613d2387828801613c7e565b91505092959194509250565b60008060408385031215613d4657613d45613562565b5b6000613d548582860161388f565b9250506020613d658582860161388f565b9150509250929050565b60008060408385031215613d8657613d85613562565b5b6000613d948582860161358d565b9250506020613da58582860161388f565b9150509250929050565b600080600080600080600060e0888a031215613dce57613dcd613562565b5b6000613ddc8a828b0161358d565b975050602088013567ffffffffffffffff811115613dfd57613dfc613567565b5b613e098a828b01613b28565b965050604088013567ffffffffffffffff811115613e2a57613e29613567565b5b613e368a828b01613b28565b955050606088013567ffffffffffffffff811115613e5757613e56613567565b5b613e638a828b01613b28565b9450506080613e748a828b0161358d565b93505060a0613e858a828b0161358d565b92505060c0613e968a828b0161358d565b91505092959891949750929550565b7f4e487b7100000000000000000000000000000000000000000000000000000000600052602260045260246000fd5b60006002820490506001821680613eec57607f821691505b602082108103613eff57613efe613ea5565b5b50919050565b7f4e6f20506f6b656d6f6e20617661696c61626c6520746f206d696e7400000000600082015250565b6000613f3b601c83613775565b9150613f4682613f05565b602082019050919050565b60006020820190508181036000830152613f6a81613f2e565b9050919050565b7f496e73756666696369656e74207061796d656e74000000000000000000000000600082015250565b6000613fa7601483613775565b9150613fb282613f71565b602082019050919050565b60006020820190508181036000830152613fd681613f9a565b9050919050565b6000819050919050565b613ff8613ff38261356c565b613fdd565b82525050565b60008160601b9050919050565b600061401682613ffe565b9050919050565b60006140288261400b565b9050919050565b61404061403b8261383c565b61401d565b82525050565b60006140528287613fe7565b6020820191506140628286613fe7565b602082019150614072828561402f565b6014820191506140828284613fe7565b60208201915081905095945050505050565b7f4e487b7100000000000000000000000000000000000000000000000000000000600052601260045260246000fd5b60006140ce8261356c565b91506140d98361356c565b9250826140e9576140e8614094565b5b828206905092915050565b7f4e487b7100000000000000000000000000000000000000000000000000000000600052603260045260246000fd5b7f4e487b7100000000000000000000000000000000000000000000000000000000600052601160045260246000fd5b600061415d8261356c565b91506141688361356c565b92508282019050808211156141805761417f614123565b5b92915050565b60006141918261356c565b91507fffffffffffffffffffffffffffffffffffffffffffffffffffffffffffffffff82036141c3576141c2614123565b5b600182019050919050565b7f416c6c20506f6b656d6f6e20686176652072656163686564206d6178696d756d60008201527f20737570706c7900000000000000000000000000000000000000000000000000602082015250565b600061422a602783613775565b9150614235826141ce565b604082019050919050565b600060208201905081810360008301526142598161421d565b9050919050565b6000606082019050614275600083018661384e565b6142826020830185613911565b61428f604083018461384e565b949350505050565b60006040820190506142ac600083018561384e565b6142b96020830184613911565b9392505050565b60008190508160005260206000209050919050565b60006020601f8301049050919050565b600082821b905092915050565b6000600883026143227fffffffffffffffffffffffffffffffffffffffffffffffffffffffffffffffff826142e5565b61432c86836142e5565b95508019841693508086168417925050509392505050565b6000819050919050565b600061436961436461435f8461356c565b614344565b61356c565b9050919050565b6000819050919050565b6143838361434e565b61439761438f82614370565b8484546142f2565b825550505050565b600090565b6143ac61439f565b6143b781848461437a565b505050565b5b818110156143db576143d06000826143a4565b6001810190506143bd565b5050565b601f821115614420576143f1816142c0565b6143fa846142d5565b81016020851015614409578190505b61441d614415856142d5565b8301826143bc565b50505b505050565b600082821c905092915050565b600061444360001984600802614425565b1980831691505092915050565b600061445c8383614432565b9150826002028217905092915050565b6144758261376a565b67ffffffffffffffff81111561448e5761448d613a2b565b5b6144988254613ed4565b6144a38282856143df565b600060209050601f8311600181146144d657600084156144c4578287015190505b6144ce8582614450565b865550614536565b601f1984166144e4866142c0565b60005b8281101561450c578489015182556001820191506020850194506020810190506144e7565b868310156145295784890151614525601f891682614432565b8355505b6001600288020188555050505b505050505050565b7f506f6b656d6f6e20646f6573206e6f7420657869737400000000000000000000600082015250565b6000614574601683613775565b915061457f8261453e565b602082019050919050565b600060208201905081810360008301526145a381614567565b9050919050565b7f4d6178696d756d20737570706c79207265616368656420666f7220746869732060008201527f506f6b656d6f6e00000000000000000000000000000000000000000000000000602082015250565b6000614606602783613775565b9150614611826145aa565b604082019050919050565b60006020820190508181036000830152614635816145f9565b9050919050565b600081905092915050565b60006146528261376a565b61465c818561463c565b935061466c818560208601613786565b80840191505092915050565b7f2e6a736f6e000000000000000000000000000000000000000000000000000000600082015250565b60006146ae60058361463c565b91506146b982614678565b600582019050919050565b60006146d08285614647565b91506146dc8284614647565b91506146e7826146a1565b91508190509392505050565b6000815461470081613ed4565b61470a8186613775565b94506001821660008114614725576001811461473b5761476e565b60ff19831686528115156020028601935061476e565b614744856142c0565b60005b8381101561476657815481890152600182019150602081019050614747565b808801955050505b50505092915050565b600060808201905061478c6000830187613911565b6147996020830186613911565b81810360408301526147ab81856146f3565b90506147ba606083018461384e565b95945050505050565b60006080820190506147d86000830187613911565b81810360208301526147ea81866137c1565b905081810360408301526147fe81856137c1565b905061480d6060830184613911565b95945050505050565b600081519050919050565b600082825260208201905092915050565b600061483d82614816565b6148478185614821565b9350614857818560208601613786565b614860816137b0565b840191505092915050565b6000608082019050614880600083018761384e565b61488d602083018661384e565b61489a6040830185613911565b81810360608301526148ac8184614832565b905095945050505050565b6000815190506148c6816136db565b92915050565b6000602082840312156148e2576148e1613562565b5b60006148f0848285016148b7565b91505092915050565b60006149058285614647565b91506149118284614647565b91508190509392505050565b60006149288261356c565b91506149338361356c565b925082820390508181111561494b5761494a614123565b5b92915050565b7f4e487b7100000000000000000000000000000000000000000000000000000000600052603160045260246000fdfea2646970667358221220fbff7b2fbb89647185d3706765fce9214fd3df08c0e8af861b5108ff65a173a964736f6c63430008140033",
  "linkReferences": {},
  "deployedLinkReferences": {}
}