{
  "_format": "hh-sol-artifact-1",
  "contractName": "PokemonMarketplace",
  "sourceName": "contracts/PokemonMarketplace.sol",
  "abi": [
    {
      "inputs": [
        {
          "internalType": "address",
          "name": "_nftContract",
          "type": "address"
        }
      ],
      "stateMutability": "nonpayable",
      "type": "constructor"
    },
    {
      "inputs": [
        {
          "internalType": "address",
          "name": "owner",
          "type": "address"
        }
      ],
      "name": "OwnableInvalidOwner",
      "type": "error"
    },
    {
      "inputs": [
        {
          "internalType": "address",
          "name": "account",
          "type": "address"
        }
      ],
      "name": "OwnableUnauthorizedAccount",
      "type": "error"
    },
    {
      "inputs": [],
      "name": "ReentrancyGuardReentrantCall",
      "type": "error"
    },
    {
      "anonymous": false,
      "inputs": [
        {
          "indexed": false,
          "internalType": "uint256",
          "name": "listingId",
          "type": "uint256"
        },
        {
          "indexed": false,
          "internalType": "address",
          "name": "winner",
          "type": "address"
        },
        {
          "indexed": false,
          "internalType": "uint256",
          "name": "price",
          "type": "uint256"
        }
      ],
      "name": "AuctionFinalized",
      "type": "event"
    },
    {
      "anonymous": false,
      "inputs": [
        {
          "indexed": false,
          "internalType": "uint256",
          "name": "listingId",
          "type": "uint256"
        },
        {
          "indexed": false,
          "internalType": "address",
          "name": "bidder",
          "type": "address"
        },
        {
          "indexed": false,
          "internalType": "uint256",
          "name": "bid",
          "type": "uint256"
        }
      ],
      "name": "BidPlaced",
      "type": "event"
    },
    {
      "anonymous": false,
      "inputs": [
        {
          "indexed": false,
          "internalType": "uint256",
          "name": "listingId",
          "type": "uint256"
        }
      ],
      "name": "ListingCancelled",
      "type": "event"
    },
    {
      "anonymous": false,
      "inputs": [
        {
          "indexed": false,
          "internalType": "uint256",
          "name": "listingId",
          "type": "uint256"
        },
        {
          "indexed": false,
          "internalType": "address",
          "name": "seller",
          "type": "address"
        },
        {
          "indexed": false,
          "internalType": "uint256",
          "name": "tokenId",
          "type": "uint256"
        },
        {
          "indexed": false,
          "internalType": "uint256",
          "name": "price",
          "type": "uint256"
        },
        {
          "indexed": false,
          "internalType": "enum PokemonMarketplace.ListingType",
          "name": "listingType",
          "type": "uint8"
        },
        {
          "indexed": false,
          "internalType": "uint256",
          "name": "auctionEndTime",
          "type": "uint256"
        }
      ],
      "name": "ListingCreated",
      "type": "event"
    },
    {
      "anonymous": false,
      "inputs": [
        {
          "indexed": false,
          "internalType": "uint256",
          "name": "listingId",
          "type": "uint256"
        },
        {
          "indexed": false,
          "internalType": "address",
          "name": "buyer",
          "type": "address"
        },
        {
          "indexed": false,
          "internalType": "uint256",
          "name": "price",
          "type": "uint256"
        }
      ],
      "name": "ListingSuccessful",
      "type": "event"
    },
    {
      "anonymous": false,
      "inputs": [
        {
          "indexed": true,
          "internalType": "address",
          "name": "previousOwner",
          "type": "address"
        },
        {
          "indexed": true,
          "internalType": "address",
          "name": "newOwner",
          "type": "address"
        }
      ],
      "name": "OwnershipTransferred",
      "type": "event"
    },
    {
      "anonymous": false,
      "inputs": [
        {
          "indexed": false,
          "internalType": "uint256",
          "name": "listingId",
          "type": "uint256"
        },
        {
          "indexed": false,
          "internalType": "address",
          "name": "bidder",
          "type": "address"
        },
        {
          "indexed": false,
          "internalType": "uint256",
          "name": "bid",
          "type": "uint256"
        }
      ],
      "name": "SealedBidRevealed",
      "type": "event"
    },
    {
      "anonymous": false,
      "inputs": [
        {
          "indexed": false,
          "internalType": "uint256",
          "name": "listingId",
          "type": "uint256"
        },
        {
          "indexed": false,
          "internalType": "address",
          "name": "bidder",
          "type": "address"
        },
        {
          "indexed": false,
          "internalType": "bytes32",
          "name": "bidHash",
          "type": "bytes32"
        }
      ],
      "name": "SealedBidSubmitted",
      "type": "event"
    },
    {
      "inputs": [
        {
          "internalType": "uint256",
          "name": "listingId",
          "type": "uint256"
        }
      ],
      "name": "buyListing",
      "outputs": [],
      "stateMutability": "payable",
      "type": "function"
    },
    {
      "inputs": [
        {
          "internalType": "uint256",
          "name": "listingId",
          "type": "uint256"
        }
      ],
      "name": "cancelListing",
      "outputs": [],
      "stateMutability": "nonpayable",
      "type": "function"
    },
    {
      "inputs": [
        {
          "internalType": "uint256",
          "name": "tokenId",
          "type": "uint256"
        },
        {
          "internalType": "uint256",
          "name": "startingPrice",
          "type": "uint256"
        },
        {
          "internalType": "uint256",
          "name": "duration",
          "type": "uint256"
        }
      ],
      "name": "createAuction",
      "outputs": [],
      "stateMutability": "nonpayable",
      "type": "function"
    },
    {
      "inputs": [
        {
          "internalType": "uint256",
          "name": "tokenId",
          "type": "uint256"
        },
        {
          "internalType": "uint256",
          "name": "price",
          "type": "uint256"
        }
      ],
      "name": "createListing",
      "outputs": [],
      "stateMutability": "nonpayable",
      "type": "function"
    },
    {
      "inputs": [],
      "name": "emergencyStop",
      "outputs": [
        {
          "internalType": "bool",
          "name": "",
          "type": "bool"
        }
      ],
      "stateMutability": "view",
      "type": "function"
    },
    {
      "inputs": [],
      "name": "feePercentage",
      "outputs": [
        {
          "internalType": "uint256",
          "name": "",
          "type": "uint256"
        }
      ],
      "stateMutability": "view",
      "type": "function"
    },
    {
      "inputs": [
        {
          "internalType": "uint256",
          "name": "listingId",
          "type": "uint256"
        }
      ],
      "name": "finalizeAuction",
      "outputs": [],
      "stateMutability": "nonpayable",
      "type": "function"
    },
    {
      "inputs": [],
      "name": "getActiveListingCount",
      "outputs": [
        {
          "internalType": "uint256",
          "name": "",
          "type": "uint256"
        }
      ],
      "stateMutability": "view",
      "type": "function"
    },
    {
      "inputs": [
        {
          "internalType": "uint256",
          "name": "tokenId",
          "type": "uint256"
        }
      ],
      "name": "isTokenListed",
      "outputs": [
        {
          "internalType": "bool",
          "name": "",
          "type": "bool"
        }
      ],
      "stateMutability": "view",
      "type": "function"
    },
    {
      "inputs": [
        {
          "internalType": "uint256",
          "name": "",
          "type": "uint256"
        }
      ],
      "name": "listings",
      "outputs": [
        {
          "internalType": "uint256",
          "name": "listingId",
          "type": "uint256"
        },
        {
          "internalType": "address",
          "name": "seller",
          "type": "address"
        },
        {
          "internalType": "uint256",
          "name": "tokenId",
          "type": "uint256"
        },
        {
          "internalType": "uint256",
          "name": "price",
          "type": "uint256"
        },
        {
          "internalType": "enum PokemonMarketplace.ListingStatus",
          "name": "status",
          "type": "uint8"
        },
        {
          "internalType": "enum PokemonMarketplace.ListingType",
          "name": "listingType",
          "type": "uint8"
        },
        {
          "internalType": "uint256",
          "name": "auctionEndTime",
          "type": "uint256"
        },
        {
          "internalType": "address",
          "name": "highestBidder",
          "type": "address"
        },
        {
          "internalType": "uint256",
          "name": "highestBid",
          "type": "uint256"
        }
      ],
      "stateMutability": "view",
      "type": "function"
    },
    {
      "inputs": [],
      "name": "owner",
      "outputs": [
        {
          "internalType": "address",
          "name": "",
          "type": "address"
        }
      ],
      "stateMutability": "view",
      "type": "function"
    },
    {
      "inputs": [
        {
          "internalType": "address",
          "name": "",
          "type": "address"
        }
      ],
      "name": "pendingWithdrawals",
      "outputs": [
        {
          "internalType": "uint256",
          "name": "",
          "type": "uint256"
        }
      ],
      "stateMutability": "view",
      "type": "function"
    },
    {
      "inputs": [
        {
          "internalType": "uint256",
          "name": "listingId",
          "type": "uint256"
        }
      ],
      "name": "placeBid",
      "outputs": [],
      "stateMutability": "payable",
      "type": "function"
    },
    {
      "inputs": [],
      "name": "pokemonNFT",
      "outputs": [
        {
          "internalType": "contract PokemonNFT",
          "name": "",
          "type": "address"
        }
      ],
      "stateMutability": "view",
      "type": "function"
    },
    {
      "inputs": [],
      "name": "renounceOwnership",
      "outputs": [],
      "stateMutability": "nonpayable",
      "type": "function"
    },
    {
      "inputs": [
        {
          "internalType": "uint256",
          "name": "listingId",
          "type": "uint256"
        },
        {
          "internalType": "uint256",
          "name": "bidAmount",
          "type": "uint256"
        },
        {
          "internalType": "string",
          "name": "secret",
          "type": "string"
        }
      ],
      "name": "revealBid",
      "outputs": [],
      "stateMutability": "nonpayable",
      "type": "function"
    },
    {
      "inputs": [
        {
          "internalType": "uint256",
          "name": "",
          "type": "uint256"
        },
        {
          "internalType": "address",
          "name": "",
          "type": "address"
        }
      ],
      "name": "sealedBids",
      "outputs": [
        {
          "internalType": "bytes32",
          "name": "",
          "type": "bytes32"
        }
      ],
      "stateMutability": "view",
      "type": "function"
    },
    {
      "inputs": [
        {
          "internalType": "uint256",
          "name": "_feePercentage",
          "type": "uint256"
        }
      ],
      "name": "setFeePercentage",
      "outputs": [],
      "stateMutability": "nonpayable",
      "type": "function"
    },
    {
      "inputs": [
        {
          "internalType": "uint256",
          "name": "listingId",
          "type": "uint256"
        },
        {
          "internalType": "bytes32",
          "name": "bidHash",
          "type": "bytes32"
        }
      ],
      "name": "submitSealedBid",
      "outputs": [],
      "stateMutability": "payable",
      "type": "function"
    },
    {
      "inputs": [],
      "name": "toggleEmergencyStop",
      "outputs": [],
      "stateMutability": "nonpayable",
      "type": "function"
    },
    {
      "inputs": [
        {
          "internalType": "uint256",
          "name": "",
          "type": "uint256"
        }
      ],
      "name": "tokenIdToListingId",
      "outputs": [
        {
          "internalType": "uint256",
          "name": "",
          "type": "uint256"
        }
      ],
      "stateMutability": "view",
      "type": "function"
    },
    {
      "inputs": [
        {
          "internalType": "address",
          "name": "newOwner",
          "type": "address"
        }
      ],
      "name": "transferOwnership",
      "outputs": [],
      "stateMutability": "nonpayable",
      "type": "function"
    },
    {
      "inputs": [
        {
          "internalType": "bytes32",
          "name": "",
          "type": "bytes32"
        }
      ],
      "name": "usedBidHashes",
      "outputs": [
        {
          "internalType": "bool",
          "name": "",
          "type": "bool"
        }
      ],
      "stateMutability": "view",
      "type": "function"
    },
    {
      "inputs": [],
      "name": "withdraw",
      "outputs": [],
      "stateMutability": "nonpayable",
      "type": "function"
    },
    {
      "inputs": [],
      "name": "withdrawFees",
      "outputs": [],
      "stateMutability": "nonpayable",
      "type": "function"
    }
  ],
  "bytecode": "0x608060405260196004556000600a60006101000a81548160ff0219169083151502179055503480156200003157600080fd5b5060405162004c1838038062004c1883398181016040528101906200005791906200025f565b336001600081905550600073ffffffffffffffffffffffffffffffffffffffff168173ffffffffffffffffffffffffffffffffffffffff1603620000d55760006040517f1e4fbdf7000000000000000000000000000000000000000000000000000000008152600401620000cc9190620002a2565b60405180910390fd5b620000e6816200012f60201b60201c565b5080600360006101000a81548173ffffffffffffffffffffffffffffffffffffffff021916908373ffffffffffffffffffffffffffffffffffffffff16021790555050620002bf565b6000600160009054906101000a900473ffffffffffffffffffffffffffffffffffffffff16905081600160006101000a81548173ffffffffffffffffffffffffffffffffffffffff021916908373ffffffffffffffffffffffffffffffffffffffff1602179055508173ffffffffffffffffffffffffffffffffffffffff168173ffffffffffffffffffffffffffffffffffffffff167f8be0079c531659141344cd1fd0a4f28419497f9722a3daafe3b4186f6b6457e060405160405180910390a35050565b600080fd5b600073ffffffffffffffffffffffffffffffffffffffff82169050919050565b60006200022782620001fa565b9050919050565b62000239816200021a565b81146200024557600080fd5b50565b60008151905062000259816200022e565b92915050565b600060208284031215620002785762000277620001f5565b5b6000620002888482850162000248565b91505092915050565b6200029c816200021a565b82525050565b6000602082019050620002b9600083018462000291565b92915050565b61494980620002cf6000396000f3fe6080604052600436106101665760003560e01c80639b83cddc116100d1578063cda4beef1161008a578063e808386311610064578063e8083863146104cd578063f2fde38b146104f6578063f3f437031461051f578063f87190601461055c57610166565b8063cda4beef14610422578063de74e57b1461044b578063e0eb46011461049057610166565b80639b83cddc14610323578063a001ecdd14610360578063a489d5d71461038b578063a6d7ec47146103b4578063a79123a9146103d0578063ae06c1b7146103f957610166565b806363a599a41161012357806363a599a41461023257806365a503dd1461025d578063715018a61461029a57806377420844146102b15780638da5cb5b146102dc5780639979ef451461030757610166565b806303700a5e1461016b578063305a67a8146101a85780633ccfd60b146101d1578063476343ee146101e85780634884f459146101ff5780634b7aac941461021b575b600080fd5b34801561017757600080fd5b50610192600480360381019061018d9190613195565b610587565b60405161019f91906131ee565b60405180910390f35b3480156101b457600080fd5b506101cf60048036038101906101ca9190613209565b6105ac565b005b3480156101dd57600080fd5b506101e661085d565b005b3480156101f457600080fd5b506101fd610983565b005b61021960048036038101906102149190613209565b6109f1565b005b34801561022757600080fd5b50610230610e8b565b005b34801561023e57600080fd5b50610247610ebf565b6040516102549190613251565b60405180910390f35b34801561026957600080fd5b50610284600480360381019061027f9190613209565b610ed2565b604051610291919061327b565b60405180910390f35b3480156102a657600080fd5b506102af610eea565b005b3480156102bd57600080fd5b506102c6610efe565b6040516102d3919061327b565b60405180910390f35b3480156102e857600080fd5b506102f1610f95565b6040516102fe91906132a5565b60405180910390f35b610321600480360381019061031c9190613209565b610fbf565b005b34801561032f57600080fd5b5061034a60048036038101906103459190613209565b6113f1565b6040516103579190613251565b60405180910390f35b34801561036c57600080fd5b50610375611477565b604051610382919061327b565b60405180910390f35b34801561039757600080fd5b506103b260048036038101906103ad9190613406565b61147d565b005b6103ce60048036038101906103c991906134a1565b6118bc565b005b3480156103dc57600080fd5b506103f760048036038101906103f291906134e1565b611c72565b005b34801561040557600080fd5b50610420600480360381019061041b9190613209565b612255565b005b34801561042e57600080fd5b5061044960048036038101906104449190613521565b6122ab565b005b34801561045757600080fd5b50610472600480360381019061046d9190613209565b6128e6565b60405161048799989796959493929190613633565b60405180910390f35b34801561049c57600080fd5b506104b760048036038101906104b291906136c0565b61298e565b6040516104c49190613251565b60405180910390f35b3480156104d957600080fd5b506104f460048036038101906104ef9190613209565b6129ae565b005b34801561050257600080fd5b5061051d600480360381019061051891906136ed565b612e57565b005b34801561052b57600080fd5b50610546600480360381019061054191906136ed565b612edd565b604051610553919061327b565b60405180910390f35b34801561056857600080fd5b50610571612ef5565b60405161057e9190613779565b60405180910390f35b6008602052816000526040600020602052806000526040600020600091509150505481565b60006005600083815260200190815260200160002090503373ffffffffffffffffffffffffffffffffffffffff168160010160009054906101000a900473ffffffffffffffffffffffffffffffffffffffff1673ffffffffffffffffffffffffffffffffffffffff16148061065357503373ffffffffffffffffffffffffffffffffffffffff1661063b610f95565b73ffffffffffffffffffffffffffffffffffffffff16145b610692576040517f08c379a0000000000000000000000000000000000000000000000000000000008152600401610689906137f1565b60405180910390fd5b600060028111156106a6576106a5613574565b5b8160040160009054906101000a900460ff1660028111156106ca576106c9613574565b5b1461070a576040517f08c379a00000000000000000000000000000000000000000000000000000000081526004016107019061385d565b60405180910390fd5b60018081111561071d5761071c613574565b5b8160040160019054906101000a900460ff16600181111561074157610740613574565b5b036107da57600073ffffffffffffffffffffffffffffffffffffffff168160060160009054906101000a900473ffffffffffffffffffffffffffffffffffffffff1673ffffffffffffffffffffffffffffffffffffffff16146107d9576040517f08c379a00000000000000000000000000000000000000000000000000000000081526004016107d0906138c9565b60405180910390fd5b5b60028160040160006101000a81548160ff0219169083600281111561080257610801613574565b5b02179055506006600082600201548152602001908152602001600020600090557f411aee90354c51b1b04cd563fcab2617142a9d50da19232d888547c8a1b7fd8a82604051610851919061327b565b60405180910390a15050565b610865612f1b565b6000600760003373ffffffffffffffffffffffffffffffffffffffff1673ffffffffffffffffffffffffffffffffffffffff168152602001908152602001600020549050600081116108ec576040517f08c379a00000000000000000000000000000000000000000000000000000000081526004016108e390613935565b60405180910390fd5b6000600760003373ffffffffffffffffffffffffffffffffffffffff1673ffffffffffffffffffffffffffffffffffffffff168152602001908152602001600020819055503373ffffffffffffffffffffffffffffffffffffffff166108fc829081150290604051600060405180830381858888f19350505050158015610977573d6000803e3d6000fd5b5050610981612f61565b565b61098b612f6b565b610993612f1b565b60004790506109a0610f95565b73ffffffffffffffffffffffffffffffffffffffff166108fc829081150290604051600060405180830381858888f193505050501580156109e5573d6000803e3d6000fd5b50506109ef612f61565b565b6109f9612f1b565b600a60009054906101000a900460ff1615610a49576040517f08c379a0000000000000000000000000000000000000000000000000000000008152600401610a40906139c7565b60405180910390fd5b600060056000838152602001908152602001600020905060006002811115610a7457610a73613574565b5b8160040160009054906101000a900460ff166002811115610a9857610a97613574565b5b14610ad8576040517f08c379a0000000000000000000000000000000000000000000000000000000008152600401610acf9061385d565b60405180910390fd5b60006001811115610aec57610aeb613574565b5b8160040160019054906101000a900460ff166001811115610b1057610b0f613574565b5b14610b50576040517f08c379a0000000000000000000000000000000000000000000000000000000008152600401610b4790613a59565b60405180910390fd5b8060030154341015610b97576040517f08c379a0000000000000000000000000000000000000000000000000000000008152600401610b8e90613ac5565b60405180910390fd5b8060010160009054906101000a900473ffffffffffffffffffffffffffffffffffffffff1673ffffffffffffffffffffffffffffffffffffffff163373ffffffffffffffffffffffffffffffffffffffff1603610c29576040517f08c379a0000000000000000000000000000000000000000000000000000000008152600401610c2090613b57565b60405180910390fd5b60018160040160006101000a81548160ff02191690836002811115610c5157610c50613574565b5b021790555060006103e86004548360030154610c6d9190613ba6565b610c779190613c17565b90506000818360030154610c8b9190613c48565b905080600760008560010160009054906101000a900473ffffffffffffffffffffffffffffffffffffffff1673ffffffffffffffffffffffffffffffffffffffff1673ffffffffffffffffffffffffffffffffffffffff1681526020019081526020016000206000828254610d009190613c7c565b92505081905550600360009054906101000a900473ffffffffffffffffffffffffffffffffffffffff1673ffffffffffffffffffffffffffffffffffffffff166323b872dd8460010160009054906101000a900473ffffffffffffffffffffffffffffffffffffffff163386600201546040518463ffffffff1660e01b8152600401610d8e93929190613cb0565b600060405180830381600087803b158015610da857600080fd5b505af1158015610dbc573d6000803e3d6000fd5b505050506006600084600201548152602001908152602001600020600090558260030154341115610e3e573373ffffffffffffffffffffffffffffffffffffffff166108fc846003015434610e119190613c48565b9081150290604051600060405180830381858888f19350505050158015610e3c573d6000803e3d6000fd5b505b7f2a874701b7ea6bbde0fc434e0f3a8befb0bc72091995b805f8c6fa57bef2954984338560030154604051610e7593929190613ce7565b60405180910390a1505050610e88612f61565b50565b610e93612f6b565b600a60009054906101000a900460ff1615600a60006101000a81548160ff021916908315150217905550565b600a60009054906101000a900460ff1681565b60066020528060005260406000206000915090505481565b610ef2612f6b565b610efc6000612ff2565b565b600080600090506000600190505b610f1660026130b8565b8111610f8d5760006002811115610f3057610f2f613574565b5b6005600083815260200190815260200160002060040160009054906101000a900460ff166002811115610f6657610f65613574565b5b03610f7a578180610f7690613d1e565b9250505b8080610f8590613d1e565b915050610f0c565b508091505090565b6000600160009054906101000a900473ffffffffffffffffffffffffffffffffffffffff16905090565b610fc7612f1b565b600a60009054906101000a900460ff1615611017576040517f08c379a000000000000000000000000000000000000000000000000000000000815260040161100e906139c7565b60405180910390fd5b60006005600083815260200190815260200160002090506000600281111561104257611041613574565b5b8160040160009054906101000a900460ff16600281111561106657611065613574565b5b146110a6576040517f08c379a000000000000000000000000000000000000000000000000000000000815260040161109d9061385d565b60405180910390fd5b6001808111156110b9576110b8613574565b5b8160040160019054906101000a900460ff1660018111156110dd576110dc613574565b5b1461111d576040517f08c379a000000000000000000000000000000000000000000000000000000000815260040161111490613db2565b60405180910390fd5b80600501544210611163576040517f08c379a000000000000000000000000000000000000000000000000000000000815260040161115a90613e1e565b60405180910390fd5b8060010160009054906101000a900473ffffffffffffffffffffffffffffffffffffffff1673ffffffffffffffffffffffffffffffffffffffff163373ffffffffffffffffffffffffffffffffffffffff16036111f5576040517f08c379a00000000000000000000000000000000000000000000000000000000081526004016111ec90613eb0565b60405180910390fd5b600073ffffffffffffffffffffffffffffffffffffffff168160060160009054906101000a900473ffffffffffffffffffffffffffffffffffffffff1673ffffffffffffffffffffffffffffffffffffffff1603611299578060030154341015611294576040517f08c379a000000000000000000000000000000000000000000000000000000000815260040161128b90613f42565b60405180910390fd5b61135e565b806007015434116112df576040517f08c379a00000000000000000000000000000000000000000000000000000000081526004016112d690613fd4565b60405180910390fd5b8060070154600760008360060160009054906101000a900473ffffffffffffffffffffffffffffffffffffffff1673ffffffffffffffffffffffffffffffffffffffff1673ffffffffffffffffffffffffffffffffffffffff16815260200190815260200160002060008282546113569190613c7c565b925050819055505b338160060160006101000a81548173ffffffffffffffffffffffffffffffffffffffff021916908373ffffffffffffffffffffffffffffffffffffffff1602179055503481600701819055507f0e54eff26401bf69b81b26f60bd85ef47f5d85275c1d268d84f68d6897431c478233346040516113dd93929190613ce7565b60405180910390a1506113ee612f61565b50565b60008060066000848152602001908152602001600020541415801561147057506000600281111561142557611424613574565b5b600560006006600086815260200190815260200160002054815260200190815260200160002060040160009054906101000a900460ff16600281111561146e5761146d613574565b5b145b9050919050565b60045481565b611485612f1b565b600a60009054906101000a900460ff16156114d5576040517f08c379a00000000000000000000000000000000000000000000000000000000081526004016114cc906139c7565b60405180910390fd5b600060056000858152602001908152602001600020905060006002811115611500576114ff613574565b5b8160040160009054906101000a900460ff16600281111561152457611523613574565b5b14611564576040517f08c379a000000000000000000000000000000000000000000000000000000000815260040161155b9061385d565b60405180910390fd5b80600501544210156115ab576040517f08c379a00000000000000000000000000000000000000000000000000000000081526004016115a290614040565b60405180910390fd5b610e1081600501546115bd9190613c7c565b4211156115ff576040517f08c379a00000000000000000000000000000000000000000000000000000000081526004016115f6906140ac565b60405180910390fd5b6000838333604051602001611616939291906141a6565b604051602081830303815290604052805190602001209050806008600087815260200190815260200160002060003373ffffffffffffffffffffffffffffffffffffffff1673ffffffffffffffffffffffffffffffffffffffff16815260200190815260200160002054146116c0576040517f08c379a00000000000000000000000000000000000000000000000000000000081526004016116b790614251565b60405180910390fd5b6000801b6008600087815260200190815260200160002060003373ffffffffffffffffffffffffffffffffffffffff1673ffffffffffffffffffffffffffffffffffffffff1681526020019081526020016000208190555083600760003373ffffffffffffffffffffffffffffffffffffffff1673ffffffffffffffffffffffffffffffffffffffff16815260200190815260200160002054101561179a576040517f08c379a0000000000000000000000000000000000000000000000000000000008152600401611791906142bd565b60405180910390fd5b816007015484111561187257600073ffffffffffffffffffffffffffffffffffffffff168260060160009054906101000a90505050338260060160006101000a81548173ffffffffffffffffffffffffffffffffffffffff021916908373ffffffffffffffffffffffffffffffffffffffff16021790555083826007018190555083600760003373ffffffffffffffffffffffffffffffffffffffff1673ffffffffffffffffffffffffffffffffffffffff168152602001908152602001600020600082825461186a9190613c48565b925050819055505b7fe114ea9e9a27652a7d68437b8464a4c003a7697f8123821f48a4b83718c05bc68533866040516118a593929190613ce7565b60405180910390a150506118b7612f61565b505050565b6118c4612f1b565b600a60009054906101000a900460ff1615611914576040517f08c379a000000000000000000000000000000000000000000000000000000000815260040161190b906139c7565b60405180910390fd5b60006005600084815260200190815260200160002090506000600281111561193f5761193e613574565b5b8160040160009054906101000a900460ff16600281111561196357611962613574565b5b146119a3576040517f08c379a000000000000000000000000000000000000000000000000000000000815260040161199a9061385d565b60405180910390fd5b6001808111156119b6576119b5613574565b5b8160040160019054906101000a900460ff1660018111156119da576119d9613574565b5b14611a1a576040517f08c379a0000000000000000000000000000000000000000000000000000000008152600401611a1190613db2565b60405180910390fd5b80600501544210611a60576040517f08c379a0000000000000000000000000000000000000000000000000000000008152600401611a5790613e1e565b60405180910390fd5b8060010160009054906101000a900473ffffffffffffffffffffffffffffffffffffffff1673ffffffffffffffffffffffffffffffffffffffff163373ffffffffffffffffffffffffffffffffffffffff1603611af2576040517f08c379a0000000000000000000000000000000000000000000000000000000008152600401611ae990613eb0565b60405180910390fd5b6009600083815260200190815260200160002060009054906101000a900460ff1615611b53576040517f08c379a0000000000000000000000000000000000000000000000000000000008152600401611b4a90614329565b60405180910390fd5b816008600085815260200190815260200160002060003373ffffffffffffffffffffffffffffffffffffffff1673ffffffffffffffffffffffffffffffffffffffff1681526020019081526020016000208190555060016009600084815260200190815260200160002060006101000a81548160ff02191690831515021790555034600760003373ffffffffffffffffffffffffffffffffffffffff1673ffffffffffffffffffffffffffffffffffffffff1681526020019081526020016000206000828254611c239190613c7c565b925050819055507fa000acd2dce8dd1590ff43e13f10d27c2b8cf42ee254ce90b9dac98e045dabe8833384604051611c5d93929190614349565b60405180910390a150611c6e612f61565b5050565b600a60009054906101000a900460ff1615611cc2576040517f08c379a0000000000000000000000000000000000000000000000000000000008152600401611cb9906139c7565b60405180910390fd5b3373ffffffffffffffffffffffffffffffffffffffff16600360009054906101000a900473ffffffffffffffffffffffffffffffffffffffff1673ffffffffffffffffffffffffffffffffffffffff16636352211e846040518263ffffffff1660e01b8152600401611d34919061327b565b602060405180830381865afa158015611d51573d6000803e3d6000fd5b505050506040513d601f19601f82011682018060405250810190611d759190614395565b73ffffffffffffffffffffffffffffffffffffffff1614611dcb576040517f08c379a0000000000000000000000000000000000000000000000000000000008152600401611dc29061440e565b60405180910390fd5b60008111611e0e576040517f08c379a0000000000000000000000000000000000000000000000000000000008152600401611e059061447a565b60405180910390fd5b6000600660008481526020019081526020016000205414611e64576040517f08c379a0000000000000000000000000000000000000000000000000000000008152600401611e5b906144e6565b60405180910390fd5b3073ffffffffffffffffffffffffffffffffffffffff16600360009054906101000a900473ffffffffffffffffffffffffffffffffffffffff1673ffffffffffffffffffffffffffffffffffffffff1663081812fc846040518263ffffffff1660e01b8152600401611ed6919061327b565b602060405180830381865afa158015611ef3573d6000803e3d6000fd5b505050506040513d601f19601f82011682018060405250810190611f179190614395565b73ffffffffffffffffffffffffffffffffffffffff161480611fd35750600360009054906101000a900473ffffffffffffffffffffffffffffffffffffffff1673ffffffffffffffffffffffffffffffffffffffff1663e985e9c533306040518363ffffffff1660e01b8152600401611f91929190614506565b602060405180830381865afa158015611fae573d6000803e3d6000fd5b505050506040513d601f19601f82011682018060405250810190611fd2919061455b565b5b612012576040517f08c379a0000000000000000000000000000000000000000000000000000000008152600401612009906145fa565b60405180910390fd5b61201c60026130c6565b600061202860026130b8565b90506040518061012001604052808281526020013373ffffffffffffffffffffffffffffffffffffffff1681526020018481526020018381526020016000600281111561207857612077613574565b5b81526020016000600181111561209157612090613574565b5b815260200160008152602001600073ffffffffffffffffffffffffffffffffffffffff1681526020016000815250600560008381526020019081526020016000206000820151816000015560208201518160010160006101000a81548173ffffffffffffffffffffffffffffffffffffffff021916908373ffffffffffffffffffffffffffffffffffffffff160217905550604082015181600201556060820151816003015560808201518160040160006101000a81548160ff0219169083600281111561216257612161613574565b5b021790555060a08201518160040160016101000a81548160ff0219169083600181111561219257612191613574565b5b021790555060c0820151816005015560e08201518160060160006101000a81548173ffffffffffffffffffffffffffffffffffffffff021916908373ffffffffffffffffffffffffffffffffffffffff16021790555061010082015181600701559050508060066000858152602001908152602001600020819055507fcf6475363666dcade68b608a6f05eb7cb08f7052ae9823e0b87ff6bad4891c258133858560008060405161224896959493929190614655565b60405180910390a1505050565b61225d612f6b565b60648111156122a1576040517f08c379a000000000000000000000000000000000000000000000000000000000815260040161229890614702565b60405180910390fd5b8060048190555050565b600a60009054906101000a900460ff16156122fb576040517f08c379a00000000000000000000000000000000000000000000000000000000081526004016122f2906139c7565b60405180910390fd5b3373ffffffffffffffffffffffffffffffffffffffff16600360009054906101000a900473ffffffffffffffffffffffffffffffffffffffff1673ffffffffffffffffffffffffffffffffffffffff16636352211e856040518263ffffffff1660e01b815260040161236d919061327b565b602060405180830381865afa15801561238a573d6000803e3d6000fd5b505050506040513d601f19601f820116820180604052508101906123ae9190614395565b73ffffffffffffffffffffffffffffffffffffffff1614612404576040517f08c379a00000000000000000000000000000000000000000000000000000000081526004016123fb9061440e565b60405180910390fd5b60008211612447576040517f08c379a000000000000000000000000000000000000000000000000000000000815260040161243e90614794565b60405180910390fd5b6000811161248a576040517f08c379a000000000000000000000000000000000000000000000000000000000815260040161248190614826565b60405180910390fd5b60006006600085815260200190815260200160002054146124e0576040517f08c379a00000000000000000000000000000000000000000000000000000000081526004016124d7906144e6565b60405180910390fd5b3073ffffffffffffffffffffffffffffffffffffffff16600360009054906101000a900473ffffffffffffffffffffffffffffffffffffffff1673ffffffffffffffffffffffffffffffffffffffff1663081812fc856040518263ffffffff1660e01b8152600401612552919061327b565b602060405180830381865afa15801561256f573d6000803e3d6000fd5b505050506040513d601f19601f820116820180604052508101906125939190614395565b73ffffffffffffffffffffffffffffffffffffffff16148061264f5750600360009054906101000a900473ffffffffffffffffffffffffffffffffffffffff1673ffffffffffffffffffffffffffffffffffffffff1663e985e9c533306040518363ffffffff1660e01b815260040161260d929190614506565b602060405180830381865afa15801561262a573d6000803e3d6000fd5b505050506040513d601f19601f8201168201806040525081019061264e919061455b565b5b61268e576040517f08c379a0000000000000000000000000000000000000000000000000000000008152600401612685906145fa565b60405180910390fd5b61269860026130c6565b60006126a460026130b8565b90506040518061012001604052808281526020013373ffffffffffffffffffffffffffffffffffffffff168152602001858152602001848152602001600060028111156126f4576126f3613574565b5b815260200160018081111561270c5761270b613574565b5b8152602001834261271d9190613c7c565b8152602001600073ffffffffffffffffffffffffffffffffffffffff1681526020016000815250600560008381526020019081526020016000206000820151816000015560208201518160010160006101000a81548173ffffffffffffffffffffffffffffffffffffffff021916908373ffffffffffffffffffffffffffffffffffffffff160217905550604082015181600201556060820151816003015560808201518160040160006101000a81548160ff021916908360028111156127e7576127e6613574565b5b021790555060a08201518160040160016101000a81548160ff0219169083600181111561281757612816613574565b5b021790555060c0820151816005015560e08201518160060160006101000a81548173ffffffffffffffffffffffffffffffffffffffff021916908373ffffffffffffffffffffffffffffffffffffffff16021790555061010082015181600701559050508060066000868152602001908152602001600020819055507fcf6475363666dcade68b608a6f05eb7cb08f7052ae9823e0b87ff6bad4891c2581338686600187426128c69190613c7c565b6040516128d896959493929190614846565b60405180910390a150505050565b60056020528060005260406000206000915090508060000154908060010160009054906101000a900473ffffffffffffffffffffffffffffffffffffffff16908060020154908060030154908060040160009054906101000a900460ff16908060040160019054906101000a900460ff16908060050154908060060160009054906101000a900473ffffffffffffffffffffffffffffffffffffffff16908060070154905089565b60096020528060005260406000206000915054906101000a900460ff1681565b6129b6612f1b565b600a60009054906101000a900460ff1615612a06576040517f08c379a00000000000000000000000000000000000000000000000000000000081526004016129fd906139c7565b60405180910390fd5b600060056000838152602001908152602001600020905060006002811115612a3157612a30613574565b5b8160040160009054906101000a900460ff166002811115612a5557612a54613574565b5b14612a95576040517f08c379a0000000000000000000000000000000000000000000000000000000008152600401612a8c9061385d565b60405180910390fd5b600180811115612aa857612aa7613574565b5b8160040160019054906101000a900460ff166001811115612acc57612acb613574565b5b14612b0c576040517f08c379a0000000000000000000000000000000000000000000000000000000008152600401612b0390613db2565b60405180910390fd5b610e108160050154612b1e9190613c7c565b4211612b5f576040517f08c379a0000000000000000000000000000000000000000000000000000000008152600401612b56906148f3565b60405180910390fd5b60018160040160006101000a81548160ff02191690836002811115612b8757612b86613574565b5b0217905550600073ffffffffffffffffffffffffffffffffffffffff168160060160009054906101000a900473ffffffffffffffffffffffffffffffffffffffff1673ffffffffffffffffffffffffffffffffffffffff1603612c3c576006600082600201548152602001908152602001600020600090557f411aee90354c51b1b04cd563fcab2617142a9d50da19232d888547c8a1b7fd8a82604051612c2e919061327b565b60405180910390a150612e4c565b60006103e86004548360070154612c539190613ba6565b612c5d9190613c17565b90506000818360070154612c719190613c48565b905080600760008560010160009054906101000a900473ffffffffffffffffffffffffffffffffffffffff1673ffffffffffffffffffffffffffffffffffffffff1673ffffffffffffffffffffffffffffffffffffffff1681526020019081526020016000206000828254612ce69190613c7c565b92505081905550600360009054906101000a900473ffffffffffffffffffffffffffffffffffffffff1673ffffffffffffffffffffffffffffffffffffffff166323b872dd8460010160009054906101000a900473ffffffffffffffffffffffffffffffffffffffff168560060160009054906101000a900473ffffffffffffffffffffffffffffffffffffffff1686600201546040518463ffffffff1660e01b8152600401612d9893929190613cb0565b600060405180830381600087803b158015612db257600080fd5b505af1158015612dc6573d6000803e3d6000fd5b505050506006600084600201548152602001908152602001600020600090557f4d9113a1377d665eaa1f9168a9c9080f2e488cb820b10149de3d6d2e0f2780c7848460060160009054906101000a900473ffffffffffffffffffffffffffffffffffffffff168560070154604051612e4093929190613ce7565b60405180910390a15050505b612e54612f61565b50565b612e5f612f6b565b600073ffffffffffffffffffffffffffffffffffffffff168173ffffffffffffffffffffffffffffffffffffffff1603612ed15760006040517f1e4fbdf7000000000000000000000000000000000000000000000000000000008152600401612ec891906132a5565b60405180910390fd5b612eda81612ff2565b50565b60076020528060005260406000206000915090505481565b600360009054906101000a900473ffffffffffffffffffffffffffffffffffffffff1681565b600260005403612f57576040517f3ee5aeb500000000000000000000000000000000000000000000000000000000815260040160405180910390fd5b6002600081905550565b6001600081905550565b612f736130e5565b73ffffffffffffffffffffffffffffffffffffffff16612f91610f95565b73ffffffffffffffffffffffffffffffffffffffff1614612ff057612fb46130e5565b6040517f118cdaa7000000000000000000000000000000000000000000000000000000008152600401612fe791906132a5565b60405180910390fd5b565b6000600160009054906101000a900473ffffffffffffffffffffffffffffffffffffffff16905081600160006101000a81548173ffffffffffffffffffffffffffffffffffffffff021916908373ffffffffffffffffffffffffffffffffffffffff1602179055508173ffffffffffffffffffffffffffffffffffffffff168173ffffffffffffffffffffffffffffffffffffffff167f8be0079c531659141344cd1fd0a4f28419497f9722a3daafe3b4186f6b6457e060405160405180910390a35050565b600081600001549050919050565b60018160000160008282546130db9190613c7c565b9250508190555050565b600033905090565b6000604051905090565b600080fd5b600080fd5b6000819050919050565b61311481613101565b811461311f57600080fd5b50565b6000813590506131318161310b565b92915050565b600073ffffffffffffffffffffffffffffffffffffffff82169050919050565b600061316282613137565b9050919050565b61317281613157565b811461317d57600080fd5b50565b60008135905061318f81613169565b92915050565b600080604083850312156131ac576131ab6130f7565b5b60006131ba85828601613122565b92505060206131cb85828601613180565b9150509250929050565b6000819050919050565b6131e8816131d5565b82525050565b600060208201905061320360008301846131df565b92915050565b60006020828403121561321f5761321e6130f7565b5b600061322d84828501613122565b91505092915050565b60008115159050919050565b61324b81613236565b82525050565b60006020820190506132666000830184613242565b92915050565b61327581613101565b82525050565b6000602082019050613290600083018461326c565b92915050565b61329f81613157565b82525050565b60006020820190506132ba6000830184613296565b92915050565b600080fd5b600080fd5b6000601f19601f8301169050919050565b7f4e487b7100000000000000000000000000000000000000000000000000000000600052604160045260246000fd5b613313826132ca565b810181811067ffffffffffffffff82111715613332576133316132db565b5b80604052505050565b60006133456130ed565b9050613351828261330a565b919050565b600067ffffffffffffffff821115613371576133706132db565b5b61337a826132ca565b9050602081019050919050565b82818337600083830152505050565b60006133a96133a484613356565b61333b565b9050828152602081018484840111156133c5576133c46132c5565b5b6133d0848285613387565b509392505050565b600082601f8301126133ed576133ec6132c0565b5b81356133fd848260208601613396565b91505092915050565b60008060006060848603121561341f5761341e6130f7565b5b600061342d86828701613122565b935050602061343e86828701613122565b925050604084013567ffffffffffffffff81111561345f5761345e6130fc565b5b61346b868287016133d8565b9150509250925092565b61347e816131d5565b811461348957600080fd5b50565b60008135905061349b81613475565b92915050565b600080604083850312156134b8576134b76130f7565b5b60006134c685828601613122565b92505060206134d78582860161348c565b9150509250929050565b600080604083850312156134f8576134f76130f7565b5b600061350685828601613122565b925050602061351785828601613122565b9150509250929050565b60008060006060848603121561353a576135396130f7565b5b600061354886828701613122565b935050602061355986828701613122565b925050604061356a86828701613122565b9150509250925092565b7f4e487b7100000000000000000000000000000000000000000000000000000000600052602160045260246000fd5b600381106135b4576135b3613574565b5b50565b60008190506135c5826135a3565b919050565b60006135d5826135b7565b9050919050565b6135e5816135ca565b82525050565b600281106135fc576135fb613574565b5b50565b600081905061360d826135eb565b919050565b600061361d826135ff565b9050919050565b61362d81613612565b82525050565b600061012082019050613649600083018c61326c565b613656602083018b613296565b613663604083018a61326c565b613670606083018961326c565b61367d60808301886135dc565b61368a60a0830187613624565b61369760c083018661326c565b6136a460e0830185613296565b6136b261010083018461326c565b9a9950505050505050505050565b6000602082840312156136d6576136d56130f7565b5b60006136e48482850161348c565b91505092915050565b600060208284031215613703576137026130f7565b5b600061371184828501613180565b91505092915050565b6000819050919050565b600061373f61373a61373584613137565b61371a565b613137565b9050919050565b600061375182613724565b9050919050565b600061376382613746565b9050919050565b61377381613758565b82525050565b600060208201905061378e600083018461376a565b92915050565b600082825260208201905092915050565b7f4f6e6c792073656c6c6572206f72206f776e65722063616e2063616e63656c00600082015250565b60006137db601f83613794565b91506137e6826137a5565b602082019050919050565b6000602082019050818103600083015261380a816137ce565b9050919050565b7f4c697374696e67206973206e6f74206163746976650000000000000000000000600082015250565b6000613847601583613794565b915061385282613811565b602082019050919050565b600060208201905081810360008301526138768161383a565b9050919050565b7f43616e6e6f742063616e63656c2061756374696f6e2077697468206269647300600082015250565b60006138b3601f83613794565b91506138be8261387d565b602082019050919050565b600060208201905081810360008301526138e2816138a6565b9050919050565b7f4e6f2066756e647320746f207769746864726177000000000000000000000000600082015250565b600061391f601483613794565b915061392a826138e9565b602082019050919050565b6000602082019050818103600083015261394e81613912565b9050919050565b7f436f6e747261637420697320696e20656d657267656e63792073746f70206d6f60008201527f6465000000000000000000000000000000000000000000000000000000000000602082015250565b60006139b1602283613794565b91506139bc82613955565b604082019050919050565b600060208201905081810360008301526139e0816139a4565b9050919050565b7f54686973206973206e6f742061206669786564207072696365206c697374696e60008201527f6700000000000000000000000000000000000000000000000000000000000000602082015250565b6000613a43602183613794565b9150613a4e826139e7565b604082019050919050565b60006020820190508181036000830152613a7281613a36565b9050919050565b7f496e73756666696369656e74207061796d656e74000000000000000000000000600082015250565b6000613aaf601483613794565b9150613aba82613a79565b602082019050919050565b60006020820190508181036000830152613ade81613aa2565b9050919050565b7f53656c6c65722063616e6e6f7420627579207468656972206f776e206c69737460008201527f696e670000000000000000000000000000000000000000000000000000000000602082015250565b6000613b41602383613794565b9150613b4c82613ae5565b604082019050919050565b60006020820190508181036000830152613b7081613b34565b9050919050565b7f4e487b7100000000000000000000000000000000000000000000000000000000600052601160045260246000fd5b6000613bb182613101565b9150613bbc83613101565b9250828202613bca81613101565b91508282048414831517613be157613be0613b77565b5b5092915050565b7f4e487b7100000000000000000000000000000000000000000000000000000000600052601260045260246000fd5b6000613c2282613101565b9150613c2d83613101565b925082613c3d57613c3c613be8565b5b828204905092915050565b6000613c5382613101565b9150613c5e83613101565b9250828203905081811115613c7657613c75613b77565b5b92915050565b6000613c8782613101565b9150613c9283613101565b9250828201905080821115613caa57613ca9613b77565b5b92915050565b6000606082019050613cc56000830186613296565b613cd26020830185613296565b613cdf604083018461326c565b949350505050565b6000606082019050613cfc600083018661326c565b613d096020830185613296565b613d16604083018461326c565b949350505050565b6000613d2982613101565b91507fffffffffffffffffffffffffffffffffffffffffffffffffffffffffffffffff8203613d5b57613d5a613b77565b5b600182019050919050565b7f54686973206973206e6f7420616e2061756374696f6e00000000000000000000600082015250565b6000613d9c601683613794565b9150613da782613d66565b602082019050919050565b60006020820190508181036000830152613dcb81613d8f565b9050919050565b7f41756374696f6e2068617320656e646564000000000000000000000000000000600082015250565b6000613e08601183613794565b9150613e1382613dd2565b602082019050919050565b60006020820190508181036000830152613e3781613dfb565b9050919050565b7f53656c6c65722063616e6e6f7420626964206f6e207468656972206f776e206160008201527f756374696f6e0000000000000000000000000000000000000000000000000000602082015250565b6000613e9a602683613794565b9150613ea582613e3e565b604082019050919050565b60006020820190508181036000830152613ec981613e8d565b9050919050565b7f426964206d757374206265206174206c6561737420746865207374617274696e60008201527f6720707269636500000000000000000000000000000000000000000000000000602082015250565b6000613f2c602783613794565b9150613f3782613ed0565b604082019050919050565b60006020820190508181036000830152613f5b81613f1f565b9050919050565b7f426964206d75737420626520686967686572207468616e2063757272656e742060008201527f6869676865737420626964000000000000000000000000000000000000000000602082015250565b6000613fbe602b83613794565b9150613fc982613f62565b604082019050919050565b60006020820190508181036000830152613fed81613fb1565b9050919050565b7f41756374696f6e20686173206e6f7420656e6465642079657400000000000000600082015250565b600061402a601983613794565b915061403582613ff4565b602082019050919050565b600060208201905081810360008301526140598161401d565b9050919050565b7f52657665616c20706572696f642068617320656e646564000000000000000000600082015250565b6000614096601783613794565b91506140a182614060565b602082019050919050565b600060208201905081810360008301526140c581614089565b9050919050565b6000819050919050565b6140e76140e282613101565b6140cc565b82525050565b600081519050919050565b600081905092915050565b60005b83811015614121578082015181840152602081019050614106565b60008484015250505050565b6000614138826140ed565b61414281856140f8565b9350614152818560208601614103565b80840191505092915050565b60008160601b9050919050565b60006141768261415e565b9050919050565b60006141888261416b565b9050919050565b6141a061419b82613157565b61417d565b82525050565b60006141b282866140d6565b6020820191506141c2828561412d565b91506141ce828461418f565b601482019150819050949350505050565b7f52657665616c65642062696420646f6573206e6f74206d6174636820636f6d6d60008201527f69746d656e740000000000000000000000000000000000000000000000000000602082015250565b600061423b602683613794565b9150614246826141df565b604082019050919050565b6000602082019050818103600083015261426a8161422e565b9050919050565b7f496e73756666696369656e742066756e647320666f7220626964000000000000600082015250565b60006142a7601a83613794565b91506142b282614271565b602082019050919050565b600060208201905081810360008301526142d68161429a565b9050919050565b7f426964206861736820616c726561647920757365640000000000000000000000600082015250565b6000614313601583613794565b915061431e826142dd565b602082019050919050565b6000602082019050818103600083015261434281614306565b9050919050565b600060608201905061435e600083018661326c565b61436b6020830185613296565b61437860408301846131df565b949350505050565b60008151905061438f81613169565b92915050565b6000602082840312156143ab576143aa6130f7565b5b60006143b984828501614380565b91505092915050565b7f596f7520646f6e2774206f776e207468697320746f6b656e0000000000000000600082015250565b60006143f8601883613794565b9150614403826143c2565b602082019050919050565b60006020820190508181036000830152614427816143eb565b9050919050565b7f5072696365206d7573742062652067726561746572207468616e207a65726f00600082015250565b6000614464601f83613794565b915061446f8261442e565b602082019050919050565b6000602082019050818103600083015261449381614457565b9050919050565b7f546f6b656e20616c7265616479206c6973746564000000000000000000000000600082015250565b60006144d0601483613794565b91506144db8261449a565b602082019050919050565b600060208201905081810360008301526144ff816144c3565b9050919050565b600060408201905061451b6000830185613296565b6145286020830184613296565b9392505050565b61453881613236565b811461454357600080fd5b50565b6000815190506145558161452f565b92915050565b600060208284031215614571576145706130f7565b5b600061457f84828501614546565b91505092915050565b7f4d61726b6574706c616365206e6f7420617070726f76656420746f207472616e60008201527f73666572207468697320746f6b656e0000000000000000000000000000000000602082015250565b60006145e4602f83613794565b91506145ef82614588565b604082019050919050565b60006020820190508181036000830152614613816145d7565b9050919050565b6000819050919050565b600061463f61463a6146358461461a565b61371a565b613101565b9050919050565b61464f81614624565b82525050565b600060c08201905061466a600083018961326c565b6146776020830188613296565b614684604083018761326c565b614691606083018661326c565b61469e6080830185613624565b6146ab60a0830184614646565b979650505050505050565b7f4665652070657263656e746167652063616e6e6f742065786365656420313025600082015250565b60006146ec602083613794565b91506146f7826146b6565b602082019050919050565b6000602082019050818103600083015261471b816146df565b9050919050565b7f5374617274696e67207072696365206d7573742062652067726561746572207460008201527f68616e207a65726f000000000000000000000000000000000000000000000000602082015250565b600061477e602883613794565b915061478982614722565b604082019050919050565b600060208201905081810360008301526147ad81614771565b9050919050565b7f4475726174696f6e206d7573742062652067726561746572207468616e207a6560008201527f726f000000000000000000000000000000000000000000000000000000000000602082015250565b6000614810602283613794565b915061481b826147b4565b604082019050919050565b6000602082019050818103600083015261483f81614803565b9050919050565b600060c08201905061485b600083018961326c565b6148686020830188613296565b614875604083018761326c565b614882606083018661326c565b61488f6080830185613624565b61489c60a083018461326c565b979650505050505050565b7f52657665616c20706572696f6420686173206e6f7420656e6465640000000000600082015250565b60006148dd601b83613794565b91506148e8826148a7565b602082019050919050565b6000602082019050818103600083015261490c816148d0565b905091905056fea2646970667358221220af462de69dd89b3f68eb56a148108bf3d0e0e69fe7299c020cc551f2fa8097d264736f6c63430008140033",
  "linkReferences": {},
  "deployedLinkReferences": {}
}