{
  "_format": "hh-sol-artifact-1",
  "contractName": "PokemonNFT",
  "sourceName": "contracts/PokemonNFT.sol",
  "abi": [
    {
      "inputs": [
        {
          "internalType": "string",
          "name": "baseURI",
          "type": "string"
        }
      ],
      "stateMutability": "nonpayable",
      "type": "constructor"
    },
    {
      "inputs": [],
      "name": "ERC721EnumerableForbiddenBatchMint",
      "type": "error"
    },
    {
      "inputs": [
        {
          "internalType": "address",
          "name": "sender",
          "type": "address"
        },
        {
          "internalType": "uint256",
          "name": "tokenId",
          "type": "uint256"
        },
        {
          "internalType": "address",
          "name": "owner",
          "type": "address"
        }
      ],
      "name": "ERC721IncorrectOwner",
      "type": "error"
    },
    {
      "inputs": [
        {
          "internalType": "address",
          "name": "operator",
          "type": "address"
        },
        {
          "internalType": "uint256",
          "name": "tokenId",
          "type": "uint256"
        }
      ],
      "name": "ERC721InsufficientApproval",
      "type": "error"
    },
    {
      "inputs": [
        {
          "internalType": "address",
          "name": "approver",
          "type": "address"
        }
      ],
      "name": "ERC721InvalidApprover",
      "type": "error"
    },
    {
      "inputs": [
        {
          "internalType": "address",
          "name": "operator",
          "type": "address"
        }
      ],
      "name": "ERC721InvalidOperator",
      "type": "error"
    },
    {
      "inputs": [
        {
          "internalType": "address",
          "name": "owner",
          "type": "address"
        }
      ],
      "name": "ERC721InvalidOwner",
      "type": "error"
    },
    {
      "inputs": [
        {
          "internalType": "address",
          "name": "receiver",
          "type": "address"
        }
      ],
      "name": "ERC721InvalidReceiver",
      "type": "error"
    },
    {
      "inputs": [
        {
          "internalType": "address",
          "name": "sender",
          "type": "address"
        }
      ],
      "name": "ERC721InvalidSender",
      "type": "error"
    },
    {
      "inputs": [
        {
          "internalType": "uint256",
          "name": "tokenId",
          "type": "uint256"
        }
      ],
      "name": "ERC721NonexistentToken",
      "type": "error"
    },
    {
      "inputs": [
        {
          "internalType": "address",
          "name": "owner",
          "type": "address"
        },
        {
          "internalType": "uint256",
          "name": "index",
          "type": "uint256"
        }
      ],
      "name": "ERC721OutOfBoundsIndex",
      "type": "error"
    },
    {
      "inputs": [
        {
          "internalType": "address",
          "name": "owner",
          "type": "address"
        }
      ],
      "name": "OwnableInvalidOwner",
      "type": "error"
    },
    {
      "inputs": [
        {
          "internalType": "address",
          "name": "account",
          "type": "address"
        }
      ],
      "name": "OwnableUnauthorizedAccount",
      "type": "error"
    },
    {
      "inputs": [],
      "name": "ReentrancyGuardReentrantCall",
      "type": "error"
    },
    {
      "anonymous": false,
      "inputs": [
        {
          "indexed": true,
          "internalType": "address",
          "name": "owner",
          "type": "address"
        },
        {
          "indexed": true,
          "internalType": "address",
          "name": "approved",
          "type": "address"
        },
        {
          "indexed": true,
          "internalType": "uint256",
          "name": "tokenId",
          "type": "uint256"
        }
      ],
      "name": "Approval",
      "type": "event"
    },
    {
      "anonymous": false,
      "inputs": [
        {
          "indexed": true,
          "internalType": "address",
          "name": "owner",
          "type": "address"
        },
        {
          "indexed": true,
          "internalType": "address",
          "name": "operator",
          "type": "address"
        },
        {
          "indexed": false,
          "internalType": "bool",
          "name": "approved",
          "type": "bool"
        }
      ],
      "name": "ApprovalForAll",
      "type": "event"
    },
    {
      "anonymous": false,
      "inputs": [
        {
          "indexed": false,
          "internalType": "uint256",
          "name": "_fromTokenId",
          "type": "uint256"
        },
        {
          "indexed": false,
          "internalType": "uint256",
          "name": "_toTokenId",
          "type": "uint256"
        }
      ],
      "name": "BatchMetadataUpdate",
      "type": "event"
    },
    {
      "anonymous": false,
      "inputs": [
        {
          "indexed": true,
          "internalType": "address",
          "name": "user",
          "type": "address"
        },
        {
          "indexed": false,
          "internalType": "bytes32",
          "name": "commitHash",
          "type": "bytes32"
        }
      ],
      "name": "CommitSubmitted",
      "type": "event"
    },
    {
      "anonymous": false,
      "inputs": [
        {
          "indexed": false,
          "internalType": "uint256",
          "name": "_tokenId",
          "type": "uint256"
        }
      ],
      "name": "MetadataUpdate",
      "type": "event"
    },
    {
      "anonymous": false,
      "inputs": [
        {
          "indexed": true,
          "internalType": "address",
          "name": "previousOwner",
          "type": "address"
        },
        {
          "indexed": true,
          "internalType": "address",
          "name": "newOwner",
          "type": "address"
        }
      ],
      "name": "OwnershipTransferred",
      "type": "event"
    },
    {
      "anonymous": false,
      "inputs": [
        {
          "indexed": false,
          "internalType": "uint256",
          "name": "pokemonId",
          "type": "uint256"
        },
        {
          "indexed": false,
          "internalType": "string",
          "name": "name",
          "type": "string"
        },
        {
          "indexed": false,
          "internalType": "string",
          "name": "rarity",
          "type": "string"
        },
        {
          "indexed": false,
          "internalType": "uint256",
          "name": "maxSupply",
          "type": "uint256"
        }
      ],
      "name": "PokemonAdded",
      "type": "event"
    },
    {
      "anonymous": false,
      "inputs": [
        {
          "indexed": false,
          "internalType": "uint256",
          "name": "tokenId",
          "type": "uint256"
        },
        {
          "indexed": false,
          "internalType": "uint256",
          "name": "pokemonId",
          "type": "uint256"
        },
        {
          "indexed": false,
          "internalType": "string",
          "name": "name",
          "type": "string"
        },
        {
          "indexed": false,
          "internalType": "address",
          "name": "owner",
          "type": "address"
        }
      ],
      "name": "PokemonMinted",
      "type": "event"
    },
    {
      "anonymous": false,
      "inputs": [
        {
          "indexed": true,
          "internalType": "address",
          "name": "from",
          "type": "address"
        },
        {
          "indexed": true,
          "internalType": "address",
          "name": "to",
          "type": "address"
        },
        {
          "indexed": true,
          "internalType": "uint256",
          "name": "tokenId",
          "type": "uint256"
        }
      ],
      "name": "Transfer",
      "type": "event"
    },
    {
      "inputs": [
        {
          "internalType": "uint256",
          "name": "pokemonId",
          "type": "uint256"
        },
        {
          "internalType": "string",
          "name": "name",
          "type": "string"
        },
        {
          "internalType": "string",
          "name": "pokemonType",
          "type": "string"
        },
        {
          "internalType": "string",
          "name": "rarity",
          "type": "string"
        },
        {
          "internalType": "uint256",
          "name": "attack",
          "type": "uint256"
        },
        {
          "internalType": "uint256",
          "name": "defense",
          "type": "uint256"
        },
        {
          "internalType": "uint256",
          "name": "maxSupply",
          "type": "uint256"
        }
      ],
      "name": "addPokemon",
      "outputs": [],
      "stateMutability": "nonpayable",
      "type": "function"
    },
    {
      "inputs": [
        {
          "internalType": "address",
          "name": "to",
          "type": "address"
        },
        {
          "internalType": "uint256",
          "name": "tokenId",
          "type": "uint256"
        }
      ],
      "name": "approve",
      "outputs": [],
      "stateMutability": "nonpayable",
      "type": "function"
    },
    {
      "inputs": [
        {
          "internalType": "uint256",
          "name": "",
          "type": "uint256"
        }
      ],
      "name": "availablePokemon",
      "outputs": [
        {
          "internalType": "uint256",
          "name": "pokemonId",
          "type": "uint256"
        },
        {
          "internalType": "string",
          "name": "name",
          "type": "string"
        },
        {
          "internalType": "string",
          "name": "pokemonType",
          "type": "string"
        },
        {
          "internalType": "string",
          "name": "rarity",
          "type": "string"
        },
        {
          "internalType": "uint256",
          "name": "attack",
          "type": "uint256"
        },
        {
          "internalType": "uint256",
          "name": "defense",
          "type": "uint256"
        },
        {
          "internalType": "uint256",
          "name": "maxSupply",
          "type": "uint256"
        },
        {
          "internalType": "uint256",
          "name": "currentSupply",
          "type": "uint256"
        }
      ],
      "stateMutability": "view",
      "type": "function"
    },
    {
      "inputs": [
        {
          "internalType": "address",
          "name": "owner",
          "type": "address"
        }
      ],
      "name": "balanceOf",
      "outputs": [
        {
          "internalType": "uint256",
          "name": "",
          "type": "uint256"
        }
      ],
      "stateMutability": "view",
      "type": "function"
    },
    {
      "inputs": [
        {
          "internalType": "bytes32",
          "name": "",
          "type": "bytes32"
        }
      ],
      "name": "commitRequests",
      "outputs": [
        {
          "internalType": "address",
          "name": "",
          "type": "address"
        }
      ],
      "stateMutability": "view",
      "type": "function"
    },
    {
      "inputs": [
        {
          "internalType": "bytes32",
          "name": "commitHash",
          "type": "bytes32"
        }
      ],
      "name": "commitToRandomMint",
      "outputs": [],
      "stateMutability": "nonpayable",
      "type": "function"
    },
    {
      "inputs": [
        {
          "internalType": "uint256",
          "name": "tokenId",
          "type": "uint256"
        }
      ],
      "name": "getApproved",
      "outputs": [
        {
          "internalType": "address",
          "name": "",
          "type": "address"
        }
      ],
      "stateMutability": "view",
      "type": "function"
    },
    {
      "inputs": [],
      "name": "getAvailablePokemonCount",
      "outputs": [
        {
          "internalType": "uint256",
          "name": "",
          "type": "uint256"
        }
      ],
      "stateMutability": "view",
      "type": "function"
    },
    {
      "inputs": [
        {
          "internalType": "uint256",
          "name": "pokemonId",
          "type": "uint256"
        }
      ],
      "name": "getTokenIdsByPokemonId",
      "outputs": [
        {
          "internalType": "uint256[]",
          "name": "",
          "type": "uint256[]"
        }
      ],
      "stateMutability": "view",
      "type": "function"
    },
    {
      "inputs": [
        {
          "internalType": "address",
          "name": "owner",
          "type": "address"
        },
        {
          "internalType": "address",
          "name": "operator",
          "type": "address"
        }
      ],
      "name": "isApprovedForAll",
      "outputs": [
        {
          "internalType": "bool",
          "name": "",
          "type": "bool"
        }
      ],
      "stateMutability": "view",
      "type": "function"
    },
    {
      "inputs": [
        {
          "internalType": "uint256",
          "name": "pokemonIndex",
          "type": "uint256"
        },
        {
          "internalType": "address",
          "name": "recipient",
          "type": "address"
        }
      ],
      "name": "mintPokemon",
      "outputs": [
        {
          "internalType": "uint256",
          "name": "",
          "type": "uint256"
        }
      ],
      "stateMutability": "payable",
      "type": "function"
    },
    {
      "inputs": [],
      "name": "mintPrice",
      "outputs": [
        {
          "internalType": "uint256",
          "name": "",
          "type": "uint256"
        }
      ],
      "stateMutability": "view",
      "type": "function"
    },
    {
      "inputs": [
        {
          "internalType": "address",
          "name": "recipient",
          "type": "address"
        }
      ],
      "name": "mintRandomPokemon",
      "outputs": [
        {
          "internalType": "uint256",
          "name": "",
          "type": "uint256"
        }
      ],
      "stateMutability": "payable",
      "type": "function"
    },
    {
      "inputs": [],
      "name": "name",
      "outputs": [
        {
          "internalType": "string",
          "name": "",
          "type": "string"
        }
      ],
      "stateMutability": "view",
      "type": "function"
    },
    {
      "inputs": [],
      "name": "owner",
      "outputs": [
        {
          "internalType": "address",
          "name": "",
          "type": "address"
        }
      ],
      "stateMutability": "view",
      "type": "function"
    },
    {
      "inputs": [
        {
          "internalType": "uint256",
          "name": "tokenId",
          "type": "uint256"
        }
      ],
      "name": "ownerOf",
      "outputs": [
        {
          "internalType": "address",
          "name": "",
          "type": "address"
        }
      ],
      "stateMutability": "view",
      "type": "function"
    },
    {
      "inputs": [],
      "name": "paused",
      "outputs": [
        {
          "internalType": "bool",
          "name": "",
          "type": "bool"
        }
      ],
      "stateMutability": "view",
      "type": "function"
    },
    {
      "inputs": [
        {
          "internalType": "uint256",
          "name": "",
          "type": "uint256"
        }
      ],
      "name": "pokemonData",
      "outputs": [
        {
          "internalType": "uint256",
          "name": "pokemonId",
          "type": "uint256"
        },
        {
          "internalType": "string",
          "name": "name",
          "type": "string"
        },
        {
          "internalType": "string",
          "name": "pokemonType",
          "type": "string"
        },
        {
          "internalType": "string",
          "name": "rarity",
          "type": "string"
        },
        {
          "internalType": "uint256",
          "name": "attack",
          "type": "uint256"
        },
        {
          "internalType": "uint256",
          "name": "defense",
          "type": "uint256"
        },
        {
          "internalType": "uint256",
          "name": "maxSupply",
          "type": "uint256"
        },
        {
          "internalType": "uint256",
          "name": "currentSupply",
          "type": "uint256"
        }
      ],
      "stateMutability": "view",
      "type": "function"
    },
    {
      "inputs": [],
      "name": "renounceOwnership",
      "outputs": [],
      "stateMutability": "nonpayable",
      "type": "function"
    },
    {
      "inputs": [
        {
          "internalType": "string",
          "name": "secretPhrase",
          "type": "string"
        }
      ],
      "name": "revealAndMintRandom",
      "outputs": [
        {
          "internalType": "uint256",
          "name": "",
          "type": "uint256"
        }
      ],
      "stateMutability": "payable",
      "type": "function"
    },
    {
      "inputs": [
        {
          "internalType": "address",
          "name": "from",
          "type": "address"
        },
        {
          "internalType": "address",
          "name": "to",
          "type": "address"
        },
        {
          "internalType": "uint256",
          "name": "tokenId",
          "type": "uint256"
        }
      ],
      "name": "safeTransferFrom",
      "outputs": [],
      "stateMutability": "nonpayable",
      "type": "function"
    },
    {
      "inputs": [
        {
          "internalType": "address",
          "name": "from",
          "type": "address"
        },
        {
          "internalType": "address",
          "name": "to",
          "type": "address"
        },
        {
          "internalType": "uint256",
          "name": "tokenId",
          "type": "uint256"
        },
        {
          "internalType": "bytes",
          "name": "data",
          "type": "bytes"
        }
      ],
      "name": "safeTransferFrom",
      "outputs": [],
      "stateMutability": "nonpayable",
      "type": "function"
    },
    {
      "inputs": [
        {
          "internalType": "address",
          "name": "operator",
          "type": "address"
        },
        {
          "internalType": "bool",
          "name": "approved",
          "type": "bool"
        }
      ],
      "name": "setApprovalForAll",
      "outputs": [],
      "stateMutability": "nonpayable",
      "type": "function"
    },
    {
      "inputs": [
        {
          "internalType": "string",
          "name": "baseURI",
          "type": "string"
        }
      ],
      "name": "setBaseURI",
      "outputs": [],
      "stateMutability": "nonpayable",
      "type": "function"
    },
    {
      "inputs": [
        {
          "internalType": "uint256",
          "name": "_mintPrice",
          "type": "uint256"
        }
      ],
      "name": "setMintPrice",
      "outputs": [],
      "stateMutability": "nonpayable",
      "type": "function"
    },
    {
      "inputs": [],
      "name": "simpleMint",
      "outputs": [
        {
          "internalType": "uint256",
          "name": "",
          "type": "uint256"
        }
      ],
      "stateMutability": "payable",
      "type": "function"
    },
    {
      "inputs": [
        {
          "internalType": "bytes4",
          "name": "interfaceId",
          "type": "bytes4"
        }
      ],
      "name": "supportsInterface",
      "outputs": [
        {
          "internalType": "bool",
          "name": "",
          "type": "bool"
        }
      ],
      "stateMutability": "view",
      "type": "function"
    },
    {
      "inputs": [],
      "name": "symbol",
      "outputs": [
        {
          "internalType": "string",
          "name": "",
          "type": "string"
        }
      ],
      "stateMutability": "view",
      "type": "function"
    },
    {
      "inputs": [],
      "name": "togglePause",
      "outputs": [],
      "stateMutability": "nonpayable",
      "type": "function"
    },
    {
      "inputs": [
        {
          "internalType": "uint256",
          "name": "index",
          "type": "uint256"
        }
      ],
      "name": "tokenByIndex",
      "outputs": [
        {
          "internalType": "uint256",
          "name": "",
          "type": "uint256"
        }
      ],
      "stateMutability": "view",
      "type": "function"
    },
    {
      "inputs": [
        {
          "internalType": "address",
          "name": "owner",
          "type": "address"
        },
        {
          "internalType": "uint256",
          "name": "index",
          "type": "uint256"
        }
      ],
      "name": "tokenOfOwnerByIndex",
      "outputs": [
        {
          "internalType": "uint256",
          "name": "",
          "type": "uint256"
        }
      ],
      "stateMutability": "view",
      "type": "function"
    },
    {
      "inputs": [
        {
          "internalType": "uint256",
          "name": "tokenId",
          "type": "uint256"
        }
      ],
      "name": "tokenURI",
      "outputs": [
        {
          "internalType": "string",
          "name": "",
          "type": "string"
        }
      ],
      "stateMutability": "view",
      "type": "function"
    },
    {
      "inputs": [],
      "name": "totalSupply",
      "outputs": [
        {
          "internalType": "uint256",
          "name": "",
          "type": "uint256"
        }
      ],
      "stateMutability": "view",
      "type": "function"
    },
    {
      "inputs": [
        {
          "internalType": "address",
          "name": "from",
          "type": "address"
        },
        {
          "internalType": "address",
          "name": "to",
          "type": "address"
        },
        {
          "internalType": "uint256",
          "name": "tokenId",
          "type": "uint256"
        }
      ],
      "name": "transferFrom",
      "outputs": [],
      "stateMutability": "nonpayable",
      "type": "function"
    },
    {
      "inputs": [
        {
          "internalType": "address",
          "name": "newOwner",
          "type": "address"
        }
      ],
      "name": "transferOwnership",
      "outputs": [],
      "stateMutability": "nonpayable",
      "type": "function"
    },
    {
      "inputs": [],
      "name": "withdraw",
      "outputs": [],
      "stateMutability": "nonpayable",
      "type": "function"
    }
  ],
  "bytecode": "0x6080604052662386f26fc100006012556000601460006101000a81548160ff0219169083151502179055503480156200003757600080fd5b5060405162005ba638038062005ba683398181016040528101906200005d9190620003f1565b336040518060400160405280600c81526020017f506f6b656d6f6e436172647300000000000000000000000000000000000000008152506040518060400160405280600481526020017f504b4d4e000000000000000000000000000000000000000000000000000000008152508160009081620000db91906200068d565b508060019081620000ed91906200068d565b505050600073ffffffffffffffffffffffffffffffffffffffff168173ffffffffffffffffffffffffffffffffffffffff1603620001655760006040517f1e4fbdf70000000000000000000000000000000000000000000000000000000081526004016200015c9190620007b9565b60405180910390fd5b62000176816200019860201b60201c565b506001600c8190555080601190816200019091906200068d565b5050620007d6565b6000600b60009054906101000a900473ffffffffffffffffffffffffffffffffffffffff16905081600b60006101000a81548173ffffffffffffffffffffffffffffffffffffffff021916908373ffffffffffffffffffffffffffffffffffffffff1602179055508173ffffffffffffffffffffffffffffffffffffffff168173ffffffffffffffffffffffffffffffffffffffff167f8be0079c531659141344cd1fd0a4f28419497f9722a3daafe3b4186f6b6457e060405160405180910390a35050565b6000604051905090565b600080fd5b600080fd5b600080fd5b600080fd5b6000601f19601f8301169050919050565b7f4e487b7100000000000000000000000000000000000000000000000000000000600052604160045260246000fd5b620002c7826200027c565b810181811067ffffffffffffffff82111715620002e957620002e86200028d565b5b80604052505050565b6000620002fe6200025e565b90506200030c8282620002bc565b919050565b600067ffffffffffffffff8211156200032f576200032e6200028d565b5b6200033a826200027c565b9050602081019050919050565b60005b83811015620003675780820151818401526020810190506200034a565b60008484015250505050565b60006200038a620003848462000311565b620002f2565b905082815260208101848484011115620003a957620003a862000277565b5b620003b684828562000347565b509392505050565b600082601f830112620003d657620003d562000272565b5b8151620003e884826020860162000373565b91505092915050565b6000602082840312156200040a576200040962000268565b5b600082015167ffffffffffffffff8111156200042b576200042a6200026d565b5b6200043984828501620003be565b91505092915050565b600081519050919050565b7f4e487b7100000000000000000000000000000000000000000000000000000000600052602260045260246000fd5b600060028204905060018216806200049557607f821691505b602082108103620004ab57620004aa6200044d565b5b50919050565b60008190508160005260206000209050919050565b60006020601f8301049050919050565b600082821b905092915050565b600060088302620005157fffffffffffffffffffffffffffffffffffffffffffffffffffffffffffffffff82620004d6565b620005218683620004d6565b95508019841693508086168417925050509392505050565b6000819050919050565b6000819050919050565b60006200056e62000568620005628462000539565b62000543565b62000539565b9050919050565b6000819050919050565b6200058a836200054d565b620005a2620005998262000575565b848454620004e3565b825550505050565b600090565b620005b9620005aa565b620005c68184846200057f565b505050565b5b81811015620005ee57620005e2600082620005af565b600181019050620005cc565b5050565b601f8211156200063d576200060781620004b1565b6200061284620004c6565b8101602085101562000622578190505b6200063a6200063185620004c6565b830182620005cb565b50505b505050565b600082821c905092915050565b6000620006626000198460080262000642565b1980831691505092915050565b60006200067d83836200064f565b9150826002028217905092915050565b620006988262000442565b67ffffffffffffffff811115620006b457620006b36200028d565b5b620006c082546200047c565b620006cd828285620005f2565b600060209050601f831160018114620007055760008415620006f0578287015190505b620006fc85826200066f565b8655506200076c565b601f1984166200071586620004b1565b60005b828110156200073f5784890151825560018201915060208501945060208101905062000718565b868310156200075f57848901516200075b601f8916826200064f565b8355505b6001600288020188555050505b505050505050565b600073ffffffffffffffffffffffffffffffffffffffff82169050919050565b6000620007a18262000774565b9050919050565b620007b38162000794565b82525050565b6000602082019050620007d06000830184620007a8565b92915050565b6153c080620007e66000396000f3fe60806040526004361061020f5760003560e01c806370a0823111610118578063c4ae3168116100a0578063e985e9c51161006f578063e985e9c5146107d0578063f2fde38b1461080d578063f4a0a52814610836578063fb3599b31461085f578063ff0492191461088f5761020f565b8063c4ae316814610721578063c87b56dd14610738578063d58bf4e014610775578063d607f317146107b25761020f565b8063a22cb465116100e7578063a22cb46514610632578063aba9acfc1461065b578063b88d4fde14610684578063bc8f15e9146106ad578063c1b2c1ae146106dd5761020f565b806370a0823114610588578063715018a6146105c55780638da5cb5b146105dc57806395d89b41146106075761020f565b80633ccfd60b1161019b57806355f804b31161016a57806355f804b3146104a15780635c975abb146104ca5780636352211e146104f55780636817c76c146105325780636c9b1baa1461055d5761020f565b80633ccfd60b146103e057806342842e0e146103f75780634f6ccce71461042057806351977eb31461045d5761020f565b8063095ea7b3116101e2578063095ea7b3146102f657806313b65ab71461031f57806318160ddd1461034f57806323b872dd1461037a5780632f745c59146103a35761020f565b806301c0f7871461021457806301ffc9a71461025157806306fdde031461028e578063081812fc146102b9575b600080fd5b34801561022057600080fd5b5061023b60048036038101906102369190613d48565b6108b8565b6040516102489190613e33565b60405180910390f35b34801561025d57600080fd5b5061027860048036038101906102739190613ead565b610923565b6040516102859190613ef5565b60405180910390f35b34801561029a57600080fd5b506102a3610935565b6040516102b09190613fa0565b60405180910390f35b3480156102c557600080fd5b506102e060048036038101906102db9190613d48565b6109c7565b6040516102ed9190614003565b60405180910390f35b34801561030257600080fd5b5061031d6004803603810190610318919061404a565b6109e3565b005b6103396004803603810190610334919061408a565b6109f9565b60405161034691906140c6565b60405180910390f35b34801561035b57600080fd5b50610364610c15565b60405161037191906140c6565b60405180910390f35b34801561038657600080fd5b506103a1600480360381019061039c91906140e1565b610c22565b005b3480156103af57600080fd5b506103ca60048036038101906103c5919061404a565b610d24565b6040516103d791906140c6565b60405180910390f35b3480156103ec57600080fd5b506103f5610dcd565b005b34801561040357600080fd5b5061041e600480360381019061041991906140e1565b610e35565b005b34801561042c57600080fd5b5061044760048036038101906104429190613d48565b610e55565b60405161045491906140c6565b60405180910390f35b34801561046957600080fd5b50610484600480360381019061047f9190613d48565b610ecb565b604051610498989796959493929190614134565b60405180910390f35b3480156104ad57600080fd5b506104c860048036038101906104c391906142fc565b6110bb565b005b3480156104d657600080fd5b506104df6110d6565b6040516104ec9190613ef5565b60405180910390f35b34801561050157600080fd5b5061051c60048036038101906105179190613d48565b6110e9565b6040516105299190614003565b60405180910390f35b34801561053e57600080fd5b506105476110fb565b60405161055491906140c6565b60405180910390f35b34801561056957600080fd5b50610572611101565b60405161057f91906140c6565b60405180910390f35b34801561059457600080fd5b506105af60048036038101906105aa919061408a565b61110e565b6040516105bc91906140c6565b60405180910390f35b3480156105d157600080fd5b506105da6111c8565b005b3480156105e857600080fd5b506105f16111dc565b6040516105fe9190614003565b60405180910390f35b34801561061357600080fd5b5061061c611206565b6040516106299190613fa0565b60405180910390f35b34801561063e57600080fd5b5061065960048036038101906106549190614371565b611298565b005b34801561066757600080fd5b50610682600480360381019061067d91906143e7565b6112ae565b005b34801561069057600080fd5b506106ab60048036038101906106a691906144b5565b6113e6565b005b6106c760048036038101906106c291906142fc565b611403565b6040516106d491906140c6565b60405180910390f35b3480156106e957600080fd5b5061070460048036038101906106ff9190613d48565b611728565b604051610718989796959493929190614134565b60405180910390f35b34801561072d57600080fd5b50610736611908565b005b34801561074457600080fd5b5061075f600480360381019061075a9190613d48565b61193c565b60405161076c9190613fa0565b60405180910390f35b34801561078157600080fd5b5061079c600480360381019061079791906143e7565b61194e565b6040516107a99190614003565b60405180910390f35b6107ba611981565b6040516107c791906140c6565b60405180910390f35b3480156107dc57600080fd5b506107f760048036038101906107f29190614538565b611a80565b6040516108049190613ef5565b60405180910390f35b34801561081957600080fd5b50610834600480360381019061082f919061408a565b611b14565b005b34801561084257600080fd5b5061085d60048036038101906108589190613d48565b611b9a565b005b61087960048036038101906108749190614578565b611bac565b60405161088691906140c6565b60405180910390f35b34801561089b57600080fd5b506108b660048036038101906108b191906145b8565b6120cf565b005b6060600f600083815260200190815260200160002080548060200260200160405190810160405280929190818152602001828054801561091757602002820191906000526020600020905b815481526020019060010190808311610903575b50505050509050919050565b600061092e826121ff565b9050919050565b606060008054610944906146dd565b80601f0160208091040260200160405190810160405280929190818152602001828054610970906146dd565b80156109bd5780601f10610992576101008083540402835291602001916109bd565b820191906000526020600020905b8154815290600101906020018083116109a057829003601f168201915b5050505050905090565b60006109d282612279565b506109dc82612301565b9050919050565b6109f582826109f061233e565b612346565b5050565b6000601460009054906101000a900460ff1615610a4b576040517f08c379a0000000000000000000000000000000000000000000000000000000008152600401610a429061475a565b60405180910390fd5b610a53612358565b600060108054905011610a9b576040517f08c379a0000000000000000000000000000000000000000000000000000000008152600401610a92906147c6565b60405180910390fd5b601254341015610ae0576040517f08c379a0000000000000000000000000000000000000000000000000000000008152600401610ad790614832565b60405180910390fd5b6000601080549050424433610af5600d61239e565b604051602001610b0894939291906148bb565b6040516020818303038152906040528051906020012060001c610b2b9190614938565b905060005b60108281548110610b4457610b43614969565b5b90600052602060002090600802016006015460108381548110610b6a57610b69614969565b5b90600052602060002090600802016007015410610bfa57601080549050600183610b9491906149c7565b610b9e9190614938565b91508080610bab906149fb565b9150506010805490508110610bf5576040517f08c379a0000000000000000000000000000000000000000000000000000000008152600401610bec90614ab5565b60405180910390fd5b610b30565b610c0482856123ac565b92505050610c10612757565b919050565b6000600980549050905090565b600073ffffffffffffffffffffffffffffffffffffffff168273ffffffffffffffffffffffffffffffffffffffff1603610c945760006040517f64a0ae92000000000000000000000000000000000000000000000000000000008152600401610c8b9190614003565b60405180910390fd5b6000610ca88383610ca361233e565b612761565b90508373ffffffffffffffffffffffffffffffffffffffff168173ffffffffffffffffffffffffffffffffffffffff1614610d1e578382826040517f64283d7b000000000000000000000000000000000000000000000000000000008152600401610d1593929190614ad5565b60405180910390fd5b50505050565b6000610d2f8361110e565b8210610d745782826040517fa57d13dc000000000000000000000000000000000000000000000000000000008152600401610d6b929190614b0c565b60405180910390fd5b600760008473ffffffffffffffffffffffffffffffffffffffff1673ffffffffffffffffffffffffffffffffffffffff168152602001908152602001600020600083815260200190815260200160002054905092915050565b610dd5612777565b610ddd612358565b610de56111dc565b73ffffffffffffffffffffffffffffffffffffffff166108fc479081150290604051600060405180830381858888f19350505050158015610e2a573d6000803e3d6000fd5b50610e33612757565b565b610e50838383604051806020016040528060008152506113e6565b505050565b6000610e5f610c15565b8210610ea5576000826040517fa57d13dc000000000000000000000000000000000000000000000000000000008152600401610e9c929190614b0c565b60405180910390fd5b60098281548110610eb957610eb8614969565b5b90600052602060002001549050919050565b60108181548110610edb57600080fd5b9060005260206000209060080201600091509050806000015490806001018054610f04906146dd565b80601f0160208091040260200160405190810160405280929190818152602001828054610f30906146dd565b8015610f7d5780601f10610f5257610100808354040283529160200191610f7d565b820191906000526020600020905b815481529060010190602001808311610f6057829003601f168201915b505050505090806002018054610f92906146dd565b80601f0160208091040260200160405190810160405280929190818152602001828054610fbe906146dd565b801561100b5780601f10610fe05761010080835404028352916020019161100b565b820191906000526020600020905b815481529060010190602001808311610fee57829003601f168201915b505050505090806003018054611020906146dd565b80601f016020809104026020016040519081016040528092919081815260200182805461104c906146dd565b80156110995780601f1061106e57610100808354040283529160200191611099565b820191906000526020600020905b81548152906001019060200180831161107c57829003601f168201915b5050505050908060040154908060050154908060060154908060070154905088565b6110c3612777565b80601190816110d29190614ce1565b5050565b601460009054906101000a900460ff1681565b60006110f482612279565b9050919050565b60125481565b6000601080549050905090565b60008073ffffffffffffffffffffffffffffffffffffffff168273ffffffffffffffffffffffffffffffffffffffff16036111815760006040517f89c62b640000000000000000000000000000000000000000000000000000000081526004016111789190614003565b60405180910390fd5b600360008373ffffffffffffffffffffffffffffffffffffffff1673ffffffffffffffffffffffffffffffffffffffff168152602001908152602001600020549050919050565b6111d0612777565b6111da60006127fe565b565b6000600b60009054906101000a900473ffffffffffffffffffffffffffffffffffffffff16905090565b606060018054611215906146dd565b80601f0160208091040260200160405190810160405280929190818152602001828054611241906146dd565b801561128e5780601f106112635761010080835404028352916020019161128e565b820191906000526020600020905b81548152906001019060200180831161127157829003601f168201915b5050505050905090565b6112aa6112a361233e565b83836128c4565b5050565b601460009054906101000a900460ff16156112fe576040517f08c379a00000000000000000000000000000000000000000000000000000000081526004016112f59061475a565b60405180910390fd5b6000801b8103611343576040517f08c379a000000000000000000000000000000000000000000000000000000000815260040161133a90614dff565b60405180910390fd5b336013600083815260200190815260200160002060006101000a81548173ffffffffffffffffffffffffffffffffffffffff021916908373ffffffffffffffffffffffffffffffffffffffff1602179055503373ffffffffffffffffffffffffffffffffffffffff167f5a535d3e2551e12d386f4ddc23831403dcc44673683c17620c115a9f75908322826040516113db9190614e2e565b60405180910390a250565b6113f1848484610c22565b6113fd84848484612a33565b50505050565b6000601460009054906101000a900460ff1615611455576040517f08c379a000000000000000000000000000000000000000000000000000000000815260040161144c9061475a565b60405180910390fd5b61145d612358565b6012543410156114a2576040517f08c379a000000000000000000000000000000000000000000000000000000000815260040161149990614832565b60405180910390fd5b6000601080549050116114ea576040517f08c379a00000000000000000000000000000000000000000000000000000000081526004016114e1906147c6565b60405180910390fd5b600082336040516020016114ff929190614e85565b6040516020818303038152906040528051906020012090503373ffffffffffffffffffffffffffffffffffffffff166013600083815260200190815260200160002060009054906101000a900473ffffffffffffffffffffffffffffffffffffffff1673ffffffffffffffffffffffffffffffffffffffff16146115b8576040517f08c379a00000000000000000000000000000000000000000000000000000000081526004016115af90614ef9565b60405180910390fd5b6013600082815260200190815260200160002060006101000a81549073ffffffffffffffffffffffffffffffffffffffff02191690556000601080549050846001436116049190614f19565b40423360405160200161161a9493929190614f6e565b6040516020818303038152906040528051906020012060001c61163d9190614938565b905060005b6010828154811061165657611655614969565b5b9060005260206000209060080201600601546010838154811061167c5761167b614969565b5b9060005260206000209060080201600701541061170c576010805490506001836116a691906149c7565b6116b09190614938565b915080806116bd906149fb565b9150506010805490508110611707576040517f08c379a00000000000000000000000000000000000000000000000000000000081526004016116fe90614ab5565b60405180910390fd5b611642565b61171682336123ac565b9350505050611723612757565b919050565b600e602052806000526040600020600091509050806000015490806001018054611751906146dd565b80601f016020809104026020016040519081016040528092919081815260200182805461177d906146dd565b80156117ca5780601f1061179f576101008083540402835291602001916117ca565b820191906000526020600020905b8154815290600101906020018083116117ad57829003601f168201915b5050505050908060020180546117df906146dd565b80601f016020809104026020016040519081016040528092919081815260200182805461180b906146dd565b80156118585780601f1061182d57610100808354040283529160200191611858565b820191906000526020600020905b81548152906001019060200180831161183b57829003601f168201915b50505050509080600301805461186d906146dd565b80601f0160208091040260200160405190810160405280929190818152602001828054611899906146dd565b80156118e65780601f106118bb576101008083540402835291602001916118e6565b820191906000526020600020905b8154815290600101906020018083116118c957829003601f168201915b5050505050908060040154908060050154908060060154908060070154905088565b611910612777565b601460009054906101000a900460ff1615601460006101000a81548160ff021916908315150217905550565b606061194782612bea565b9050919050565b60136020528060005260406000206000915054906101000a900473ffffffffffffffffffffffffffffffffffffffff1681565b6000601460009054906101000a900460ff16156119d3576040517f08c379a00000000000000000000000000000000000000000000000000000000081526004016119ca9061475a565b60405180910390fd5b6119db612358565b600060108054905011611a23576040517f08c379a0000000000000000000000000000000000000000000000000000000008152600401611a1a906147c6565b60405180910390fd5b601254341015611a68576040517f08c379a0000000000000000000000000000000000000000000000000000000008152600401611a5f90614832565b60405180910390fd5b611a73600033611bac565b9050611a7d612757565b90565b6000600560008473ffffffffffffffffffffffffffffffffffffffff1673ffffffffffffffffffffffffffffffffffffffff16815260200190815260200160002060008373ffffffffffffffffffffffffffffffffffffffff1673ffffffffffffffffffffffffffffffffffffffff16815260200190815260200160002060009054906101000a900460ff16905092915050565b611b1c612777565b600073ffffffffffffffffffffffffffffffffffffffff168173ffffffffffffffffffffffffffffffffffffffff1603611b8e5760006040517f1e4fbdf7000000000000000000000000000000000000000000000000000000008152600401611b859190614003565b60405180910390fd5b611b97816127fe565b50565b611ba2612777565b8060128190555050565b6000601460009054906101000a900460ff1615611bfe576040517f08c379a0000000000000000000000000000000000000000000000000000000008152600401611bf59061475a565b60405180910390fd5b611c06612358565b6010805490508310611c4d576040517f08c379a0000000000000000000000000000000000000000000000000000000008152600401611c4490615004565b60405180910390fd5b60108381548110611c6157611c60614969565b5b90600052602060002090600802016006015460108481548110611c8757611c86614969565b5b90600052602060002090600802016007015410611cd9576040517f08c379a0000000000000000000000000000000000000000000000000000000008152600401611cd090615096565b60405180910390fd5b601254341015611d1e576040517f08c379a0000000000000000000000000000000000000000000000000000000008152600401611d1590614832565b60405180910390fd5b611d28600d612cfd565b6000611d34600d61239e565b9050600060108581548110611d4c57611d4b614969565b5b90600052602060002090600802019050806007016000815480929190611d71906149fb565b9190505550611d808483612d1c565b611dbe82611d8c612e15565b611d998460000154612ea7565b604051602001611daa929190615102565b604051602081830303815290604052612f75565b60405180610100016040528082600001548152602001826001018054611de3906146dd565b80601f0160208091040260200160405190810160405280929190818152602001828054611e0f906146dd565b8015611e5c5780601f10611e3157610100808354040283529160200191611e5c565b820191906000526020600020905b815481529060010190602001808311611e3f57829003601f168201915b50505050508152602001826002018054611e75906146dd565b80601f0160208091040260200160405190810160405280929190818152602001828054611ea1906146dd565b8015611eee5780601f10611ec357610100808354040283529160200191611eee565b820191906000526020600020905b815481529060010190602001808311611ed157829003601f168201915b50505050508152602001826003018054611f07906146dd565b80601f0160208091040260200160405190810160405280929190818152602001828054611f33906146dd565b8015611f805780601f10611f5557610100808354040283529160200191611f80565b820191906000526020600020905b815481529060010190602001808311611f6357829003601f168201915b505050505081526020018260040154815260200182600501548152602001826006015481526020018260070154815250600e6000848152602001908152602001600020600082015181600001556020820151816001019081611fe29190614ce1565b506040820151816002019081611ff89190614ce1565b50606082015181600301908161200e9190614ce1565b506080820151816004015560a0820151816005015560c0820151816006015560e08201518160070155905050600f6000826000015481526020019081526020016000208290806001815401808255809150506001900390600052602060002001600090919091909150557feebfd76b8c41858f758eb77a04586bb4e4a1546ce3ebe8792374f8bc141f450482826000015483600101876040516120b494939291906151b5565b60405180910390a181925050506120c9612757565b92915050565b6120d7612777565b60006040518061010001604052808981526020018881526020018781526020018681526020018581526020018481526020018381526020016000815250905060108190806001815401808255809150506001900390600052602060002090600802016000909190919091506000820151816000015560208201518160010190816121619190614ce1565b5060408201518160020190816121779190614ce1565b50606082015181600301908161218d9190614ce1565b506080820151816004015560a0820151816005015560c0820151816006015560e0820151816007015550507fbb943a75897841273de992018d6a6fa10dcf6b7e69231efef8815db6a70ec267888887856040516121ed9493929190615201565b60405180910390a15050505050505050565b60007f780e9d63000000000000000000000000000000000000000000000000000000007bffffffffffffffffffffffffffffffffffffffffffffffffffffffff1916827bffffffffffffffffffffffffffffffffffffffffffffffffffffffff19161480612272575061227182612fd1565b5b9050919050565b60008061228583613032565b9050600073ffffffffffffffffffffffffffffffffffffffff168173ffffffffffffffffffffffffffffffffffffffff16036122f857826040517f7e2732890000000000000000000000000000000000000000000000000000000081526004016122ef91906140c6565b60405180910390fd5b80915050919050565b60006004600083815260200190815260200160002060009054906101000a900473ffffffffffffffffffffffffffffffffffffffff169050919050565b600033905090565b612353838383600161306f565b505050565b6002600c5403612394576040517f3ee5aeb500000000000000000000000000000000000000000000000000000000815260040160405180910390fd5b6002600c81905550565b600081600001549050919050565b60006123b8600d612cfd565b60006123c4600d61239e565b90506000601085815481106123dc576123db614969565b5b90600052602060002090600802019050806007016000815480929190612401906149fb565b91905055506124108483612d1c565b61244e8261241c612e15565b6124298460000154612ea7565b60405160200161243a929190615102565b604051602081830303815290604052612f75565b60405180610100016040528082600001548152602001826001018054612473906146dd565b80601f016020809104026020016040519081016040528092919081815260200182805461249f906146dd565b80156124ec5780601f106124c1576101008083540402835291602001916124ec565b820191906000526020600020905b8154815290600101906020018083116124cf57829003601f168201915b50505050508152602001826002018054612505906146dd565b80601f0160208091040260200160405190810160405280929190818152602001828054612531906146dd565b801561257e5780601f106125535761010080835404028352916020019161257e565b820191906000526020600020905b81548152906001019060200180831161256157829003601f168201915b50505050508152602001826003018054612597906146dd565b80601f01602080910402602001604051908101604052809291908181526020018280546125c3906146dd565b80156126105780601f106125e557610100808354040283529160200191612610565b820191906000526020600020905b8154815290600101906020018083116125f357829003601f168201915b505050505081526020018260040154815260200182600501548152602001826006015481526020018260070154815250600e60008481526020019081526020016000206000820151816000015560208201518160010190816126729190614ce1565b5060408201518160020190816126889190614ce1565b50606082015181600301908161269e9190614ce1565b506080820151816004015560a0820151816005015560c0820151816006015560e08201518160070155905050600f6000826000015481526020019081526020016000208290806001815401808255809150506001900390600052602060002001600090919091909150557feebfd76b8c41858f758eb77a04586bb4e4a1546ce3ebe8792374f8bc141f4504828260000154836001018760405161274494939291906151b5565b60405180910390a1819250505092915050565b6001600c81905550565b600061276e848484613234565b90509392505050565b61277f61233e565b73ffffffffffffffffffffffffffffffffffffffff1661279d6111dc565b73ffffffffffffffffffffffffffffffffffffffff16146127fc576127c061233e565b6040517f118cdaa70000000000000000000000000000000000000000000000000000000081526004016127f39190614003565b60405180910390fd5b565b6000600b60009054906101000a900473ffffffffffffffffffffffffffffffffffffffff16905081600b60006101000a81548173ffffffffffffffffffffffffffffffffffffffff021916908373ffffffffffffffffffffffffffffffffffffffff1602179055508173ffffffffffffffffffffffffffffffffffffffff168173ffffffffffffffffffffffffffffffffffffffff167f8be0079c531659141344cd1fd0a4f28419497f9722a3daafe3b4186f6b6457e060405160405180910390a35050565b600073ffffffffffffffffffffffffffffffffffffffff168273ffffffffffffffffffffffffffffffffffffffff160361293557816040517f5b08ba1800000000000000000000000000000000000000000000000000000000815260040161292c9190614003565b60405180910390fd5b80600560008573ffffffffffffffffffffffffffffffffffffffff1673ffffffffffffffffffffffffffffffffffffffff16815260200190815260200160002060008473ffffffffffffffffffffffffffffffffffffffff1673ffffffffffffffffffffffffffffffffffffffff16815260200190815260200160002060006101000a81548160ff0219169083151502179055508173ffffffffffffffffffffffffffffffffffffffff168373ffffffffffffffffffffffffffffffffffffffff167f17307eab39ab6107e8899845ad3d59bd9653f200f220920489ca2b5937696c3183604051612a269190613ef5565b60405180910390a3505050565b60008373ffffffffffffffffffffffffffffffffffffffff163b1115612be4578273ffffffffffffffffffffffffffffffffffffffff1663150b7a02612a7761233e565b8685856040518563ffffffff1660e01b8152600401612a9994939291906152a9565b6020604051808303816000875af1925050508015612ad557506040513d601f19601f82011682018060405250810190612ad2919061530a565b60015b612b59573d8060008114612b05576040519150601f19603f3d011682016040523d82523d6000602084013e612b0a565b606091505b506000815103612b5157836040517f64a0ae92000000000000000000000000000000000000000000000000000000008152600401612b489190614003565b60405180910390fd5b805181602001fd5b63150b7a0260e01b7bffffffffffffffffffffffffffffffffffffffffffffffffffffffff1916817bffffffffffffffffffffffffffffffffffffffffffffffffffffffff191614612be257836040517f64a0ae92000000000000000000000000000000000000000000000000000000008152600401612bd99190614003565b60405180910390fd5b505b50505050565b6060612bf582612279565b506000600660008481526020019081526020016000208054612c16906146dd565b80601f0160208091040260200160405190810160405280929190818152602001828054612c42906146dd565b8015612c8f5780601f10612c6457610100808354040283529160200191612c8f565b820191906000526020600020905b815481529060010190602001808311612c7257829003601f168201915b505050505090506000612ca0612e15565b90506000815103612cb5578192505050612cf8565b600082511115612cea578082604051602001612cd2929190615337565b60405160208183030381529060405292505050612cf8565b612cf384613351565b925050505b919050565b6001816000016000828254612d1291906149c7565b9250508190555050565b600073ffffffffffffffffffffffffffffffffffffffff168273ffffffffffffffffffffffffffffffffffffffff1603612d8e5760006040517f64a0ae92000000000000000000000000000000000000000000000000000000008152600401612d859190614003565b60405180910390fd5b6000612d9c83836000612761565b9050600073ffffffffffffffffffffffffffffffffffffffff168173ffffffffffffffffffffffffffffffffffffffff1614612e105760006040517f73c6ac6e000000000000000000000000000000000000000000000000000000008152600401612e079190614003565b60405180910390fd5b505050565b606060118054612e24906146dd565b80601f0160208091040260200160405190810160405280929190818152602001828054612e50906146dd565b8015612e9d5780601f10612e7257610100808354040283529160200191612e9d565b820191906000526020600020905b815481529060010190602001808311612e8057829003601f168201915b5050505050905090565b606060006001612eb6846133ba565b01905060008167ffffffffffffffff811115612ed557612ed46141d1565b5b6040519080825280601f01601f191660200182016040528015612f075781602001600182028036833780820191505090505b509050600082602001820190505b600115612f6a578080600190039150507f3031323334353637383961626364656600000000000000000000000000000000600a86061a8153600a8581612f5e57612f5d614909565b5b04945060008503612f15575b819350505050919050565b80600660008481526020019081526020016000209081612f959190614ce1565b507ff8e1a15aba9398e019f0b49df1a4fde98ee17ae345cb5f6b5e2c27f5033e8ce782604051612fc591906140c6565b60405180910390a15050565b6000634906490660e01b7bffffffffffffffffffffffffffffffffffffffffffffffffffffffff1916827bffffffffffffffffffffffffffffffffffffffffffffffffffffffff1916148061302b575061302a8261350d565b5b9050919050565b60006002600083815260200190815260200160002060009054906101000a900473ffffffffffffffffffffffffffffffffffffffff169050919050565b80806130a85750600073ffffffffffffffffffffffffffffffffffffffff168273ffffffffffffffffffffffffffffffffffffffff1614155b156131dc5760006130b884612279565b9050600073ffffffffffffffffffffffffffffffffffffffff168373ffffffffffffffffffffffffffffffffffffffff161415801561312357508273ffffffffffffffffffffffffffffffffffffffff168173ffffffffffffffffffffffffffffffffffffffff1614155b801561313657506131348184611a80565b155b1561317857826040517fa9fbf51f00000000000000000000000000000000000000000000000000000000815260040161316f9190614003565b60405180910390fd5b81156131da57838573ffffffffffffffffffffffffffffffffffffffff168273ffffffffffffffffffffffffffffffffffffffff167f8c5be1e5ebec7d5bd14f71427d1e84f3dd0314c0f7b2291e5b200ac8c7c3b92560405160405180910390a45b505b836004600085815260200190815260200160002060006101000a81548173ffffffffffffffffffffffffffffffffffffffff021916908373ffffffffffffffffffffffffffffffffffffffff16021790555050505050565b6000806132428585856135ef565b9050600073ffffffffffffffffffffffffffffffffffffffff168173ffffffffffffffffffffffffffffffffffffffff16036132865761328184613809565b6132c5565b8473ffffffffffffffffffffffffffffffffffffffff168173ffffffffffffffffffffffffffffffffffffffff16146132c4576132c38185613852565b5b5b600073ffffffffffffffffffffffffffffffffffffffff168573ffffffffffffffffffffffffffffffffffffffff160361330757613302846139b3565b613346565b8473ffffffffffffffffffffffffffffffffffffffff168173ffffffffffffffffffffffffffffffffffffffff1614613345576133448585613a84565b5b5b809150509392505050565b606061335c82612279565b506000613367612e15565b9050600081511161338757604051806020016040528060008152506133b2565b8061339184612ea7565b6040516020016133a2929190615337565b6040516020818303038152906040525b915050919050565b600080600090507a184f03e93ff9f4daa797ed6e38ed64bf6a1f0100000000000000008310613418577a184f03e93ff9f4daa797ed6e38ed64bf6a1f010000000000000000838161340e5761340d614909565b5b0492506040810190505b6d04ee2d6d415b85acef81000000008310613455576d04ee2d6d415b85acef8100000000838161344b5761344a614909565b5b0492506020810190505b662386f26fc10000831061348457662386f26fc10000838161347a57613479614909565b5b0492506010810190505b6305f5e10083106134ad576305f5e10083816134a3576134a2614909565b5b0492506008810190505b61271083106134d25761271083816134c8576134c7614909565b5b0492506004810190505b606483106134f557606483816134eb576134ea614909565b5b0492506002810190505b600a8310613504576001810190505b80915050919050565b60007f80ac58cd000000000000000000000000000000000000000000000000000000007bffffffffffffffffffffffffffffffffffffffffffffffffffffffff1916827bffffffffffffffffffffffffffffffffffffffffffffffffffffffff191614806135d857507f5b5e139f000000000000000000000000000000000000000000000000000000007bffffffffffffffffffffffffffffffffffffffffffffffffffffffff1916827bffffffffffffffffffffffffffffffffffffffffffffffffffffffff1916145b806135e857506135e782613b0f565b5b9050919050565b6000806135fb84613032565b9050600073ffffffffffffffffffffffffffffffffffffffff168373ffffffffffffffffffffffffffffffffffffffff161461363d5761363c818486613b79565b5b600073ffffffffffffffffffffffffffffffffffffffff168173ffffffffffffffffffffffffffffffffffffffff16146136ce5761367f60008560008061306f565b6001600360008373ffffffffffffffffffffffffffffffffffffffff1673ffffffffffffffffffffffffffffffffffffffff168152602001908152602001600020600082825403925050819055505b600073ffffffffffffffffffffffffffffffffffffffff168573ffffffffffffffffffffffffffffffffffffffff1614613751576001600360008773ffffffffffffffffffffffffffffffffffffffff1673ffffffffffffffffffffffffffffffffffffffff168152602001908152602001600020600082825401925050819055505b846002600086815260200190815260200160002060006101000a81548173ffffffffffffffffffffffffffffffffffffffff021916908373ffffffffffffffffffffffffffffffffffffffff160217905550838573ffffffffffffffffffffffffffffffffffffffff168273ffffffffffffffffffffffffffffffffffffffff167fddf252ad1be2c89b69c2b068fc378daa952ba7f163c4a11628f55a4df523b3ef60405160405180910390a4809150509392505050565b600980549050600a600083815260200190815260200160002081905550600981908060018154018082558091505060019003906000526020600020016000909190919091505550565b600061385d8361110e565b9050600060086000848152602001908152602001600020549050818114613942576000600760008673ffffffffffffffffffffffffffffffffffffffff1673ffffffffffffffffffffffffffffffffffffffff168152602001908152602001600020600084815260200190815260200160002054905080600760008773ffffffffffffffffffffffffffffffffffffffff1673ffffffffffffffffffffffffffffffffffffffff168152602001908152602001600020600084815260200190815260200160002081905550816008600083815260200190815260200160002081905550505b6008600084815260200190815260200160002060009055600760008573ffffffffffffffffffffffffffffffffffffffff1673ffffffffffffffffffffffffffffffffffffffff16815260200190815260200160002060008381526020019081526020016000206000905550505050565b600060016009805490506139c79190614f19565b90506000600a60008481526020019081526020016000205490506000600983815481106139f7576139f6614969565b5b906000526020600020015490508060098381548110613a1957613a18614969565b5b906000526020600020018190555081600a600083815260200190815260200160002081905550600a6000858152602001908152602001600020600090556009805480613a6857613a6761535b565b5b6001900381819060005260206000200160009055905550505050565b60006001613a918461110e565b613a9b9190614f19565b905081600760008573ffffffffffffffffffffffffffffffffffffffff1673ffffffffffffffffffffffffffffffffffffffff168152602001908152602001600020600083815260200190815260200160002081905550806008600084815260200190815260200160002081905550505050565b60007f01ffc9a7000000000000000000000000000000000000000000000000000000007bffffffffffffffffffffffffffffffffffffffffffffffffffffffff1916827bffffffffffffffffffffffffffffffffffffffffffffffffffffffff1916149050919050565b613b84838383613c3d565b613c3857600073ffffffffffffffffffffffffffffffffffffffff168373ffffffffffffffffffffffffffffffffffffffff1603613bf957806040517f7e273289000000000000000000000000000000000000000000000000000000008152600401613bf091906140c6565b60405180910390fd5b81816040517f177e802f000000000000000000000000000000000000000000000000000000008152600401613c2f929190614b0c565b60405180910390fd5b505050565b60008073ffffffffffffffffffffffffffffffffffffffff168373ffffffffffffffffffffffffffffffffffffffff1614158015613cf557508273ffffffffffffffffffffffffffffffffffffffff168473ffffffffffffffffffffffffffffffffffffffff161480613cb65750613cb58484611a80565b5b80613cf457508273ffffffffffffffffffffffffffffffffffffffff16613cdc83612301565b73ffffffffffffffffffffffffffffffffffffffff16145b5b90509392505050565b6000604051905090565b600080fd5b600080fd5b6000819050919050565b613d2581613d12565b8114613d3057600080fd5b50565b600081359050613d4281613d1c565b92915050565b600060208284031215613d5e57613d5d613d08565b5b6000613d6c84828501613d33565b91505092915050565b600081519050919050565b600082825260208201905092915050565b6000819050602082019050919050565b613daa81613d12565b82525050565b6000613dbc8383613da1565b60208301905092915050565b6000602082019050919050565b6000613de082613d75565b613dea8185613d80565b9350613df583613d91565b8060005b83811015613e26578151613e0d8882613db0565b9750613e1883613dc8565b925050600181019050613df9565b5085935050505092915050565b60006020820190508181036000830152613e4d8184613dd5565b905092915050565b60007fffffffff0000000000000000000000000000000000000000000000000000000082169050919050565b613e8a81613e55565b8114613e9557600080fd5b50565b600081359050613ea781613e81565b92915050565b600060208284031215613ec357613ec2613d08565b5b6000613ed184828501613e98565b91505092915050565b60008115159050919050565b613eef81613eda565b82525050565b6000602082019050613f0a6000830184613ee6565b92915050565b600081519050919050565b600082825260208201905092915050565b60005b83811015613f4a578082015181840152602081019050613f2f565b60008484015250505050565b6000601f19601f8301169050919050565b6000613f7282613f10565b613f7c8185613f1b565b9350613f8c818560208601613f2c565b613f9581613f56565b840191505092915050565b60006020820190508181036000830152613fba8184613f67565b905092915050565b600073ffffffffffffffffffffffffffffffffffffffff82169050919050565b6000613fed82613fc2565b9050919050565b613ffd81613fe2565b82525050565b60006020820190506140186000830184613ff4565b92915050565b61402781613fe2565b811461403257600080fd5b50565b6000813590506140448161401e565b92915050565b6000806040838503121561406157614060613d08565b5b600061406f85828601614035565b925050602061408085828601613d33565b9150509250929050565b6000602082840312156140a05761409f613d08565b5b60006140ae84828501614035565b91505092915050565b6140c081613d12565b82525050565b60006020820190506140db60008301846140b7565b92915050565b6000806000606084860312156140fa576140f9613d08565b5b600061410886828701614035565b935050602061411986828701614035565b925050604061412a86828701613d33565b9150509250925092565b60006101008201905061414a600083018b6140b7565b818103602083015261415c818a613f67565b905081810360408301526141708189613f67565b905081810360608301526141848188613f67565b905061419360808301876140b7565b6141a060a08301866140b7565b6141ad60c08301856140b7565b6141ba60e08301846140b7565b9998505050505050505050565b600080fd5b600080fd5b7f4e487b7100000000000000000000000000000000000000000000000000000000600052604160045260246000fd5b61420982613f56565b810181811067ffffffffffffffff82111715614228576142276141d1565b5b80604052505050565b600061423b613cfe565b90506142478282614200565b919050565b600067ffffffffffffffff821115614267576142666141d1565b5b61427082613f56565b9050602081019050919050565b82818337600083830152505050565b600061429f61429a8461424c565b614231565b9050828152602081018484840111156142bb576142ba6141cc565b5b6142c684828561427d565b509392505050565b600082601f8301126142e3576142e26141c7565b5b81356142f384826020860161428c565b91505092915050565b60006020828403121561431257614311613d08565b5b600082013567ffffffffffffffff8111156143305761432f613d0d565b5b61433c848285016142ce565b91505092915050565b61434e81613eda565b811461435957600080fd5b50565b60008135905061436b81614345565b92915050565b6000806040838503121561438857614387613d08565b5b600061439685828601614035565b92505060206143a78582860161435c565b9150509250929050565b6000819050919050565b6143c4816143b1565b81146143cf57600080fd5b50565b6000813590506143e1816143bb565b92915050565b6000602082840312156143fd576143fc613d08565b5b600061440b848285016143d2565b91505092915050565b600067ffffffffffffffff82111561442f5761442e6141d1565b5b61443882613f56565b9050602081019050919050565b600061445861445384614414565b614231565b905082815260208101848484011115614474576144736141cc565b5b61447f84828561427d565b509392505050565b600082601f83011261449c5761449b6141c7565b5b81356144ac848260208601614445565b91505092915050565b600080600080608085870312156144cf576144ce613d08565b5b60006144dd87828801614035565b94505060206144ee87828801614035565b93505060406144ff87828801613d33565b925050606085013567ffffffffffffffff8111156145205761451f613d0d565b5b61452c87828801614487565b91505092959194509250565b6000806040838503121561454f5761454e613d08565b5b600061455d85828601614035565b925050602061456e85828601614035565b9150509250929050565b6000806040838503121561458f5761458e613d08565b5b600061459d85828601613d33565b92505060206145ae85828601614035565b9150509250929050565b600080600080600080600060e0888a0312156145d7576145d6613d08565b5b60006145e58a828b01613d33565b975050602088013567ffffffffffffffff81111561460657614605613d0d565b5b6146128a828b016142ce565b965050604088013567ffffffffffffffff81111561463357614632613d0d565b5b61463f8a828b016142ce565b955050606088013567ffffffffffffffff8111156146605761465f613d0d565b5b61466c8a828b016142ce565b945050608061467d8a828b01613d33565b93505060a061468e8a828b01613d33565b92505060c061469f8a828b01613d33565b91505092959891949750929550565b7f4e487b7100000000000000000000000000000000000000000000000000000000600052602260045260246000fd5b600060028204905060018216806146f557607f821691505b602082108103614708576147076146ae565b5b50919050565b7f436f6e7472616374206973207061757365640000000000000000000000000000600082015250565b6000614744601283613f1b565b915061474f8261470e565b602082019050919050565b6000602082019050818103600083015261477381614737565b9050919050565b7f4e6f20506f6b656d6f6e20617661696c61626c6520746f206d696e7400000000600082015250565b60006147b0601c83613f1b565b91506147bb8261477a565b602082019050919050565b600060208201905081810360008301526147df816147a3565b9050919050565b7f496e73756666696369656e74207061796d656e74000000000000000000000000600082015250565b600061481c601483613f1b565b9150614827826147e6565b602082019050919050565b6000602082019050818103600083015261484b8161480f565b9050919050565b6000819050919050565b61486d61486882613d12565b614852565b82525050565b60008160601b9050919050565b600061488b82614873565b9050919050565b600061489d82614880565b9050919050565b6148b56148b082613fe2565b614892565b82525050565b60006148c7828761485c565b6020820191506148d7828661485c565b6020820191506148e782856148a4565b6014820191506148f7828461485c565b60208201915081905095945050505050565b7f4e487b7100000000000000000000000000000000000000000000000000000000600052601260045260246000fd5b600061494382613d12565b915061494e83613d12565b92508261495e5761495d614909565b5b828206905092915050565b7f4e487b7100000000000000000000000000000000000000000000000000000000600052603260045260246000fd5b7f4e487b7100000000000000000000000000000000000000000000000000000000600052601160045260246000fd5b60006149d282613d12565b91506149dd83613d12565b92508282019050808211156149f5576149f4614998565b5b92915050565b6000614a0682613d12565b91507fffffffffffffffffffffffffffffffffffffffffffffffffffffffffffffffff8203614a3857614a37614998565b5b600182019050919050565b7f416c6c20506f6b656d6f6e20686176652072656163686564206d6178696d756d60008201527f20737570706c7900000000000000000000000000000000000000000000000000602082015250565b6000614a9f602783613f1b565b9150614aaa82614a43565b604082019050919050565b60006020820190508181036000830152614ace81614a92565b9050919050565b6000606082019050614aea6000830186613ff4565b614af760208301856140b7565b614b046040830184613ff4565b949350505050565b6000604082019050614b216000830185613ff4565b614b2e60208301846140b7565b9392505050565b60008190508160005260206000209050919050565b60006020601f8301049050919050565b600082821b905092915050565b600060088302614b977fffffffffffffffffffffffffffffffffffffffffffffffffffffffffffffffff82614b5a565b614ba18683614b5a565b95508019841693508086168417925050509392505050565b6000819050919050565b6000614bde614bd9614bd484613d12565b614bb9565b613d12565b9050919050565b6000819050919050565b614bf883614bc3565b614c0c614c0482614be5565b848454614b67565b825550505050565b600090565b614c21614c14565b614c2c818484614bef565b505050565b5b81811015614c5057614c45600082614c19565b600181019050614c32565b5050565b601f821115614c9557614c6681614b35565b614c6f84614b4a565b81016020851015614c7e578190505b614c92614c8a85614b4a565b830182614c31565b50505b505050565b600082821c905092915050565b6000614cb860001984600802614c9a565b1980831691505092915050565b6000614cd18383614ca7565b9150826002028217905092915050565b614cea82613f10565b67ffffffffffffffff811115614d0357614d026141d1565b5b614d0d82546146dd565b614d18828285614c54565b600060209050601f831160018114614d4b5760008415614d39578287015190505b614d438582614cc5565b865550614dab565b601f198416614d5986614b35565b60005b82811015614d8157848901518255600182019150602085019450602081019050614d5c565b86831015614d9e5784890151614d9a601f891682614ca7565b8355505b6001600288020188555050505b505050505050565b7f496e76616c696420636f6d6d6974206861736800000000000000000000000000600082015250565b6000614de9601383613f1b565b9150614df482614db3565b602082019050919050565b60006020820190508181036000830152614e1881614ddc565b9050919050565b614e28816143b1565b82525050565b6000602082019050614e436000830184614e1f565b92915050565b600081905092915050565b6000614e5f82613f10565b614e698185614e49565b9350614e79818560208601613f2c565b80840191505092915050565b6000614e918285614e54565b9150614e9d82846148a4565b6014820191508190509392505050565b7f4e6f206d61746368696e6720636f6d6d697420666f756e640000000000000000600082015250565b6000614ee3601883613f1b565b9150614eee82614ead565b602082019050919050565b60006020820190508181036000830152614f1281614ed6565b9050919050565b6000614f2482613d12565b9150614f2f83613d12565b9250828203905081811115614f4757614f46614998565b5b92915050565b6000819050919050565b614f68614f63826143b1565b614f4d565b82525050565b6000614f7a8287614e54565b9150614f868286614f57565b602082019150614f96828561485c565b602082019150614fa682846148a4565b60148201915081905095945050505050565b7f506f6b656d6f6e20646f6573206e6f7420657869737400000000000000000000600082015250565b6000614fee601683613f1b565b9150614ff982614fb8565b602082019050919050565b6000602082019050818103600083015261501d81614fe1565b9050919050565b7f4d6178696d756d20737570706c79207265616368656420666f7220746869732060008201527f506f6b656d6f6e00000000000000000000000000000000000000000000000000602082015250565b6000615080602783613f1b565b915061508b82615024565b604082019050919050565b600060208201905081810360008301526150af81615073565b9050919050565b7f2e6a736f6e000000000000000000000000000000000000000000000000000000600082015250565b60006150ec600583614e49565b91506150f7826150b6565b600582019050919050565b600061510e8285614e54565b915061511a8284614e54565b9150615125826150df565b91508190509392505050565b6000815461513e816146dd565b6151488186613f1b565b945060018216600081146151635760018114615179576151ac565b60ff1983168652811515602002860193506151ac565b61518285614b35565b60005b838110156151a457815481890152600182019150602081019050615185565b808801955050505b50505092915050565b60006080820190506151ca60008301876140b7565b6151d760208301866140b7565b81810360408301526151e98185615131565b90506151f86060830184613ff4565b95945050505050565b600060808201905061521660008301876140b7565b81810360208301526152288186613f67565b9050818103604083015261523c8185613f67565b905061524b60608301846140b7565b95945050505050565b600081519050919050565b600082825260208201905092915050565b600061527b82615254565b615285818561525f565b9350615295818560208601613f2c565b61529e81613f56565b840191505092915050565b60006080820190506152be6000830187613ff4565b6152cb6020830186613ff4565b6152d860408301856140b7565b81810360608301526152ea8184615270565b905095945050505050565b60008151905061530481613e81565b92915050565b6000602082840312156153205761531f613d08565b5b600061532e848285016152f5565b91505092915050565b60006153438285614e54565b915061534f8284614e54565b91508190509392505050565b7f4e487b7100000000000000000000000000000000000000000000000000000000600052603160045260246000fdfea2646970667358221220aebb11c002c2081033983527242ab5b3178dab231f37f65cd53fc7d0d476c5cf64736f6c63430008140033",
  "linkReferences": {},
  "deployedLinkReferences": {}
}