{
  "_format": "hh-sol-artifact-1",
  "contractName": "PokemonNFT",
  "sourceName": "contracts/PokemonNFT.sol",
  "abi": [
    {
      "inputs": [
        {
          "internalType": "string",
          "name": "baseURI",
          "type": "string"
        }
      ],
      "stateMutability": "nonpayable",
      "type": "constructor"
    },
    {
      "inputs": [],
      "name": "ERC721EnumerableForbiddenBatchMint",
      "type": "error"
    },
    {
      "inputs": [
        {
          "internalType": "address",
          "name": "sender",
          "type": "address"
        },
        {
          "internalType": "uint256",
          "name": "tokenId",
          "type": "uint256"
        },
        {
          "internalType": "address",
          "name": "owner",
          "type": "address"
        }
      ],
      "name": "ERC721IncorrectOwner",
      "type": "error"
    },
    {
      "inputs": [
        {
          "internalType": "address",
          "name": "operator",
          "type": "address"
        },
        {
          "internalType": "uint256",
          "name": "tokenId",
          "type": "uint256"
        }
      ],
      "name": "ERC721InsufficientApproval",
      "type": "error"
    },
    {
      "inputs": [
        {
          "internalType": "address",
          "name": "approver",
          "type": "address"
        }
      ],
      "name": "ERC721InvalidApprover",
      "type": "error"
    },
    {
      "inputs": [
        {
          "internalType": "address",
          "name": "operator",
          "type": "address"
        }
      ],
      "name": "ERC721InvalidOperator",
      "type": "error"
    },
    {
      "inputs": [
        {
          "internalType": "address",
          "name": "owner",
          "type": "address"
        }
      ],
      "name": "ERC721InvalidOwner",
      "type": "error"
    },
    {
      "inputs": [
        {
          "internalType": "address",
          "name": "receiver",
          "type": "address"
        }
      ],
      "name": "ERC721InvalidReceiver",
      "type": "error"
    },
    {
      "inputs": [
        {
          "internalType": "address",
          "name": "sender",
          "type": "address"
        }
      ],
      "name": "ERC721InvalidSender",
      "type": "error"
    },
    {
      "inputs": [
        {
          "internalType": "uint256",
          "name": "tokenId",
          "type": "uint256"
        }
      ],
      "name": "ERC721NonexistentToken",
      "type": "error"
    },
    {
      "inputs": [
        {
          "internalType": "address",
          "name": "owner",
          "type": "address"
        },
        {
          "internalType": "uint256",
          "name": "index",
          "type": "uint256"
        }
      ],
      "name": "ERC721OutOfBoundsIndex",
      "type": "error"
    },
    {
      "inputs": [
        {
          "internalType": "address",
          "name": "owner",
          "type": "address"
        }
      ],
      "name": "OwnableInvalidOwner",
      "type": "error"
    },
    {
      "inputs": [
        {
          "internalType": "address",
          "name": "account",
          "type": "address"
        }
      ],
      "name": "OwnableUnauthorizedAccount",
      "type": "error"
    },
    {
      "anonymous": false,
      "inputs": [
        {
          "indexed": true,
          "internalType": "address",
          "name": "owner",
          "type": "address"
        },
        {
          "indexed": true,
          "internalType": "address",
          "name": "approved",
          "type": "address"
        },
        {
          "indexed": true,
          "internalType": "uint256",
          "name": "tokenId",
          "type": "uint256"
        }
      ],
      "name": "Approval",
      "type": "event"
    },
    {
      "anonymous": false,
      "inputs": [
        {
          "indexed": true,
          "internalType": "address",
          "name": "owner",
          "type": "address"
        },
        {
          "indexed": true,
          "internalType": "address",
          "name": "operator",
          "type": "address"
        },
        {
          "indexed": false,
          "internalType": "bool",
          "name": "approved",
          "type": "bool"
        }
      ],
      "name": "ApprovalForAll",
      "type": "event"
    },
    {
      "anonymous": false,
      "inputs": [
        {
          "indexed": false,
          "internalType": "uint256",
          "name": "_fromTokenId",
          "type": "uint256"
        },
        {
          "indexed": false,
          "internalType": "uint256",
          "name": "_toTokenId",
          "type": "uint256"
        }
      ],
      "name": "BatchMetadataUpdate",
      "type": "event"
    },
    {
      "anonymous": false,
      "inputs": [
        {
          "indexed": false,
          "internalType": "uint256",
          "name": "_tokenId",
          "type": "uint256"
        }
      ],
      "name": "MetadataUpdate",
      "type": "event"
    },
    {
      "anonymous": false,
      "inputs": [
        {
          "indexed": true,
          "internalType": "address",
          "name": "previousOwner",
          "type": "address"
        },
        {
          "indexed": true,
          "internalType": "address",
          "name": "newOwner",
          "type": "address"
        }
      ],
      "name": "OwnershipTransferred",
      "type": "event"
    },
    {
      "anonymous": false,
      "inputs": [
        {
          "indexed": false,
          "internalType": "uint256",
          "name": "pokemonId",
          "type": "uint256"
        },
        {
          "indexed": false,
          "internalType": "string",
          "name": "name",
          "type": "string"
        },
        {
          "indexed": false,
          "internalType": "string",
          "name": "rarity",
          "type": "string"
        },
        {
          "indexed": false,
          "internalType": "uint256",
          "name": "maxSupply",
          "type": "uint256"
        }
      ],
      "name": "PokemonAdded",
      "type": "event"
    },
    {
      "anonymous": false,
      "inputs": [
        {
          "indexed": false,
          "internalType": "uint256",
          "name": "tokenId",
          "type": "uint256"
        },
        {
          "indexed": false,
          "internalType": "uint256",
          "name": "pokemonId",
          "type": "uint256"
        },
        {
          "indexed": false,
          "internalType": "string",
          "name": "name",
          "type": "string"
        },
        {
          "indexed": false,
          "internalType": "address",
          "name": "owner",
          "type": "address"
        }
      ],
      "name": "PokemonMinted",
      "type": "event"
    },
    {
      "anonymous": false,
      "inputs": [
        {
          "indexed": true,
          "internalType": "address",
          "name": "from",
          "type": "address"
        },
        {
          "indexed": true,
          "internalType": "address",
          "name": "to",
          "type": "address"
        },
        {
          "indexed": true,
          "internalType": "uint256",
          "name": "tokenId",
          "type": "uint256"
        }
      ],
      "name": "Transfer",
      "type": "event"
    },
    {
      "inputs": [
        {
          "internalType": "uint256",
          "name": "pokemonId",
          "type": "uint256"
        },
        {
          "internalType": "string",
          "name": "name",
          "type": "string"
        },
        {
          "internalType": "string",
          "name": "pokemonType",
          "type": "string"
        },
        {
          "internalType": "string",
          "name": "rarity",
          "type": "string"
        },
        {
          "internalType": "uint256",
          "name": "attack",
          "type": "uint256"
        },
        {
          "internalType": "uint256",
          "name": "defense",
          "type": "uint256"
        },
        {
          "internalType": "uint256",
          "name": "maxSupply",
          "type": "uint256"
        }
      ],
      "name": "addPokemon",
      "outputs": [],
      "stateMutability": "nonpayable",
      "type": "function"
    },
    {
      "inputs": [
        {
          "internalType": "address",
          "name": "to",
          "type": "address"
        },
        {
          "internalType": "uint256",
          "name": "tokenId",
          "type": "uint256"
        }
      ],
      "name": "approve",
      "outputs": [],
      "stateMutability": "nonpayable",
      "type": "function"
    },
    {
      "inputs": [
        {
          "internalType": "uint256",
          "name": "",
          "type": "uint256"
        }
      ],
      "name": "availablePokemon",
      "outputs": [
        {
          "internalType": "uint256",
          "name": "pokemonId",
          "type": "uint256"
        },
        {
          "internalType": "string",
          "name": "name",
          "type": "string"
        },
        {
          "internalType": "string",
          "name": "pokemonType",
          "type": "string"
        },
        {
          "internalType": "string",
          "name": "rarity",
          "type": "string"
        },
        {
          "internalType": "uint256",
          "name": "attack",
          "type": "uint256"
        },
        {
          "internalType": "uint256",
          "name": "defense",
          "type": "uint256"
        },
        {
          "internalType": "uint256",
          "name": "maxSupply",
          "type": "uint256"
        },
        {
          "internalType": "uint256",
          "name": "currentSupply",
          "type": "uint256"
        }
      ],
      "stateMutability": "view",
      "type": "function"
    },
    {
      "inputs": [
        {
          "internalType": "address",
          "name": "owner",
          "type": "address"
        }
      ],
      "name": "balanceOf",
      "outputs": [
        {
          "internalType": "uint256",
          "name": "",
          "type": "uint256"
        }
      ],
      "stateMutability": "view",
      "type": "function"
    },
    {
      "inputs": [
        {
          "internalType": "uint256",
          "name": "tokenId",
          "type": "uint256"
        }
      ],
      "name": "getApproved",
      "outputs": [
        {
          "internalType": "address",
          "name": "",
          "type": "address"
        }
      ],
      "stateMutability": "view",
      "type": "function"
    },
    {
      "inputs": [],
      "name": "getAvailablePokemonCount",
      "outputs": [
        {
          "internalType": "uint256",
          "name": "",
          "type": "uint256"
        }
      ],
      "stateMutability": "view",
      "type": "function"
    },
    {
      "inputs": [
        {
          "internalType": "uint256",
          "name": "pokemonId",
          "type": "uint256"
        }
      ],
      "name": "getTokenIdsByPokemonId",
      "outputs": [
        {
          "internalType": "uint256[]",
          "name": "",
          "type": "uint256[]"
        }
      ],
      "stateMutability": "view",
      "type": "function"
    },
    {
      "inputs": [
        {
          "internalType": "address",
          "name": "owner",
          "type": "address"
        },
        {
          "internalType": "address",
          "name": "operator",
          "type": "address"
        }
      ],
      "name": "isApprovedForAll",
      "outputs": [
        {
          "internalType": "bool",
          "name": "",
          "type": "bool"
        }
      ],
      "stateMutability": "view",
      "type": "function"
    },
    {
      "inputs": [
        {
          "internalType": "uint256",
          "name": "pokemonIndex",
          "type": "uint256"
        },
        {
          "internalType": "address",
          "name": "recipient",
          "type": "address"
        }
      ],
      "name": "mintPokemon",
      "outputs": [
        {
          "internalType": "uint256",
          "name": "",
          "type": "uint256"
        }
      ],
      "stateMutability": "payable",
      "type": "function"
    },
    {
      "inputs": [],
      "name": "mintPrice",
      "outputs": [
        {
          "internalType": "uint256",
          "name": "",
          "type": "uint256"
        }
      ],
      "stateMutability": "view",
      "type": "function"
    },
    {
      "inputs": [
        {
          "internalType": "address",
          "name": "recipient",
          "type": "address"
        }
      ],
      "name": "mintRandomPokemon",
      "outputs": [
        {
          "internalType": "uint256",
          "name": "",
          "type": "uint256"
        }
      ],
      "stateMutability": "payable",
      "type": "function"
    },
    {
      "inputs": [],
      "name": "name",
      "outputs": [
        {
          "internalType": "string",
          "name": "",
          "type": "string"
        }
      ],
      "stateMutability": "view",
      "type": "function"
    },
    {
      "inputs": [],
      "name": "owner",
      "outputs": [
        {
          "internalType": "address",
          "name": "",
          "type": "address"
        }
      ],
      "stateMutability": "view",
      "type": "function"
    },
    {
      "inputs": [
        {
          "internalType": "uint256",
          "name": "tokenId",
          "type": "uint256"
        }
      ],
      "name": "ownerOf",
      "outputs": [
        {
          "internalType": "address",
          "name": "",
          "type": "address"
        }
      ],
      "stateMutability": "view",
      "type": "function"
    },
    {
      "inputs": [
        {
          "internalType": "uint256",
          "name": "",
          "type": "uint256"
        }
      ],
      "name": "pokemonData",
      "outputs": [
        {
          "internalType": "uint256",
          "name": "pokemonId",
          "type": "uint256"
        },
        {
          "internalType": "string",
          "name": "name",
          "type": "string"
        },
        {
          "internalType": "string",
          "name": "pokemonType",
          "type": "string"
        },
        {
          "internalType": "string",
          "name": "rarity",
          "type": "string"
        },
        {
          "internalType": "uint256",
          "name": "attack",
          "type": "uint256"
        },
        {
          "internalType": "uint256",
          "name": "defense",
          "type": "uint256"
        },
        {
          "internalType": "uint256",
          "name": "maxSupply",
          "type": "uint256"
        },
        {
          "internalType": "uint256",
          "name": "currentSupply",
          "type": "uint256"
        }
      ],
      "stateMutability": "view",
      "type": "function"
    },
    {
      "inputs": [],
      "name": "renounceOwnership",
      "outputs": [],
      "stateMutability": "nonpayable",
      "type": "function"
    },
    {
      "inputs": [
        {
          "internalType": "address",
          "name": "from",
          "type": "address"
        },
        {
          "internalType": "address",
          "name": "to",
          "type": "address"
        },
        {
          "internalType": "uint256",
          "name": "tokenId",
          "type": "uint256"
        }
      ],
      "name": "safeTransferFrom",
      "outputs": [],
      "stateMutability": "nonpayable",
      "type": "function"
    },
    {
      "inputs": [
        {
          "internalType": "address",
          "name": "from",
          "type": "address"
        },
        {
          "internalType": "address",
          "name": "to",
          "type": "address"
        },
        {
          "internalType": "uint256",
          "name": "tokenId",
          "type": "uint256"
        },
        {
          "internalType": "bytes",
          "name": "data",
          "type": "bytes"
        }
      ],
      "name": "safeTransferFrom",
      "outputs": [],
      "stateMutability": "nonpayable",
      "type": "function"
    },
    {
      "inputs": [
        {
          "internalType": "address",
          "name": "operator",
          "type": "address"
        },
        {
          "internalType": "bool",
          "name": "approved",
          "type": "bool"
        }
      ],
      "name": "setApprovalForAll",
      "outputs": [],
      "stateMutability": "nonpayable",
      "type": "function"
    },
    {
      "inputs": [
        {
          "internalType": "string",
          "name": "baseURI",
          "type": "string"
        }
      ],
      "name": "setBaseURI",
      "outputs": [],
      "stateMutability": "nonpayable",
      "type": "function"
    },
    {
      "inputs": [
        {
          "internalType": "uint256",
          "name": "_mintPrice",
          "type": "uint256"
        }
      ],
      "name": "setMintPrice",
      "outputs": [],
      "stateMutability": "nonpayable",
      "type": "function"
    },
    {
      "inputs": [],
      "name": "simpleMint",
      "outputs": [
        {
          "internalType": "uint256",
          "name": "",
          "type": "uint256"
        }
      ],
      "stateMutability": "payable",
      "type": "function"
    },
    {
      "inputs": [
        {
          "internalType": "bytes4",
          "name": "interfaceId",
          "type": "bytes4"
        }
      ],
      "name": "supportsInterface",
      "outputs": [
        {
          "internalType": "bool",
          "name": "",
          "type": "bool"
        }
      ],
      "stateMutability": "view",
      "type": "function"
    },
    {
      "inputs": [],
      "name": "symbol",
      "outputs": [
        {
          "internalType": "string",
          "name": "",
          "type": "string"
        }
      ],
      "stateMutability": "view",
      "type": "function"
    },
    {
      "inputs": [
        {
          "internalType": "uint256",
          "name": "index",
          "type": "uint256"
        }
      ],
      "name": "tokenByIndex",
      "outputs": [
        {
          "internalType": "uint256",
          "name": "",
          "type": "uint256"
        }
      ],
      "stateMutability": "view",
      "type": "function"
    },
    {
      "inputs": [
        {
          "internalType": "address",
          "name": "owner",
          "type": "address"
        },
        {
          "internalType": "uint256",
          "name": "index",
          "type": "uint256"
        }
      ],
      "name": "tokenOfOwnerByIndex",
      "outputs": [
        {
          "internalType": "uint256",
          "name": "",
          "type": "uint256"
        }
      ],
      "stateMutability": "view",
      "type": "function"
    },
    {
      "inputs": [
        {
          "internalType": "uint256",
          "name": "tokenId",
          "type": "uint256"
        }
      ],
      "name": "tokenURI",
      "outputs": [
        {
          "internalType": "string",
          "name": "",
          "type": "string"
        }
      ],
      "stateMutability": "view",
      "type": "function"
    },
    {
      "inputs": [],
      "name": "totalSupply",
      "outputs": [
        {
          "internalType": "uint256",
          "name": "",
          "type": "uint256"
        }
      ],
      "stateMutability": "view",
      "type": "function"
    },
    {
      "inputs": [
        {
          "internalType": "address",
          "name": "from",
          "type": "address"
        },
        {
          "internalType": "address",
          "name": "to",
          "type": "address"
        },
        {
          "internalType": "uint256",
          "name": "tokenId",
          "type": "uint256"
        }
      ],
      "name": "transferFrom",
      "outputs": [],
      "stateMutability": "nonpayable",
      "type": "function"
    },
    {
      "inputs": [
        {
          "internalType": "address",
          "name": "newOwner",
          "type": "address"
        }
      ],
      "name": "transferOwnership",
      "outputs": [],
      "stateMutability": "nonpayable",
      "type": "function"
    },
    {
      "inputs": [],
      "name": "withdraw",
      "outputs": [],
      "stateMutability": "nonpayable",
      "type": "function"
    }
  ],
  "bytecode": "0x6080604052662386f26fc100006011553480156200001c57600080fd5b5060405162005064380380620050648339818101604052810190620000429190620003ce565b336040518060400160405280600c81526020017f506f6b656d6f6e436172647300000000000000000000000000000000000000008152506040518060400160405280600481526020017f504b4d4e000000000000000000000000000000000000000000000000000000008152508160009081620000c091906200066a565b508060019081620000d291906200066a565b505050600073ffffffffffffffffffffffffffffffffffffffff168173ffffffffffffffffffffffffffffffffffffffff16036200014a5760006040517f1e4fbdf700000000000000000000000000000000000000000000000000000000815260040162000141919062000796565b60405180910390fd5b6200015b816200017560201b60201c565b5080601090816200016d91906200066a565b5050620007b3565b6000600b60009054906101000a900473ffffffffffffffffffffffffffffffffffffffff16905081600b60006101000a81548173ffffffffffffffffffffffffffffffffffffffff021916908373ffffffffffffffffffffffffffffffffffffffff1602179055508173ffffffffffffffffffffffffffffffffffffffff168173ffffffffffffffffffffffffffffffffffffffff167f8be0079c531659141344cd1fd0a4f28419497f9722a3daafe3b4186f6b6457e060405160405180910390a35050565b6000604051905090565b600080fd5b600080fd5b600080fd5b600080fd5b6000601f19601f8301169050919050565b7f4e487b7100000000000000000000000000000000000000000000000000000000600052604160045260246000fd5b620002a48262000259565b810181811067ffffffffffffffff82111715620002c657620002c56200026a565b5b80604052505050565b6000620002db6200023b565b9050620002e9828262000299565b919050565b600067ffffffffffffffff8211156200030c576200030b6200026a565b5b620003178262000259565b9050602081019050919050565b60005b838110156200034457808201518184015260208101905062000327565b60008484015250505050565b6000620003676200036184620002ee565b620002cf565b90508281526020810184848401111562000386576200038562000254565b5b6200039384828562000324565b509392505050565b600082601f830112620003b357620003b26200024f565b5b8151620003c584826020860162000350565b91505092915050565b600060208284031215620003e757620003e662000245565b5b600082015167ffffffffffffffff8111156200040857620004076200024a565b5b62000416848285016200039b565b91505092915050565b600081519050919050565b7f4e487b7100000000000000000000000000000000000000000000000000000000600052602260045260246000fd5b600060028204905060018216806200047257607f821691505b6020821081036200048857620004876200042a565b5b50919050565b60008190508160005260206000209050919050565b60006020601f8301049050919050565b600082821b905092915050565b600060088302620004f27fffffffffffffffffffffffffffffffffffffffffffffffffffffffffffffffff82620004b3565b620004fe8683620004b3565b95508019841693508086168417925050509392505050565b6000819050919050565b6000819050919050565b60006200054b620005456200053f8462000516565b62000520565b62000516565b9050919050565b6000819050919050565b62000567836200052a565b6200057f620005768262000552565b848454620004c0565b825550505050565b600090565b6200059662000587565b620005a38184846200055c565b505050565b5b81811015620005cb57620005bf6000826200058c565b600181019050620005a9565b5050565b601f8211156200061a57620005e4816200048e565b620005ef84620004a3565b81016020851015620005ff578190505b620006176200060e85620004a3565b830182620005a8565b50505b505050565b600082821c905092915050565b60006200063f600019846008026200061f565b1980831691505092915050565b60006200065a83836200062c565b9150826002028217905092915050565b62000675826200041f565b67ffffffffffffffff8111156200069157620006906200026a565b5b6200069d825462000459565b620006aa828285620005cf565b600060209050601f831160018114620006e25760008415620006cd578287015190505b620006d985826200064c565b86555062000749565b601f198416620006f2866200048e565b60005b828110156200071c57848901518255600182019150602085019450602081019050620006f5565b868310156200073c578489015162000738601f8916826200062c565b8355505b6001600288020188555050505b505050505050565b600073ffffffffffffffffffffffffffffffffffffffff82169050919050565b60006200077e8262000751565b9050919050565b620007908162000771565b82525050565b6000602082019050620007ad600083018462000785565b92915050565b6148a180620007c36000396000f3fe6080604052600436106101d85760003560e01c80636817c76c11610102578063c1b2c1ae11610095578063f2fde38b11610064578063f2fde38b146106fe578063f4a0a52814610727578063fb3599b314610750578063ff04921914610780576101d8565b8063c1b2c1ae14610622578063c87b56dd14610666578063d607f317146106a3578063e985e9c5146106c1576101d8565b80638da5cb5b116100d15780638da5cb5b1461057a57806395d89b41146105a5578063a22cb465146105d0578063b88d4fde146105f9576101d8565b80636817c76c146104d05780636c9b1baa146104fb57806370a0823114610526578063715018a614610563576101d8565b806323b872dd1161017a5780634f6ccce7116101495780634f6ccce7146103e957806351977eb31461042657806355f804b31461046a5780636352211e14610493576101d8565b806323b872dd146103435780632f745c591461036c5780633ccfd60b146103a957806342842e0e146103c0576101d8565b8063081812fc116101b6578063081812fc14610282578063095ea7b3146102bf57806313b65ab7146102e857806318160ddd14610318576101d8565b806301c0f787146101dd57806301ffc9a71461021a57806306fdde0314610257575b600080fd5b3480156101e957600080fd5b5061020460048036038101906101ff9190613508565b6107a9565b60405161021191906135f3565b60405180910390f35b34801561022657600080fd5b50610241600480360381019061023c919061366d565b610814565b60405161024e91906136b5565b60405180910390f35b34801561026357600080fd5b5061026c610826565b6040516102799190613760565b60405180910390f35b34801561028e57600080fd5b506102a960048036038101906102a49190613508565b6108b8565b6040516102b691906137c3565b60405180910390f35b3480156102cb57600080fd5b506102e660048036038101906102e1919061380a565b6108d4565b005b61030260048036038101906102fd919061384a565b6108ea565b60405161030f9190613886565b60405180910390f35b34801561032457600080fd5b5061032d610aa5565b60405161033a9190613886565b60405180910390f35b34801561034f57600080fd5b5061036a600480360381019061036591906138a1565b610ab2565b005b34801561037857600080fd5b50610393600480360381019061038e919061380a565b610bb4565b6040516103a09190613886565b60405180910390f35b3480156103b557600080fd5b506103be610c5d565b005b3480156103cc57600080fd5b506103e760048036038101906103e291906138a1565b610cb5565b005b3480156103f557600080fd5b50610410600480360381019061040b9190613508565b610cd5565b60405161041d9190613886565b60405180910390f35b34801561043257600080fd5b5061044d60048036038101906104489190613508565b610d4b565b6040516104619897969594939291906138f4565b60405180910390f35b34801561047657600080fd5b50610491600480360381019061048c9190613abc565b610f3b565b005b34801561049f57600080fd5b506104ba60048036038101906104b59190613508565b610f56565b6040516104c791906137c3565b60405180910390f35b3480156104dc57600080fd5b506104e5610f68565b6040516104f29190613886565b60405180910390f35b34801561050757600080fd5b50610510610f6e565b60405161051d9190613886565b60405180910390f35b34801561053257600080fd5b5061054d6004803603810190610548919061384a565b610f7b565b60405161055a9190613886565b60405180910390f35b34801561056f57600080fd5b50610578611035565b005b34801561058657600080fd5b5061058f611049565b60405161059c91906137c3565b60405180910390f35b3480156105b157600080fd5b506105ba611073565b6040516105c79190613760565b60405180910390f35b3480156105dc57600080fd5b506105f760048036038101906105f29190613b31565b611105565b005b34801561060557600080fd5b50610620600480360381019061061b9190613c12565b61111b565b005b34801561062e57600080fd5b5061064960048036038101906106449190613508565b611138565b60405161065d9897969594939291906138f4565b60405180910390f35b34801561067257600080fd5b5061068d60048036038101906106889190613508565b611318565b60405161069a9190613760565b60405180910390f35b6106ab61132a565b6040516106b89190613886565b60405180910390f35b3480156106cd57600080fd5b506106e860048036038101906106e39190613c95565b6113c8565b6040516106f591906136b5565b60405180910390f35b34801561070a57600080fd5b506107256004803603810190610720919061384a565b61145c565b005b34801561073357600080fd5b5061074e60048036038101906107499190613508565b6114e2565b005b61076a60048036038101906107659190613cd5565b6114f4565b6040516107779190613886565b60405180910390f35b34801561078c57600080fd5b506107a760048036038101906107a29190613d15565b611979565b005b6060600e600083815260200190815260200160002080548060200260200160405190810160405280929190818152602001828054801561080857602002820191906000526020600020905b8154815260200190600101908083116107f4575b50505050509050919050565b600061081f82611aa9565b9050919050565b60606000805461083590613e3a565b80601f016020809104026020016040519081016040528092919081815260200182805461086190613e3a565b80156108ae5780601f10610883576101008083540402835291602001916108ae565b820191906000526020600020905b81548152906001019060200180831161089157829003601f168201915b5050505050905090565b60006108c382611b23565b506108cd82611bab565b9050919050565b6108e682826108e1611be8565b611bf0565b5050565b600080600f8054905011610933576040517f08c379a000000000000000000000000000000000000000000000000000000000815260040161092a90613eb7565b60405180910390fd5b601154341015610978576040517f08c379a000000000000000000000000000000000000000000000000000000000815260040161096f90613f23565b60405180910390fd5b6000600f8054905042443361098d600c611c02565b6040516020016109a09493929190613fac565b6040516020818303038152906040528051906020012060001c6109c39190614029565b905060005b600f82815481106109dc576109db61405a565b5b906000526020600020906008020160060154600f8381548110610a0257610a0161405a565b5b90600052602060002090600802016007015410610a9257600f80549050600183610a2c91906140b8565b610a369190614029565b91508080610a43906140ec565b915050600f805490508110610a8d576040517f08c379a0000000000000000000000000000000000000000000000000000000008152600401610a84906141a6565b60405180910390fd5b6109c8565b610a9c8285611c10565b92505050919050565b6000600980549050905090565b600073ffffffffffffffffffffffffffffffffffffffff168273ffffffffffffffffffffffffffffffffffffffff1603610b245760006040517f64a0ae92000000000000000000000000000000000000000000000000000000008152600401610b1b91906137c3565b60405180910390fd5b6000610b388383610b33611be8565b611f7d565b90508373ffffffffffffffffffffffffffffffffffffffff168173ffffffffffffffffffffffffffffffffffffffff1614610bae578382826040517f64283d7b000000000000000000000000000000000000000000000000000000008152600401610ba5939291906141c6565b60405180910390fd5b50505050565b6000610bbf83610f7b565b8210610c045782826040517fa57d13dc000000000000000000000000000000000000000000000000000000008152600401610bfb9291906141fd565b60405180910390fd5b600760008473ffffffffffffffffffffffffffffffffffffffff1673ffffffffffffffffffffffffffffffffffffffff168152602001908152602001600020600083815260200190815260200160002054905092915050565b610c65611f93565b610c6d611049565b73ffffffffffffffffffffffffffffffffffffffff166108fc479081150290604051600060405180830381858888f19350505050158015610cb2573d6000803e3d6000fd5b50565b610cd08383836040518060200160405280600081525061111b565b505050565b6000610cdf610aa5565b8210610d25576000826040517fa57d13dc000000000000000000000000000000000000000000000000000000008152600401610d1c9291906141fd565b60405180910390fd5b60098281548110610d3957610d3861405a565b5b90600052602060002001549050919050565b600f8181548110610d5b57600080fd5b9060005260206000209060080201600091509050806000015490806001018054610d8490613e3a565b80601f0160208091040260200160405190810160405280929190818152602001828054610db090613e3a565b8015610dfd5780601f10610dd257610100808354040283529160200191610dfd565b820191906000526020600020905b815481529060010190602001808311610de057829003601f168201915b505050505090806002018054610e1290613e3a565b80601f0160208091040260200160405190810160405280929190818152602001828054610e3e90613e3a565b8015610e8b5780601f10610e6057610100808354040283529160200191610e8b565b820191906000526020600020905b815481529060010190602001808311610e6e57829003601f168201915b505050505090806003018054610ea090613e3a565b80601f0160208091040260200160405190810160405280929190818152602001828054610ecc90613e3a565b8015610f195780601f10610eee57610100808354040283529160200191610f19565b820191906000526020600020905b815481529060010190602001808311610efc57829003601f168201915b5050505050908060040154908060050154908060060154908060070154905088565b610f43611f93565b8060109081610f5291906143d2565b5050565b6000610f6182611b23565b9050919050565b60115481565b6000600f80549050905090565b60008073ffffffffffffffffffffffffffffffffffffffff168273ffffffffffffffffffffffffffffffffffffffff1603610fee5760006040517f89c62b64000000000000000000000000000000000000000000000000000000008152600401610fe591906137c3565b60405180910390fd5b600360008373ffffffffffffffffffffffffffffffffffffffff1673ffffffffffffffffffffffffffffffffffffffff168152602001908152602001600020549050919050565b61103d611f93565b611047600061201a565b565b6000600b60009054906101000a900473ffffffffffffffffffffffffffffffffffffffff16905090565b60606001805461108290613e3a565b80601f01602080910402602001604051908101604052809291908181526020018280546110ae90613e3a565b80156110fb5780601f106110d0576101008083540402835291602001916110fb565b820191906000526020600020905b8154815290600101906020018083116110de57829003601f168201915b5050505050905090565b611117611110611be8565b83836120e0565b5050565b611126848484610ab2565b6111328484848461224f565b50505050565b600d60205280600052604060002060009150905080600001549080600101805461116190613e3a565b80601f016020809104026020016040519081016040528092919081815260200182805461118d90613e3a565b80156111da5780601f106111af576101008083540402835291602001916111da565b820191906000526020600020905b8154815290600101906020018083116111bd57829003601f168201915b5050505050908060020180546111ef90613e3a565b80601f016020809104026020016040519081016040528092919081815260200182805461121b90613e3a565b80156112685780601f1061123d57610100808354040283529160200191611268565b820191906000526020600020905b81548152906001019060200180831161124b57829003601f168201915b50505050509080600301805461127d90613e3a565b80601f01602080910402602001604051908101604052809291908181526020018280546112a990613e3a565b80156112f65780601f106112cb576101008083540402835291602001916112f6565b820191906000526020600020905b8154815290600101906020018083116112d957829003601f168201915b5050505050908060040154908060050154908060060154908060070154905088565b606061132382612406565b9050919050565b600080600f8054905011611373576040517f08c379a000000000000000000000000000000000000000000000000000000000815260040161136a90613eb7565b60405180910390fd5b6011543410156113b8576040517f08c379a00000000000000000000000000000000000000000000000000000000081526004016113af90613f23565b60405180910390fd5b6113c36000336114f4565b905090565b6000600560008473ffffffffffffffffffffffffffffffffffffffff1673ffffffffffffffffffffffffffffffffffffffff16815260200190815260200160002060008373ffffffffffffffffffffffffffffffffffffffff1673ffffffffffffffffffffffffffffffffffffffff16815260200190815260200160002060009054906101000a900460ff16905092915050565b611464611f93565b600073ffffffffffffffffffffffffffffffffffffffff168173ffffffffffffffffffffffffffffffffffffffff16036114d65760006040517f1e4fbdf70000000000000000000000000000000000000000000000000000000081526004016114cd91906137c3565b60405180910390fd5b6114df8161201a565b50565b6114ea611f93565b8060118190555050565b6000600f80549050831061153d576040517f08c379a0000000000000000000000000000000000000000000000000000000008152600401611534906144f0565b60405180910390fd5b600f83815481106115515761155061405a565b5b906000526020600020906008020160060154600f84815481106115775761157661405a565b5b906000526020600020906008020160070154106115c9576040517f08c379a00000000000000000000000000000000000000000000000000000000081526004016115c090614582565b60405180910390fd5b60115434101561160e576040517f08c379a000000000000000000000000000000000000000000000000000000000815260040161160590613f23565b60405180910390fd5b611618600c612519565b6000611624600c611c02565b90506000600f858154811061163c5761163b61405a565b5b90600052602060002090600802019050806007016000815480929190611661906140ec565b91905055506116708483612538565b6040518061010001604052808260000154815260200182600101805461169590613e3a565b80601f01602080910402602001604051908101604052809291908181526020018280546116c190613e3a565b801561170e5780601f106116e35761010080835404028352916020019161170e565b820191906000526020600020905b8154815290600101906020018083116116f157829003601f168201915b5050505050815260200182600201805461172790613e3a565b80601f016020809104026020016040519081016040528092919081815260200182805461175390613e3a565b80156117a05780601f10611775576101008083540402835291602001916117a0565b820191906000526020600020905b81548152906001019060200180831161178357829003601f168201915b505050505081526020018260030180546117b990613e3a565b80601f01602080910402602001604051908101604052809291908181526020018280546117e590613e3a565b80156118325780601f1061180757610100808354040283529160200191611832565b820191906000526020600020905b81548152906001019060200180831161181557829003601f168201915b505050505081526020018260040154815260200182600501548152602001826006015481526020018260070154815250600d600084815260200190815260200160002060008201518160000155602082015181600101908161189491906143d2565b5060408201518160020190816118aa91906143d2565b5060608201518160030190816118c091906143d2565b506080820151816004015560a0820151816005015560c0820151816006015560e08201518160070155905050600e6000826000015481526020019081526020016000208290806001815401808255809150506001900390600052602060002001600090919091909150557feebfd76b8c41858f758eb77a04586bb4e4a1546ce3ebe8792374f8bc141f450482826000015483600101876040516119669493929190614626565b60405180910390a1819250505092915050565b611981611f93565b600060405180610100016040528089815260200188815260200187815260200186815260200185815260200184815260200183815260200160008152509050600f819080600181540180825580915050600190039060005260206000209060080201600090919091909150600082015181600001556020820151816001019081611a0b91906143d2565b506040820151816002019081611a2191906143d2565b506060820151816003019081611a3791906143d2565b506080820151816004015560a0820151816005015560c0820151816006015560e0820151816007015550507fbb943a75897841273de992018d6a6fa10dcf6b7e69231efef8815db6a70ec26788888785604051611a979493929190614672565b60405180910390a15050505050505050565b60007f780e9d63000000000000000000000000000000000000000000000000000000007bffffffffffffffffffffffffffffffffffffffffffffffffffffffff1916827bffffffffffffffffffffffffffffffffffffffffffffffffffffffff19161480611b1c5750611b1b82612631565b5b9050919050565b600080611b2f83612692565b9050600073ffffffffffffffffffffffffffffffffffffffff168173ffffffffffffffffffffffffffffffffffffffff1603611ba257826040517f7e273289000000000000000000000000000000000000000000000000000000008152600401611b999190613886565b60405180910390fd5b80915050919050565b60006004600083815260200190815260200160002060009054906101000a900473ffffffffffffffffffffffffffffffffffffffff169050919050565b600033905090565b611bfd83838360016126cf565b505050565b600081600001549050919050565b6000611c1c600c612519565b6000611c28600c611c02565b90506000600f8581548110611c4057611c3f61405a565b5b90600052602060002090600802019050806007016000815480929190611c65906140ec565b9190505550611c748483612538565b60405180610100016040528082600001548152602001826001018054611c9990613e3a565b80601f0160208091040260200160405190810160405280929190818152602001828054611cc590613e3a565b8015611d125780601f10611ce757610100808354040283529160200191611d12565b820191906000526020600020905b815481529060010190602001808311611cf557829003601f168201915b50505050508152602001826002018054611d2b90613e3a565b80601f0160208091040260200160405190810160405280929190818152602001828054611d5790613e3a565b8015611da45780601f10611d7957610100808354040283529160200191611da4565b820191906000526020600020905b815481529060010190602001808311611d8757829003601f168201915b50505050508152602001826003018054611dbd90613e3a565b80601f0160208091040260200160405190810160405280929190818152602001828054611de990613e3a565b8015611e365780601f10611e0b57610100808354040283529160200191611e36565b820191906000526020600020905b815481529060010190602001808311611e1957829003601f168201915b505050505081526020018260040154815260200182600501548152602001826006015481526020018260070154815250600d6000848152602001908152602001600020600082015181600001556020820151816001019081611e9891906143d2565b506040820151816002019081611eae91906143d2565b506060820151816003019081611ec491906143d2565b506080820151816004015560a0820151816005015560c0820151816006015560e08201518160070155905050600e6000826000015481526020019081526020016000208290806001815401808255809150506001900390600052602060002001600090919091909150557feebfd76b8c41858f758eb77a04586bb4e4a1546ce3ebe8792374f8bc141f45048282600001548360010187604051611f6a9493929190614626565b60405180910390a1819250505092915050565b6000611f8a848484612894565b90509392505050565b611f9b611be8565b73ffffffffffffffffffffffffffffffffffffffff16611fb9611049565b73ffffffffffffffffffffffffffffffffffffffff161461201857611fdc611be8565b6040517f118cdaa700000000000000000000000000000000000000000000000000000000815260040161200f91906137c3565b60405180910390fd5b565b6000600b60009054906101000a900473ffffffffffffffffffffffffffffffffffffffff16905081600b60006101000a81548173ffffffffffffffffffffffffffffffffffffffff021916908373ffffffffffffffffffffffffffffffffffffffff1602179055508173ffffffffffffffffffffffffffffffffffffffff168173ffffffffffffffffffffffffffffffffffffffff167f8be0079c531659141344cd1fd0a4f28419497f9722a3daafe3b4186f6b6457e060405160405180910390a35050565b600073ffffffffffffffffffffffffffffffffffffffff168273ffffffffffffffffffffffffffffffffffffffff160361215157816040517f5b08ba1800000000000000000000000000000000000000000000000000000000815260040161214891906137c3565b60405180910390fd5b80600560008573ffffffffffffffffffffffffffffffffffffffff1673ffffffffffffffffffffffffffffffffffffffff16815260200190815260200160002060008473ffffffffffffffffffffffffffffffffffffffff1673ffffffffffffffffffffffffffffffffffffffff16815260200190815260200160002060006101000a81548160ff0219169083151502179055508173ffffffffffffffffffffffffffffffffffffffff168373ffffffffffffffffffffffffffffffffffffffff167f17307eab39ab6107e8899845ad3d59bd9653f200f220920489ca2b5937696c318360405161224291906136b5565b60405180910390a3505050565b60008373ffffffffffffffffffffffffffffffffffffffff163b1115612400578273ffffffffffffffffffffffffffffffffffffffff1663150b7a02612293611be8565b8685856040518563ffffffff1660e01b81526004016122b5949392919061471a565b6020604051808303816000875af19250505080156122f157506040513d601f19601f820116820180604052508101906122ee919061477b565b60015b612375573d8060008114612321576040519150601f19603f3d011682016040523d82523d6000602084013e612326565b606091505b50600081510361236d57836040517f64a0ae9200000000000000000000000000000000000000000000000000000000815260040161236491906137c3565b60405180910390fd5b805181602001fd5b63150b7a0260e01b7bffffffffffffffffffffffffffffffffffffffffffffffffffffffff1916817bffffffffffffffffffffffffffffffffffffffffffffffffffffffff1916146123fe57836040517f64a0ae920000000000000000000000000000000000000000000000000000000081526004016123f591906137c3565b60405180910390fd5b505b50505050565b606061241182611b23565b50600060066000848152602001908152602001600020805461243290613e3a565b80601f016020809104026020016040519081016040528092919081815260200182805461245e90613e3a565b80156124ab5780601f10612480576101008083540402835291602001916124ab565b820191906000526020600020905b81548152906001019060200180831161248e57829003601f168201915b5050505050905060006124bc6129b1565b905060008151036124d1578192505050612514565b6000825111156125065780826040516020016124ee9291906147e4565b60405160208183030381529060405292505050612514565b61250f84612a43565b925050505b919050565b600181600001600082825461252e91906140b8565b9250508190555050565b600073ffffffffffffffffffffffffffffffffffffffff168273ffffffffffffffffffffffffffffffffffffffff16036125aa5760006040517f64a0ae920000000000000000000000000000000000000000000000000000000081526004016125a191906137c3565b60405180910390fd5b60006125b883836000611f7d565b9050600073ffffffffffffffffffffffffffffffffffffffff168173ffffffffffffffffffffffffffffffffffffffff161461262c5760006040517f73c6ac6e00000000000000000000000000000000000000000000000000000000815260040161262391906137c3565b60405180910390fd5b505050565b6000634906490660e01b7bffffffffffffffffffffffffffffffffffffffffffffffffffffffff1916827bffffffffffffffffffffffffffffffffffffffffffffffffffffffff1916148061268b575061268a82612aac565b5b9050919050565b60006002600083815260200190815260200160002060009054906101000a900473ffffffffffffffffffffffffffffffffffffffff169050919050565b80806127085750600073ffffffffffffffffffffffffffffffffffffffff168273ffffffffffffffffffffffffffffffffffffffff1614155b1561283c57600061271884611b23565b9050600073ffffffffffffffffffffffffffffffffffffffff168373ffffffffffffffffffffffffffffffffffffffff161415801561278357508273ffffffffffffffffffffffffffffffffffffffff168173ffffffffffffffffffffffffffffffffffffffff1614155b8015612796575061279481846113c8565b155b156127d857826040517fa9fbf51f0000000000000000000000000000000000000000000000000000000081526004016127cf91906137c3565b60405180910390fd5b811561283a57838573ffffffffffffffffffffffffffffffffffffffff168273ffffffffffffffffffffffffffffffffffffffff167f8c5be1e5ebec7d5bd14f71427d1e84f3dd0314c0f7b2291e5b200ac8c7c3b92560405160405180910390a45b505b836004600085815260200190815260200160002060006101000a81548173ffffffffffffffffffffffffffffffffffffffff021916908373ffffffffffffffffffffffffffffffffffffffff16021790555050505050565b6000806128a2858585612b8e565b9050600073ffffffffffffffffffffffffffffffffffffffff168173ffffffffffffffffffffffffffffffffffffffff16036128e6576128e184612da8565b612925565b8473ffffffffffffffffffffffffffffffffffffffff168173ffffffffffffffffffffffffffffffffffffffff1614612924576129238185612df1565b5b5b600073ffffffffffffffffffffffffffffffffffffffff168573ffffffffffffffffffffffffffffffffffffffff16036129675761296284612f52565b6129a6565b8473ffffffffffffffffffffffffffffffffffffffff168173ffffffffffffffffffffffffffffffffffffffff16146129a5576129a48585613023565b5b5b809150509392505050565b6060601080546129c090613e3a565b80601f01602080910402602001604051908101604052809291908181526020018280546129ec90613e3a565b8015612a395780601f10612a0e57610100808354040283529160200191612a39565b820191906000526020600020905b815481529060010190602001808311612a1c57829003601f168201915b5050505050905090565b6060612a4e82611b23565b506000612a596129b1565b90506000815111612a795760405180602001604052806000815250612aa4565b80612a83846130ae565b604051602001612a949291906147e4565b6040516020818303038152906040525b915050919050565b60007f80ac58cd000000000000000000000000000000000000000000000000000000007bffffffffffffffffffffffffffffffffffffffffffffffffffffffff1916827bffffffffffffffffffffffffffffffffffffffffffffffffffffffff19161480612b7757507f5b5e139f000000000000000000000000000000000000000000000000000000007bffffffffffffffffffffffffffffffffffffffffffffffffffffffff1916827bffffffffffffffffffffffffffffffffffffffffffffffffffffffff1916145b80612b875750612b868261317c565b5b9050919050565b600080612b9a84612692565b9050600073ffffffffffffffffffffffffffffffffffffffff168373ffffffffffffffffffffffffffffffffffffffff1614612bdc57612bdb8184866131e6565b5b600073ffffffffffffffffffffffffffffffffffffffff168173ffffffffffffffffffffffffffffffffffffffff1614612c6d57612c1e6000856000806126cf565b6001600360008373ffffffffffffffffffffffffffffffffffffffff1673ffffffffffffffffffffffffffffffffffffffff168152602001908152602001600020600082825403925050819055505b600073ffffffffffffffffffffffffffffffffffffffff168573ffffffffffffffffffffffffffffffffffffffff1614612cf0576001600360008773ffffffffffffffffffffffffffffffffffffffff1673ffffffffffffffffffffffffffffffffffffffff168152602001908152602001600020600082825401925050819055505b846002600086815260200190815260200160002060006101000a81548173ffffffffffffffffffffffffffffffffffffffff021916908373ffffffffffffffffffffffffffffffffffffffff160217905550838573ffffffffffffffffffffffffffffffffffffffff168273ffffffffffffffffffffffffffffffffffffffff167fddf252ad1be2c89b69c2b068fc378daa952ba7f163c4a11628f55a4df523b3ef60405160405180910390a4809150509392505050565b600980549050600a600083815260200190815260200160002081905550600981908060018154018082558091505060019003906000526020600020016000909190919091505550565b6000612dfc83610f7b565b9050600060086000848152602001908152602001600020549050818114612ee1576000600760008673ffffffffffffffffffffffffffffffffffffffff1673ffffffffffffffffffffffffffffffffffffffff168152602001908152602001600020600084815260200190815260200160002054905080600760008773ffffffffffffffffffffffffffffffffffffffff1673ffffffffffffffffffffffffffffffffffffffff168152602001908152602001600020600084815260200190815260200160002081905550816008600083815260200190815260200160002081905550505b6008600084815260200190815260200160002060009055600760008573ffffffffffffffffffffffffffffffffffffffff1673ffffffffffffffffffffffffffffffffffffffff16815260200190815260200160002060008381526020019081526020016000206000905550505050565b60006001600980549050612f669190614808565b90506000600a6000848152602001908152602001600020549050600060098381548110612f9657612f9561405a565b5b906000526020600020015490508060098381548110612fb857612fb761405a565b5b906000526020600020018190555081600a600083815260200190815260200160002081905550600a60008581526020019081526020016000206000905560098054806130075761300661483c565b5b6001900381819060005260206000200160009055905550505050565b6000600161303084610f7b565b61303a9190614808565b905081600760008573ffffffffffffffffffffffffffffffffffffffff1673ffffffffffffffffffffffffffffffffffffffff168152602001908152602001600020600083815260200190815260200160002081905550806008600084815260200190815260200160002081905550505050565b6060600060016130bd846132aa565b01905060008167ffffffffffffffff8111156130dc576130db613991565b5b6040519080825280601f01601f19166020018201604052801561310e5781602001600182028036833780820191505090505b509050600082602001820190505b600115613171578080600190039150507f3031323334353637383961626364656600000000000000000000000000000000600a86061a8153600a858161316557613164613ffa565b5b0494506000850361311c575b819350505050919050565b60007f01ffc9a7000000000000000000000000000000000000000000000000000000007bffffffffffffffffffffffffffffffffffffffffffffffffffffffff1916827bffffffffffffffffffffffffffffffffffffffffffffffffffffffff1916149050919050565b6131f18383836133fd565b6132a557600073ffffffffffffffffffffffffffffffffffffffff168373ffffffffffffffffffffffffffffffffffffffff160361326657806040517f7e27328900000000000000000000000000000000000000000000000000000000815260040161325d9190613886565b60405180910390fd5b81816040517f177e802f00000000000000000000000000000000000000000000000000000000815260040161329c9291906141fd565b60405180910390fd5b505050565b600080600090507a184f03e93ff9f4daa797ed6e38ed64bf6a1f0100000000000000008310613308577a184f03e93ff9f4daa797ed6e38ed64bf6a1f01000000000000000083816132fe576132fd613ffa565b5b0492506040810190505b6d04ee2d6d415b85acef81000000008310613345576d04ee2d6d415b85acef8100000000838161333b5761333a613ffa565b5b0492506020810190505b662386f26fc10000831061337457662386f26fc10000838161336a57613369613ffa565b5b0492506010810190505b6305f5e100831061339d576305f5e100838161339357613392613ffa565b5b0492506008810190505b61271083106133c25761271083816133b8576133b7613ffa565b5b0492506004810190505b606483106133e557606483816133db576133da613ffa565b5b0492506002810190505b600a83106133f4576001810190505b80915050919050565b60008073ffffffffffffffffffffffffffffffffffffffff168373ffffffffffffffffffffffffffffffffffffffff16141580156134b557508273ffffffffffffffffffffffffffffffffffffffff168473ffffffffffffffffffffffffffffffffffffffff161480613476575061347584846113c8565b5b806134b457508273ffffffffffffffffffffffffffffffffffffffff1661349c83611bab565b73ffffffffffffffffffffffffffffffffffffffff16145b5b90509392505050565b6000604051905090565b600080fd5b600080fd5b6000819050919050565b6134e5816134d2565b81146134f057600080fd5b50565b600081359050613502816134dc565b92915050565b60006020828403121561351e5761351d6134c8565b5b600061352c848285016134f3565b91505092915050565b600081519050919050565b600082825260208201905092915050565b6000819050602082019050919050565b61356a816134d2565b82525050565b600061357c8383613561565b60208301905092915050565b6000602082019050919050565b60006135a082613535565b6135aa8185613540565b93506135b583613551565b8060005b838110156135e65781516135cd8882613570565b97506135d883613588565b9250506001810190506135b9565b5085935050505092915050565b6000602082019050818103600083015261360d8184613595565b905092915050565b60007fffffffff0000000000000000000000000000000000000000000000000000000082169050919050565b61364a81613615565b811461365557600080fd5b50565b60008135905061366781613641565b92915050565b600060208284031215613683576136826134c8565b5b600061369184828501613658565b91505092915050565b60008115159050919050565b6136af8161369a565b82525050565b60006020820190506136ca60008301846136a6565b92915050565b600081519050919050565b600082825260208201905092915050565b60005b8381101561370a5780820151818401526020810190506136ef565b60008484015250505050565b6000601f19601f8301169050919050565b6000613732826136d0565b61373c81856136db565b935061374c8185602086016136ec565b61375581613716565b840191505092915050565b6000602082019050818103600083015261377a8184613727565b905092915050565b600073ffffffffffffffffffffffffffffffffffffffff82169050919050565b60006137ad82613782565b9050919050565b6137bd816137a2565b82525050565b60006020820190506137d860008301846137b4565b92915050565b6137e7816137a2565b81146137f257600080fd5b50565b600081359050613804816137de565b92915050565b60008060408385031215613821576138206134c8565b5b600061382f858286016137f5565b9250506020613840858286016134f3565b9150509250929050565b6000602082840312156138605761385f6134c8565b5b600061386e848285016137f5565b91505092915050565b613880816134d2565b82525050565b600060208201905061389b6000830184613877565b92915050565b6000806000606084860312156138ba576138b96134c8565b5b60006138c8868287016137f5565b93505060206138d9868287016137f5565b92505060406138ea868287016134f3565b9150509250925092565b60006101008201905061390a600083018b613877565b818103602083015261391c818a613727565b905081810360408301526139308189613727565b905081810360608301526139448188613727565b90506139536080830187613877565b61396060a0830186613877565b61396d60c0830185613877565b61397a60e0830184613877565b9998505050505050505050565b600080fd5b600080fd5b7f4e487b7100000000000000000000000000000000000000000000000000000000600052604160045260246000fd5b6139c982613716565b810181811067ffffffffffffffff821117156139e8576139e7613991565b5b80604052505050565b60006139fb6134be565b9050613a0782826139c0565b919050565b600067ffffffffffffffff821115613a2757613a26613991565b5b613a3082613716565b9050602081019050919050565b82818337600083830152505050565b6000613a5f613a5a84613a0c565b6139f1565b905082815260208101848484011115613a7b57613a7a61398c565b5b613a86848285613a3d565b509392505050565b600082601f830112613aa357613aa2613987565b5b8135613ab3848260208601613a4c565b91505092915050565b600060208284031215613ad257613ad16134c8565b5b600082013567ffffffffffffffff811115613af057613aef6134cd565b5b613afc84828501613a8e565b91505092915050565b613b0e8161369a565b8114613b1957600080fd5b50565b600081359050613b2b81613b05565b92915050565b60008060408385031215613b4857613b476134c8565b5b6000613b56858286016137f5565b9250506020613b6785828601613b1c565b9150509250929050565b600067ffffffffffffffff821115613b8c57613b8b613991565b5b613b9582613716565b9050602081019050919050565b6000613bb5613bb084613b71565b6139f1565b905082815260208101848484011115613bd157613bd061398c565b5b613bdc848285613a3d565b509392505050565b600082601f830112613bf957613bf8613987565b5b8135613c09848260208601613ba2565b91505092915050565b60008060008060808587031215613c2c57613c2b6134c8565b5b6000613c3a878288016137f5565b9450506020613c4b878288016137f5565b9350506040613c5c878288016134f3565b925050606085013567ffffffffffffffff811115613c7d57613c7c6134cd565b5b613c8987828801613be4565b91505092959194509250565b60008060408385031215613cac57613cab6134c8565b5b6000613cba858286016137f5565b9250506020613ccb858286016137f5565b9150509250929050565b60008060408385031215613cec57613ceb6134c8565b5b6000613cfa858286016134f3565b9250506020613d0b858286016137f5565b9150509250929050565b600080600080600080600060e0888a031215613d3457613d336134c8565b5b6000613d428a828b016134f3565b975050602088013567ffffffffffffffff811115613d6357613d626134cd565b5b613d6f8a828b01613a8e565b965050604088013567ffffffffffffffff811115613d9057613d8f6134cd565b5b613d9c8a828b01613a8e565b955050606088013567ffffffffffffffff811115613dbd57613dbc6134cd565b5b613dc98a828b01613a8e565b9450506080613dda8a828b016134f3565b93505060a0613deb8a828b016134f3565b92505060c0613dfc8a828b016134f3565b91505092959891949750929550565b7f4e487b7100000000000000000000000000000000000000000000000000000000600052602260045260246000fd5b60006002820490506001821680613e5257607f821691505b602082108103613e6557613e64613e0b565b5b50919050565b7f4e6f20506f6b656d6f6e20617661696c61626c6520746f206d696e7400000000600082015250565b6000613ea1601c836136db565b9150613eac82613e6b565b602082019050919050565b60006020820190508181036000830152613ed081613e94565b9050919050565b7f496e73756666696369656e74207061796d656e74000000000000000000000000600082015250565b6000613f0d6014836136db565b9150613f1882613ed7565b602082019050919050565b60006020820190508181036000830152613f3c81613f00565b9050919050565b6000819050919050565b613f5e613f59826134d2565b613f43565b82525050565b60008160601b9050919050565b6000613f7c82613f64565b9050919050565b6000613f8e82613f71565b9050919050565b613fa6613fa1826137a2565b613f83565b82525050565b6000613fb88287613f4d565b602082019150613fc88286613f4d565b602082019150613fd88285613f95565b601482019150613fe88284613f4d565b60208201915081905095945050505050565b7f4e487b7100000000000000000000000000000000000000000000000000000000600052601260045260246000fd5b6000614034826134d2565b915061403f836134d2565b92508261404f5761404e613ffa565b5b828206905092915050565b7f4e487b7100000000000000000000000000000000000000000000000000000000600052603260045260246000fd5b7f4e487b7100000000000000000000000000000000000000000000000000000000600052601160045260246000fd5b60006140c3826134d2565b91506140ce836134d2565b92508282019050808211156140e6576140e5614089565b5b92915050565b60006140f7826134d2565b91507fffffffffffffffffffffffffffffffffffffffffffffffffffffffffffffffff820361412957614128614089565b5b600182019050919050565b7f416c6c20506f6b656d6f6e20686176652072656163686564206d6178696d756d60008201527f20737570706c7900000000000000000000000000000000000000000000000000602082015250565b60006141906027836136db565b915061419b82614134565b604082019050919050565b600060208201905081810360008301526141bf81614183565b9050919050565b60006060820190506141db60008301866137b4565b6141e86020830185613877565b6141f560408301846137b4565b949350505050565b600060408201905061421260008301856137b4565b61421f6020830184613877565b9392505050565b60008190508160005260206000209050919050565b60006020601f8301049050919050565b600082821b905092915050565b6000600883026142887fffffffffffffffffffffffffffffffffffffffffffffffffffffffffffffffff8261424b565b614292868361424b565b95508019841693508086168417925050509392505050565b6000819050919050565b60006142cf6142ca6142c5846134d2565b6142aa565b6134d2565b9050919050565b6000819050919050565b6142e9836142b4565b6142fd6142f5826142d6565b848454614258565b825550505050565b600090565b614312614305565b61431d8184846142e0565b505050565b5b818110156143415761433660008261430a565b600181019050614323565b5050565b601f8211156143865761435781614226565b6143608461423b565b8101602085101561436f578190505b61438361437b8561423b565b830182614322565b50505b505050565b600082821c905092915050565b60006143a96000198460080261438b565b1980831691505092915050565b60006143c28383614398565b9150826002028217905092915050565b6143db826136d0565b67ffffffffffffffff8111156143f4576143f3613991565b5b6143fe8254613e3a565b614409828285614345565b600060209050601f83116001811461443c576000841561442a578287015190505b61443485826143b6565b86555061449c565b601f19841661444a86614226565b60005b828110156144725784890151825560018201915060208501945060208101905061444d565b8683101561448f578489015161448b601f891682614398565b8355505b6001600288020188555050505b505050505050565b7f506f6b656d6f6e20646f6573206e6f7420657869737400000000000000000000600082015250565b60006144da6016836136db565b91506144e5826144a4565b602082019050919050565b60006020820190508181036000830152614509816144cd565b9050919050565b7f4d6178696d756d20737570706c79207265616368656420666f7220746869732060008201527f506f6b656d6f6e00000000000000000000000000000000000000000000000000602082015250565b600061456c6027836136db565b915061457782614510565b604082019050919050565b6000602082019050818103600083015261459b8161455f565b9050919050565b600081546145af81613e3a565b6145b981866136db565b945060018216600081146145d457600181146145ea5761461d565b60ff19831686528115156020028601935061461d565b6145f385614226565b60005b83811015614615578154818901526001820191506020810190506145f6565b808801955050505b50505092915050565b600060808201905061463b6000830187613877565b6146486020830186613877565b818103604083015261465a81856145a2565b905061466960608301846137b4565b95945050505050565b60006080820190506146876000830187613877565b81810360208301526146998186613727565b905081810360408301526146ad8185613727565b90506146bc6060830184613877565b95945050505050565b600081519050919050565b600082825260208201905092915050565b60006146ec826146c5565b6146f681856146d0565b93506147068185602086016136ec565b61470f81613716565b840191505092915050565b600060808201905061472f60008301876137b4565b61473c60208301866137b4565b6147496040830185613877565b818103606083015261475b81846146e1565b905095945050505050565b60008151905061477581613641565b92915050565b600060208284031215614791576147906134c8565b5b600061479f84828501614766565b91505092915050565b600081905092915050565b60006147be826136d0565b6147c881856147a8565b93506147d88185602086016136ec565b80840191505092915050565b60006147f082856147b3565b91506147fc82846147b3565b91508190509392505050565b6000614813826134d2565b915061481e836134d2565b925082820390508181111561483657614835614089565b5b92915050565b7f4e487b7100000000000000000000000000000000000000000000000000000000600052603160045260246000fdfea2646970667358221220bc79fba8f1586ee125b06ae333d4e05f28bd0a91ff0279761357743e002f619a64736f6c63430008140033",
  "linkReferences": {},
  "deployedLinkReferences": {}
}