{
  "_format": "hh-sol-artifact-1",
  "contractName": "PokemonMarketplace",
  "sourceName": "contracts/PokemonMarketplace.sol",
  "abi": [
    {
      "inputs": [
        {
          "internalType": "address",
          "name": "_nftContract",
          "type": "address"
        }
      ],
      "stateMutability": "nonpayable",
      "type": "constructor"
    },
    {
      "inputs": [
        {
          "internalType": "address",
          "name": "owner",
          "type": "address"
        }
      ],
      "name": "OwnableInvalidOwner",
      "type": "error"
    },
    {
      "inputs": [
        {
          "internalType": "address",
          "name": "account",
          "type": "address"
        }
      ],
      "name": "OwnableUnauthorizedAccount",
      "type": "error"
    },
    {
      "inputs": [],
      "name": "ReentrancyGuardReentrantCall",
      "type": "error"
    },
    {
      "anonymous": false,
      "inputs": [
        {
          "indexed": false,
          "internalType": "uint256",
          "name": "listingId",
          "type": "uint256"
        },
        {
          "indexed": false,
          "internalType": "address",
          "name": "winner",
          "type": "address"
        },
        {
          "indexed": false,
          "internalType": "uint256",
          "name": "price",
          "type": "uint256"
        }
      ],
      "name": "AuctionFinalized",
      "type": "event"
    },
    {
      "anonymous": false,
      "inputs": [
        {
          "indexed": false,
          "internalType": "uint256",
          "name": "listingId",
          "type": "uint256"
        },
        {
          "indexed": false,
          "internalType": "address",
          "name": "bidder",
          "type": "address"
        },
        {
          "indexed": false,
          "internalType": "uint256",
          "name": "bid",
          "type": "uint256"
        }
      ],
      "name": "BidPlaced",
      "type": "event"
    },
    {
      "anonymous": false,
      "inputs": [
        {
          "indexed": false,
          "internalType": "uint256",
          "name": "listingId",
          "type": "uint256"
        }
      ],
      "name": "ListingCancelled",
      "type": "event"
    },
    {
      "anonymous": false,
      "inputs": [
        {
          "indexed": false,
          "internalType": "uint256",
          "name": "listingId",
          "type": "uint256"
        },
        {
          "indexed": false,
          "internalType": "address",
          "name": "seller",
          "type": "address"
        },
        {
          "indexed": false,
          "internalType": "uint256",
          "name": "tokenId",
          "type": "uint256"
        },
        {
          "indexed": false,
          "internalType": "uint256",
          "name": "price",
          "type": "uint256"
        },
        {
          "indexed": false,
          "internalType": "enum PokemonMarketplace.ListingType",
          "name": "listingType",
          "type": "uint8"
        },
        {
          "indexed": false,
          "internalType": "uint256",
          "name": "auctionEndTime",
          "type": "uint256"
        }
      ],
      "name": "ListingCreated",
      "type": "event"
    },
    {
      "anonymous": false,
      "inputs": [
        {
          "indexed": false,
          "internalType": "uint256",
          "name": "listingId",
          "type": "uint256"
        },
        {
          "indexed": false,
          "internalType": "address",
          "name": "buyer",
          "type": "address"
        },
        {
          "indexed": false,
          "internalType": "uint256",
          "name": "price",
          "type": "uint256"
        }
      ],
      "name": "ListingSuccessful",
      "type": "event"
    },
    {
      "anonymous": false,
      "inputs": [
        {
          "indexed": true,
          "internalType": "address",
          "name": "previousOwner",
          "type": "address"
        },
        {
          "indexed": true,
          "internalType": "address",
          "name": "newOwner",
          "type": "address"
        }
      ],
      "name": "OwnershipTransferred",
      "type": "event"
    },
    {
      "inputs": [
        {
          "internalType": "uint256",
          "name": "listingId",
          "type": "uint256"
        }
      ],
      "name": "buyListing",
      "outputs": [],
      "stateMutability": "payable",
      "type": "function"
    },
    {
      "inputs": [
        {
          "internalType": "uint256",
          "name": "listingId",
          "type": "uint256"
        }
      ],
      "name": "cancelListing",
      "outputs": [],
      "stateMutability": "nonpayable",
      "type": "function"
    },
    {
      "inputs": [
        {
          "internalType": "uint256",
          "name": "tokenId",
          "type": "uint256"
        },
        {
          "internalType": "uint256",
          "name": "startingPrice",
          "type": "uint256"
        },
        {
          "internalType": "uint256",
          "name": "duration",
          "type": "uint256"
        }
      ],
      "name": "createAuction",
      "outputs": [],
      "stateMutability": "nonpayable",
      "type": "function"
    },
    {
      "inputs": [
        {
          "internalType": "uint256",
          "name": "tokenId",
          "type": "uint256"
        },
        {
          "internalType": "uint256",
          "name": "price",
          "type": "uint256"
        }
      ],
      "name": "createListing",
      "outputs": [],
      "stateMutability": "nonpayable",
      "type": "function"
    },
    {
      "inputs": [],
      "name": "emergencyStop",
      "outputs": [
        {
          "internalType": "bool",
          "name": "",
          "type": "bool"
        }
      ],
      "stateMutability": "view",
      "type": "function"
    },
    {
      "inputs": [],
      "name": "feePercentage",
      "outputs": [
        {
          "internalType": "uint256",
          "name": "",
          "type": "uint256"
        }
      ],
      "stateMutability": "view",
      "type": "function"
    },
    {
      "inputs": [
        {
          "internalType": "uint256",
          "name": "listingId",
          "type": "uint256"
        }
      ],
      "name": "finalizeAuction",
      "outputs": [],
      "stateMutability": "nonpayable",
      "type": "function"
    },
    {
      "inputs": [],
      "name": "getActiveListingCount",
      "outputs": [
        {
          "internalType": "uint256",
          "name": "",
          "type": "uint256"
        }
      ],
      "stateMutability": "view",
      "type": "function"
    },
    {
      "inputs": [],
      "name": "getTotalPendingWithdrawals",
      "outputs": [
        {
          "internalType": "uint256",
          "name": "",
          "type": "uint256"
        }
      ],
      "stateMutability": "view",
      "type": "function"
    },
    {
      "inputs": [
        {
          "internalType": "uint256",
          "name": "tokenId",
          "type": "uint256"
        }
      ],
      "name": "isTokenListed",
      "outputs": [
        {
          "internalType": "bool",
          "name": "",
          "type": "bool"
        }
      ],
      "stateMutability": "view",
      "type": "function"
    },
    {
      "inputs": [
        {
          "internalType": "uint256",
          "name": "",
          "type": "uint256"
        }
      ],
      "name": "listings",
      "outputs": [
        {
          "internalType": "uint256",
          "name": "listingId",
          "type": "uint256"
        },
        {
          "internalType": "address",
          "name": "seller",
          "type": "address"
        },
        {
          "internalType": "uint256",
          "name": "tokenId",
          "type": "uint256"
        },
        {
          "internalType": "uint256",
          "name": "price",
          "type": "uint256"
        },
        {
          "internalType": "enum PokemonMarketplace.ListingStatus",
          "name": "status",
          "type": "uint8"
        },
        {
          "internalType": "enum PokemonMarketplace.ListingType",
          "name": "listingType",
          "type": "uint8"
        },
        {
          "internalType": "uint256",
          "name": "auctionEndTime",
          "type": "uint256"
        },
        {
          "internalType": "address",
          "name": "highestBidder",
          "type": "address"
        },
        {
          "internalType": "uint256",
          "name": "highestBid",
          "type": "uint256"
        }
      ],
      "stateMutability": "view",
      "type": "function"
    },
    {
      "inputs": [],
      "name": "owner",
      "outputs": [
        {
          "internalType": "address",
          "name": "",
          "type": "address"
        }
      ],
      "stateMutability": "view",
      "type": "function"
    },
    {
      "inputs": [
        {
          "internalType": "address",
          "name": "",
          "type": "address"
        }
      ],
      "name": "pendingWithdrawals",
      "outputs": [
        {
          "internalType": "uint256",
          "name": "",
          "type": "uint256"
        }
      ],
      "stateMutability": "view",
      "type": "function"
    },
    {
      "inputs": [
        {
          "internalType": "uint256",
          "name": "listingId",
          "type": "uint256"
        }
      ],
      "name": "placeBid",
      "outputs": [],
      "stateMutability": "payable",
      "type": "function"
    },
    {
      "inputs": [],
      "name": "pokemonNFT",
      "outputs": [
        {
          "internalType": "contract PokemonNFT",
          "name": "",
          "type": "address"
        }
      ],
      "stateMutability": "view",
      "type": "function"
    },
    {
      "inputs": [],
      "name": "renounceOwnership",
      "outputs": [],
      "stateMutability": "nonpayable",
      "type": "function"
    },
    {
      "inputs": [
        {
          "internalType": "uint256",
          "name": "_feePercentage",
          "type": "uint256"
        }
      ],
      "name": "setFeePercentage",
      "outputs": [],
      "stateMutability": "nonpayable",
      "type": "function"
    },
    {
      "inputs": [],
      "name": "toggleEmergencyStop",
      "outputs": [],
      "stateMutability": "nonpayable",
      "type": "function"
    },
    {
      "inputs": [
        {
          "internalType": "uint256",
          "name": "",
          "type": "uint256"
        }
      ],
      "name": "tokenIdToListingId",
      "outputs": [
        {
          "internalType": "uint256",
          "name": "",
          "type": "uint256"
        }
      ],
      "stateMutability": "view",
      "type": "function"
    },
    {
      "inputs": [
        {
          "internalType": "address",
          "name": "newOwner",
          "type": "address"
        }
      ],
      "name": "transferOwnership",
      "outputs": [],
      "stateMutability": "nonpayable",
      "type": "function"
    },
    {
      "inputs": [],
      "name": "withdraw",
      "outputs": [],
      "stateMutability": "nonpayable",
      "type": "function"
    },
    {
      "inputs": [],
      "name": "withdrawFees",
      "outputs": [],
      "stateMutability": "nonpayable",
      "type": "function"
    }
  ],
  "bytecode": "0x608060405260196004556000600860006101000a81548160ff0219169083151502179055503480156200003157600080fd5b5060405162003a9838038062003a9883398181016040528101906200005791906200025f565b336001600081905550600073ffffffffffffffffffffffffffffffffffffffff168173ffffffffffffffffffffffffffffffffffffffff1603620000d55760006040517f1e4fbdf7000000000000000000000000000000000000000000000000000000008152600401620000cc9190620002a2565b60405180910390fd5b620000e6816200012f60201b60201c565b5080600360006101000a81548173ffffffffffffffffffffffffffffffffffffffff021916908373ffffffffffffffffffffffffffffffffffffffff16021790555050620002bf565b6000600160009054906101000a900473ffffffffffffffffffffffffffffffffffffffff16905081600160006101000a81548173ffffffffffffffffffffffffffffffffffffffff021916908373ffffffffffffffffffffffffffffffffffffffff1602179055508173ffffffffffffffffffffffffffffffffffffffff168173ffffffffffffffffffffffffffffffffffffffff167f8be0079c531659141344cd1fd0a4f28419497f9722a3daafe3b4186f6b6457e060405160405180910390a35050565b600080fd5b600073ffffffffffffffffffffffffffffffffffffffff82169050919050565b60006200022782620001fa565b9050919050565b62000239816200021a565b81146200024557600080fd5b50565b60008151905062000259816200022e565b92915050565b600060208284031215620002785762000277620001f5565b5b6000620002888482850162000248565b91505092915050565b6200029c816200021a565b82525050565b6000602082019050620002b9600083018462000291565b92915050565b6137c980620002cf6000396000f3fe6080604052600436106101355760003560e01c80639979ef45116100ab578063cda4beef1161006f578063cda4beef1461039a578063de74e57b146103c3578063e808386314610408578063f2fde38b14610431578063f3f437031461045a578063f87190601461049757610135565b80639979ef45146102c45780639b83cddc146102e0578063a001ecdd1461031d578063a79123a914610348578063ae06c1b71461037157610135565b80634b7aac94116100fd5780634b7aac94146101d857806363a599a4146101ef57806365a503dd1461021a578063715018a614610257578063774208441461026e5780638da5cb5b1461029957610135565b806310877ac11461013a578063305a67a8146101655780633ccfd60b1461018e578063476343ee146101a55780634884f459146101bc575b600080fd5b34801561014657600080fd5b5061014f6104c2565b60405161015c9190612675565b60405180910390f35b34801561017157600080fd5b5061018c600480360381019061018791906126c1565b6104d0565b005b34801561019a57600080fd5b506101a3610781565b005b3480156101b157600080fd5b506101ba6108a7565b005b6101d660048036038101906101d191906126c1565b610911565b005b3480156101e457600080fd5b506101ed610d5b565b005b3480156101fb57600080fd5b50610204610d8f565b6040516102119190612709565b60405180910390f35b34801561022657600080fd5b50610241600480360381019061023c91906126c1565b610da2565b60405161024e9190612675565b60405180910390f35b34801561026357600080fd5b5061026c610dba565b005b34801561027a57600080fd5b50610283610dce565b6040516102909190612675565b60405180910390f35b3480156102a557600080fd5b506102ae610e65565b6040516102bb9190612765565b60405180910390f35b6102de60048036038101906102d991906126c1565b610e8f565b005b3480156102ec57600080fd5b50610307600480360381019061030291906126c1565b611271565b6040516103149190612709565b60405180910390f35b34801561032957600080fd5b506103326112f7565b60405161033f9190612675565b60405180910390f35b34801561035457600080fd5b5061036f600480360381019061036a9190612780565b6112fd565b005b34801561037d57600080fd5b50610398600480360381019061039391906126c1565b611890565b005b3480156103a657600080fd5b506103c160048036038101906103bc91906127c0565b6118e6565b005b3480156103cf57600080fd5b506103ea60048036038101906103e591906126c1565b611ed1565b6040516103ff999897969594939291906128d2565b60405180910390f35b34801561041457600080fd5b5061042f600480360381019061042a91906126c1565b611f79565b005b34801561043d57600080fd5b506104586004803603810190610453919061298b565b6123c6565b005b34801561046657600080fd5b50610481600480360381019061047c919061298b565b61244c565b60405161048e9190612675565b60405180910390f35b3480156104a357600080fd5b506104ac612464565b6040516104b99190612a17565b60405180910390f35b600080600090508091505090565b60006005600083815260200190815260200160002090503373ffffffffffffffffffffffffffffffffffffffff168160010160009054906101000a900473ffffffffffffffffffffffffffffffffffffffff1673ffffffffffffffffffffffffffffffffffffffff16148061057757503373ffffffffffffffffffffffffffffffffffffffff1661055f610e65565b73ffffffffffffffffffffffffffffffffffffffff16145b6105b6576040517f08c379a00000000000000000000000000000000000000000000000000000000081526004016105ad90612a8f565b60405180910390fd5b600060028111156105ca576105c9612813565b5b8160040160009054906101000a900460ff1660028111156105ee576105ed612813565b5b1461062e576040517f08c379a000000000000000000000000000000000000000000000000000000000815260040161062590612afb565b60405180910390fd5b60018081111561064157610640612813565b5b8160040160019054906101000a900460ff16600181111561066557610664612813565b5b036106fe57600073ffffffffffffffffffffffffffffffffffffffff168160060160009054906101000a900473ffffffffffffffffffffffffffffffffffffffff1673ffffffffffffffffffffffffffffffffffffffff16146106fd576040517f08c379a00000000000000000000000000000000000000000000000000000000081526004016106f490612b67565b60405180910390fd5b5b60028160040160006101000a81548160ff0219169083600281111561072657610725612813565b5b02179055506006600082600201548152602001908152602001600020600090557f411aee90354c51b1b04cd563fcab2617142a9d50da19232d888547c8a1b7fd8a826040516107759190612675565b60405180910390a15050565b61078961248a565b6000600760003373ffffffffffffffffffffffffffffffffffffffff1673ffffffffffffffffffffffffffffffffffffffff16815260200190815260200160002054905060008111610810576040517f08c379a000000000000000000000000000000000000000000000000000000000815260040161080790612bd3565b60405180910390fd5b6000600760003373ffffffffffffffffffffffffffffffffffffffff1673ffffffffffffffffffffffffffffffffffffffff168152602001908152602001600020819055503373ffffffffffffffffffffffffffffffffffffffff166108fc829081150290604051600060405180830381858888f1935050505015801561089b573d6000803e3d6000fd5b50506108a56124d0565b565b6108af6124da565b6108b7610e65565b73ffffffffffffffffffffffffffffffffffffffff166108fc6108d86104c2565b476108e39190612c22565b9081150290604051600060405180830381858888f1935050505015801561090e573d6000803e3d6000fd5b50565b61091961248a565b60006005600083815260200190815260200160002090506000600281111561094457610943612813565b5b8160040160009054906101000a900460ff16600281111561096857610967612813565b5b146109a8576040517f08c379a000000000000000000000000000000000000000000000000000000000815260040161099f90612afb565b60405180910390fd5b600060018111156109bc576109bb612813565b5b8160040160019054906101000a900460ff1660018111156109e0576109df612813565b5b14610a20576040517f08c379a0000000000000000000000000000000000000000000000000000000008152600401610a1790612cc8565b60405180910390fd5b8060030154341015610a67576040517f08c379a0000000000000000000000000000000000000000000000000000000008152600401610a5e90612d34565b60405180910390fd5b8060010160009054906101000a900473ffffffffffffffffffffffffffffffffffffffff1673ffffffffffffffffffffffffffffffffffffffff163373ffffffffffffffffffffffffffffffffffffffff1603610af9576040517f08c379a0000000000000000000000000000000000000000000000000000000008152600401610af090612dc6565b60405180910390fd5b60018160040160006101000a81548160ff02191690836002811115610b2157610b20612813565b5b021790555060006103e86004548360030154610b3d9190612de6565b610b479190612e57565b90506000818360030154610b5b9190612c22565b905080600760008560010160009054906101000a900473ffffffffffffffffffffffffffffffffffffffff1673ffffffffffffffffffffffffffffffffffffffff1673ffffffffffffffffffffffffffffffffffffffff1681526020019081526020016000206000828254610bd09190612e88565b92505081905550600360009054906101000a900473ffffffffffffffffffffffffffffffffffffffff1673ffffffffffffffffffffffffffffffffffffffff166323b872dd8460010160009054906101000a900473ffffffffffffffffffffffffffffffffffffffff163386600201546040518463ffffffff1660e01b8152600401610c5e93929190612ebc565b600060405180830381600087803b158015610c7857600080fd5b505af1158015610c8c573d6000803e3d6000fd5b505050506006600084600201548152602001908152602001600020600090558260030154341115610d0e573373ffffffffffffffffffffffffffffffffffffffff166108fc846003015434610ce19190612c22565b9081150290604051600060405180830381858888f19350505050158015610d0c573d6000803e3d6000fd5b505b7f2a874701b7ea6bbde0fc434e0f3a8befb0bc72091995b805f8c6fa57bef2954984338560030154604051610d4593929190612ef3565b60405180910390a1505050610d586124d0565b50565b610d636124da565b600860009054906101000a900460ff1615600860006101000a81548160ff021916908315150217905550565b600860009054906101000a900460ff1681565b60066020528060005260406000206000915090505481565b610dc26124da565b610dcc6000612561565b565b600080600090506000600190505b610de66002612627565b8111610e5d5760006002811115610e0057610dff612813565b5b6005600083815260200190815260200160002060040160009054906101000a900460ff166002811115610e3657610e35612813565b5b03610e4a578180610e4690612f2a565b9250505b8080610e5590612f2a565b915050610ddc565b508091505090565b6000600160009054906101000a900473ffffffffffffffffffffffffffffffffffffffff16905090565b610e9761248a565b600060056000838152602001908152602001600020905060006002811115610ec257610ec1612813565b5b8160040160009054906101000a900460ff166002811115610ee657610ee5612813565b5b14610f26576040517f08c379a0000000000000000000000000000000000000000000000000000000008152600401610f1d90612afb565b60405180910390fd5b600180811115610f3957610f38612813565b5b8160040160019054906101000a900460ff166001811115610f5d57610f5c612813565b5b14610f9d576040517f08c379a0000000000000000000000000000000000000000000000000000000008152600401610f9490612fbe565b60405180910390fd5b80600501544210610fe3576040517f08c379a0000000000000000000000000000000000000000000000000000000008152600401610fda9061302a565b60405180910390fd5b8060010160009054906101000a900473ffffffffffffffffffffffffffffffffffffffff1673ffffffffffffffffffffffffffffffffffffffff163373ffffffffffffffffffffffffffffffffffffffff1603611075576040517f08c379a000000000000000000000000000000000000000000000000000000000815260040161106c906130bc565b60405180910390fd5b600073ffffffffffffffffffffffffffffffffffffffff168160060160009054906101000a900473ffffffffffffffffffffffffffffffffffffffff1673ffffffffffffffffffffffffffffffffffffffff1603611119578060030154341015611114576040517f08c379a000000000000000000000000000000000000000000000000000000000815260040161110b9061314e565b60405180910390fd5b6111de565b8060070154341161115f576040517f08c379a0000000000000000000000000000000000000000000000000000000008152600401611156906131e0565b60405180910390fd5b8060070154600760008360060160009054906101000a900473ffffffffffffffffffffffffffffffffffffffff1673ffffffffffffffffffffffffffffffffffffffff1673ffffffffffffffffffffffffffffffffffffffff16815260200190815260200160002060008282546111d69190612e88565b925050819055505b338160060160006101000a81548173ffffffffffffffffffffffffffffffffffffffff021916908373ffffffffffffffffffffffffffffffffffffffff1602179055503481600701819055507f0e54eff26401bf69b81b26f60bd85ef47f5d85275c1d268d84f68d6897431c4782333460405161125d93929190612ef3565b60405180910390a15061126e6124d0565b50565b6000806006600084815260200190815260200160002054141580156112f05750600060028111156112a5576112a4612813565b5b600560006006600086815260200190815260200160002054815260200190815260200160002060040160009054906101000a900460ff1660028111156112ee576112ed612813565b5b145b9050919050565b60045481565b3373ffffffffffffffffffffffffffffffffffffffff16600360009054906101000a900473ffffffffffffffffffffffffffffffffffffffff1673ffffffffffffffffffffffffffffffffffffffff16636352211e846040518263ffffffff1660e01b815260040161136f9190612675565b602060405180830381865afa15801561138c573d6000803e3d6000fd5b505050506040513d601f19601f820116820180604052508101906113b09190613215565b73ffffffffffffffffffffffffffffffffffffffff1614611406576040517f08c379a00000000000000000000000000000000000000000000000000000000081526004016113fd9061328e565b60405180910390fd5b60008111611449576040517f08c379a0000000000000000000000000000000000000000000000000000000008152600401611440906132fa565b60405180910390fd5b600060066000848152602001908152602001600020541461149f576040517f08c379a000000000000000000000000000000000000000000000000000000000815260040161149690613366565b60405180910390fd5b3073ffffffffffffffffffffffffffffffffffffffff16600360009054906101000a900473ffffffffffffffffffffffffffffffffffffffff1673ffffffffffffffffffffffffffffffffffffffff1663081812fc846040518263ffffffff1660e01b81526004016115119190612675565b602060405180830381865afa15801561152e573d6000803e3d6000fd5b505050506040513d601f19601f820116820180604052508101906115529190613215565b73ffffffffffffffffffffffffffffffffffffffff16148061160e5750600360009054906101000a900473ffffffffffffffffffffffffffffffffffffffff1673ffffffffffffffffffffffffffffffffffffffff1663e985e9c533306040518363ffffffff1660e01b81526004016115cc929190613386565b602060405180830381865afa1580156115e9573d6000803e3d6000fd5b505050506040513d601f19601f8201168201806040525081019061160d91906133db565b5b61164d576040517f08c379a00000000000000000000000000000000000000000000000000000000081526004016116449061347a565b60405180910390fd5b6116576002612635565b60006116636002612627565b90506040518061012001604052808281526020013373ffffffffffffffffffffffffffffffffffffffff168152602001848152602001838152602001600060028111156116b3576116b2612813565b5b8152602001600060018111156116cc576116cb612813565b5b815260200160008152602001600073ffffffffffffffffffffffffffffffffffffffff1681526020016000815250600560008381526020019081526020016000206000820151816000015560208201518160010160006101000a81548173ffffffffffffffffffffffffffffffffffffffff021916908373ffffffffffffffffffffffffffffffffffffffff160217905550604082015181600201556060820151816003015560808201518160040160006101000a81548160ff0219169083600281111561179d5761179c612813565b5b021790555060a08201518160040160016101000a81548160ff021916908360018111156117cd576117cc612813565b5b021790555060c0820151816005015560e08201518160060160006101000a81548173ffffffffffffffffffffffffffffffffffffffff021916908373ffffffffffffffffffffffffffffffffffffffff16021790555061010082015181600701559050508060066000858152602001908152602001600020819055507fcf6475363666dcade68b608a6f05eb7cb08f7052ae9823e0b87ff6bad4891c2581338585600080604051611883969594939291906134d5565b60405180910390a1505050565b6118986124da565b60648111156118dc576040517f08c379a00000000000000000000000000000000000000000000000000000000081526004016118d390613582565b60405180910390fd5b8060048190555050565b3373ffffffffffffffffffffffffffffffffffffffff16600360009054906101000a900473ffffffffffffffffffffffffffffffffffffffff1673ffffffffffffffffffffffffffffffffffffffff16636352211e856040518263ffffffff1660e01b81526004016119589190612675565b602060405180830381865afa158015611975573d6000803e3d6000fd5b505050506040513d601f19601f820116820180604052508101906119999190613215565b73ffffffffffffffffffffffffffffffffffffffff16146119ef576040517f08c379a00000000000000000000000000000000000000000000000000000000081526004016119e69061328e565b60405180910390fd5b60008211611a32576040517f08c379a0000000000000000000000000000000000000000000000000000000008152600401611a2990613614565b60405180910390fd5b60008111611a75576040517f08c379a0000000000000000000000000000000000000000000000000000000008152600401611a6c906136a6565b60405180910390fd5b6000600660008581526020019081526020016000205414611acb576040517f08c379a0000000000000000000000000000000000000000000000000000000008152600401611ac290613366565b60405180910390fd5b3073ffffffffffffffffffffffffffffffffffffffff16600360009054906101000a900473ffffffffffffffffffffffffffffffffffffffff1673ffffffffffffffffffffffffffffffffffffffff1663081812fc856040518263ffffffff1660e01b8152600401611b3d9190612675565b602060405180830381865afa158015611b5a573d6000803e3d6000fd5b505050506040513d601f19601f82011682018060405250810190611b7e9190613215565b73ffffffffffffffffffffffffffffffffffffffff161480611c3a5750600360009054906101000a900473ffffffffffffffffffffffffffffffffffffffff1673ffffffffffffffffffffffffffffffffffffffff1663e985e9c533306040518363ffffffff1660e01b8152600401611bf8929190613386565b602060405180830381865afa158015611c15573d6000803e3d6000fd5b505050506040513d601f19601f82011682018060405250810190611c3991906133db565b5b611c79576040517f08c379a0000000000000000000000000000000000000000000000000000000008152600401611c709061347a565b60405180910390fd5b611c836002612635565b6000611c8f6002612627565b90506040518061012001604052808281526020013373ffffffffffffffffffffffffffffffffffffffff16815260200185815260200184815260200160006002811115611cdf57611cde612813565b5b8152602001600180811115611cf757611cf6612813565b5b81526020018342611d089190612e88565b8152602001600073ffffffffffffffffffffffffffffffffffffffff1681526020016000815250600560008381526020019081526020016000206000820151816000015560208201518160010160006101000a81548173ffffffffffffffffffffffffffffffffffffffff021916908373ffffffffffffffffffffffffffffffffffffffff160217905550604082015181600201556060820151816003015560808201518160040160006101000a81548160ff02191690836002811115611dd257611dd1612813565b5b021790555060a08201518160040160016101000a81548160ff02191690836001811115611e0257611e01612813565b5b021790555060c0820151816005015560e08201518160060160006101000a81548173ffffffffffffffffffffffffffffffffffffffff021916908373ffffffffffffffffffffffffffffffffffffffff16021790555061010082015181600701559050508060066000868152602001908152602001600020819055507fcf6475363666dcade68b608a6f05eb7cb08f7052ae9823e0b87ff6bad4891c258133868660018742611eb19190612e88565b604051611ec3969594939291906136c6565b60405180910390a150505050565b60056020528060005260406000206000915090508060000154908060010160009054906101000a900473ffffffffffffffffffffffffffffffffffffffff16908060020154908060030154908060040160009054906101000a900460ff16908060040160019054906101000a900460ff16908060050154908060060160009054906101000a900473ffffffffffffffffffffffffffffffffffffffff16908060070154905089565b611f8161248a565b600060056000838152602001908152602001600020905060006002811115611fac57611fab612813565b5b8160040160009054906101000a900460ff166002811115611fd057611fcf612813565b5b14612010576040517f08c379a000000000000000000000000000000000000000000000000000000000815260040161200790612afb565b60405180910390fd5b60018081111561202357612022612813565b5b8160040160019054906101000a900460ff16600181111561204757612046612813565b5b14612087576040517f08c379a000000000000000000000000000000000000000000000000000000000815260040161207e90612fbe565b60405180910390fd5b80600501544210156120ce576040517f08c379a00000000000000000000000000000000000000000000000000000000081526004016120c590613773565b60405180910390fd5b60018160040160006101000a81548160ff021916908360028111156120f6576120f5612813565b5b0217905550600073ffffffffffffffffffffffffffffffffffffffff168160060160009054906101000a900473ffffffffffffffffffffffffffffffffffffffff1673ffffffffffffffffffffffffffffffffffffffff16036121ab576006600082600201548152602001908152602001600020600090557f411aee90354c51b1b04cd563fcab2617142a9d50da19232d888547c8a1b7fd8a8260405161219d9190612675565b60405180910390a1506123bb565b60006103e860045483600701546121c29190612de6565b6121cc9190612e57565b905060008183600701546121e09190612c22565b905080600760008560010160009054906101000a900473ffffffffffffffffffffffffffffffffffffffff1673ffffffffffffffffffffffffffffffffffffffff1673ffffffffffffffffffffffffffffffffffffffff16815260200190815260200160002060008282546122559190612e88565b92505081905550600360009054906101000a900473ffffffffffffffffffffffffffffffffffffffff1673ffffffffffffffffffffffffffffffffffffffff166323b872dd8460010160009054906101000a900473ffffffffffffffffffffffffffffffffffffffff168560060160009054906101000a900473ffffffffffffffffffffffffffffffffffffffff1686600201546040518463ffffffff1660e01b815260040161230793929190612ebc565b600060405180830381600087803b15801561232157600080fd5b505af1158015612335573d6000803e3d6000fd5b505050506006600084600201548152602001908152602001600020600090557f4d9113a1377d665eaa1f9168a9c9080f2e488cb820b10149de3d6d2e0f2780c7848460060160009054906101000a900473ffffffffffffffffffffffffffffffffffffffff1685600701546040516123af93929190612ef3565b60405180910390a15050505b6123c36124d0565b50565b6123ce6124da565b600073ffffffffffffffffffffffffffffffffffffffff168173ffffffffffffffffffffffffffffffffffffffff16036124405760006040517f1e4fbdf70000000000000000000000000000000000000000000000000000000081526004016124379190612765565b60405180910390fd5b61244981612561565b50565b60076020528060005260406000206000915090505481565b600360009054906101000a900473ffffffffffffffffffffffffffffffffffffffff1681565b6002600054036124c6576040517f3ee5aeb500000000000000000000000000000000000000000000000000000000815260040160405180910390fd5b6002600081905550565b6001600081905550565b6124e2612654565b73ffffffffffffffffffffffffffffffffffffffff16612500610e65565b73ffffffffffffffffffffffffffffffffffffffff161461255f57612523612654565b6040517f118cdaa70000000000000000000000000000000000000000000000000000000081526004016125569190612765565b60405180910390fd5b565b6000600160009054906101000a900473ffffffffffffffffffffffffffffffffffffffff16905081600160006101000a81548173ffffffffffffffffffffffffffffffffffffffff021916908373ffffffffffffffffffffffffffffffffffffffff1602179055508173ffffffffffffffffffffffffffffffffffffffff168173ffffffffffffffffffffffffffffffffffffffff167f8be0079c531659141344cd1fd0a4f28419497f9722a3daafe3b4186f6b6457e060405160405180910390a35050565b600081600001549050919050565b600181600001600082825461264a9190612e88565b9250508190555050565b600033905090565b6000819050919050565b61266f8161265c565b82525050565b600060208201905061268a6000830184612666565b92915050565b600080fd5b61269e8161265c565b81146126a957600080fd5b50565b6000813590506126bb81612695565b92915050565b6000602082840312156126d7576126d6612690565b5b60006126e5848285016126ac565b91505092915050565b60008115159050919050565b612703816126ee565b82525050565b600060208201905061271e60008301846126fa565b92915050565b600073ffffffffffffffffffffffffffffffffffffffff82169050919050565b600061274f82612724565b9050919050565b61275f81612744565b82525050565b600060208201905061277a6000830184612756565b92915050565b6000806040838503121561279757612796612690565b5b60006127a5858286016126ac565b92505060206127b6858286016126ac565b9150509250929050565b6000806000606084860312156127d9576127d8612690565b5b60006127e7868287016126ac565b93505060206127f8868287016126ac565b9250506040612809868287016126ac565b9150509250925092565b7f4e487b7100000000000000000000000000000000000000000000000000000000600052602160045260246000fd5b6003811061285357612852612813565b5b50565b600081905061286482612842565b919050565b600061287482612856565b9050919050565b61288481612869565b82525050565b6002811061289b5761289a612813565b5b50565b60008190506128ac8261288a565b919050565b60006128bc8261289e565b9050919050565b6128cc816128b1565b82525050565b6000610120820190506128e8600083018c612666565b6128f5602083018b612756565b612902604083018a612666565b61290f6060830189612666565b61291c608083018861287b565b61292960a08301876128c3565b61293660c0830186612666565b61294360e0830185612756565b612951610100830184612666565b9a9950505050505050505050565b61296881612744565b811461297357600080fd5b50565b6000813590506129858161295f565b92915050565b6000602082840312156129a1576129a0612690565b5b60006129af84828501612976565b91505092915050565b6000819050919050565b60006129dd6129d86129d384612724565b6129b8565b612724565b9050919050565b60006129ef826129c2565b9050919050565b6000612a01826129e4565b9050919050565b612a11816129f6565b82525050565b6000602082019050612a2c6000830184612a08565b92915050565b600082825260208201905092915050565b7f4f6e6c792073656c6c6572206f72206f776e65722063616e2063616e63656c00600082015250565b6000612a79601f83612a32565b9150612a8482612a43565b602082019050919050565b60006020820190508181036000830152612aa881612a6c565b9050919050565b7f4c697374696e67206973206e6f74206163746976650000000000000000000000600082015250565b6000612ae5601583612a32565b9150612af082612aaf565b602082019050919050565b60006020820190508181036000830152612b1481612ad8565b9050919050565b7f43616e6e6f742063616e63656c2061756374696f6e2077697468206269647300600082015250565b6000612b51601f83612a32565b9150612b5c82612b1b565b602082019050919050565b60006020820190508181036000830152612b8081612b44565b9050919050565b7f4e6f2066756e647320746f207769746864726177000000000000000000000000600082015250565b6000612bbd601483612a32565b9150612bc882612b87565b602082019050919050565b60006020820190508181036000830152612bec81612bb0565b9050919050565b7f4e487b7100000000000000000000000000000000000000000000000000000000600052601160045260246000fd5b6000612c2d8261265c565b9150612c388361265c565b9250828203905081811115612c5057612c4f612bf3565b5b92915050565b7f54686973206973206e6f742061206669786564207072696365206c697374696e60008201527f6700000000000000000000000000000000000000000000000000000000000000602082015250565b6000612cb2602183612a32565b9150612cbd82612c56565b604082019050919050565b60006020820190508181036000830152612ce181612ca5565b9050919050565b7f496e73756666696369656e74207061796d656e74000000000000000000000000600082015250565b6000612d1e601483612a32565b9150612d2982612ce8565b602082019050919050565b60006020820190508181036000830152612d4d81612d11565b9050919050565b7f53656c6c65722063616e6e6f7420627579207468656972206f776e206c69737460008201527f696e670000000000000000000000000000000000000000000000000000000000602082015250565b6000612db0602383612a32565b9150612dbb82612d54565b604082019050919050565b60006020820190508181036000830152612ddf81612da3565b9050919050565b6000612df18261265c565b9150612dfc8361265c565b9250828202612e0a8161265c565b91508282048414831517612e2157612e20612bf3565b5b5092915050565b7f4e487b7100000000000000000000000000000000000000000000000000000000600052601260045260246000fd5b6000612e628261265c565b9150612e6d8361265c565b925082612e7d57612e7c612e28565b5b828204905092915050565b6000612e938261265c565b9150612e9e8361265c565b9250828201905080821115612eb657612eb5612bf3565b5b92915050565b6000606082019050612ed16000830186612756565b612ede6020830185612756565b612eeb6040830184612666565b949350505050565b6000606082019050612f086000830186612666565b612f156020830185612756565b612f226040830184612666565b949350505050565b6000612f358261265c565b91507fffffffffffffffffffffffffffffffffffffffffffffffffffffffffffffffff8203612f6757612f66612bf3565b5b600182019050919050565b7f54686973206973206e6f7420616e2061756374696f6e00000000000000000000600082015250565b6000612fa8601683612a32565b9150612fb382612f72565b602082019050919050565b60006020820190508181036000830152612fd781612f9b565b9050919050565b7f41756374696f6e2068617320656e646564000000000000000000000000000000600082015250565b6000613014601183612a32565b915061301f82612fde565b602082019050919050565b6000602082019050818103600083015261304381613007565b9050919050565b7f53656c6c65722063616e6e6f7420626964206f6e207468656972206f776e206160008201527f756374696f6e0000000000000000000000000000000000000000000000000000602082015250565b60006130a6602683612a32565b91506130b18261304a565b604082019050919050565b600060208201905081810360008301526130d581613099565b9050919050565b7f426964206d757374206265206174206c6561737420746865207374617274696e60008201527f6720707269636500000000000000000000000000000000000000000000000000602082015250565b6000613138602783612a32565b9150613143826130dc565b604082019050919050565b600060208201905081810360008301526131678161312b565b9050919050565b7f426964206d75737420626520686967686572207468616e2063757272656e742060008201527f6869676865737420626964000000000000000000000000000000000000000000602082015250565b60006131ca602b83612a32565b91506131d58261316e565b604082019050919050565b600060208201905081810360008301526131f9816131bd565b9050919050565b60008151905061320f8161295f565b92915050565b60006020828403121561322b5761322a612690565b5b600061323984828501613200565b91505092915050565b7f596f7520646f6e2774206f776e207468697320746f6b656e0000000000000000600082015250565b6000613278601883612a32565b915061328382613242565b602082019050919050565b600060208201905081810360008301526132a78161326b565b9050919050565b7f5072696365206d7573742062652067726561746572207468616e207a65726f00600082015250565b60006132e4601f83612a32565b91506132ef826132ae565b602082019050919050565b60006020820190508181036000830152613313816132d7565b9050919050565b7f546f6b656e20616c7265616479206c6973746564000000000000000000000000600082015250565b6000613350601483612a32565b915061335b8261331a565b602082019050919050565b6000602082019050818103600083015261337f81613343565b9050919050565b600060408201905061339b6000830185612756565b6133a86020830184612756565b9392505050565b6133b8816126ee565b81146133c357600080fd5b50565b6000815190506133d5816133af565b92915050565b6000602082840312156133f1576133f0612690565b5b60006133ff848285016133c6565b91505092915050565b7f4d61726b6574706c616365206e6f7420617070726f76656420746f207472616e60008201527f73666572207468697320746f6b656e0000000000000000000000000000000000602082015250565b6000613464602f83612a32565b915061346f82613408565b604082019050919050565b6000602082019050818103600083015261349381613457565b9050919050565b6000819050919050565b60006134bf6134ba6134b58461349a565b6129b8565b61265c565b9050919050565b6134cf816134a4565b82525050565b600060c0820190506134ea6000830189612666565b6134f76020830188612756565b6135046040830187612666565b6135116060830186612666565b61351e60808301856128c3565b61352b60a08301846134c6565b979650505050505050565b7f4665652070657263656e746167652063616e6e6f742065786365656420313025600082015250565b600061356c602083612a32565b915061357782613536565b602082019050919050565b6000602082019050818103600083015261359b8161355f565b9050919050565b7f5374617274696e67207072696365206d7573742062652067726561746572207460008201527f68616e207a65726f000000000000000000000000000000000000000000000000602082015250565b60006135fe602883612a32565b9150613609826135a2565b604082019050919050565b6000602082019050818103600083015261362d816135f1565b9050919050565b7f4475726174696f6e206d7573742062652067726561746572207468616e207a6560008201527f726f000000000000000000000000000000000000000000000000000000000000602082015250565b6000613690602283612a32565b915061369b82613634565b604082019050919050565b600060208201905081810360008301526136bf81613683565b9050919050565b600060c0820190506136db6000830189612666565b6136e86020830188612756565b6136f56040830187612666565b6137026060830186612666565b61370f60808301856128c3565b61371c60a0830184612666565b979650505050505050565b7f41756374696f6e20686173206e6f7420656e6465642079657400000000000000600082015250565b600061375d601983612a32565b915061376882613727565b602082019050919050565b6000602082019050818103600083015261378c81613750565b905091905056fea26469706673582212203a6f53ea8e1aa7b95bd0af66a85e1fbec40ef2c74cedd4d4a1aa6efc767bf5e764736f6c63430008140033",
  "linkReferences": {},
  "deployedLinkReferences": {}
}