{
  "_format": "hh-sol-artifact-1",
  "contractName": "PokemonMarketplace",
  "sourceName": "contracts/PokemonMarketplace.sol",
  "abi": [
    {
      "inputs": [
        {
          "internalType": "address",
          "name": "_nftContract",
          "type": "address"
        }
      ],
      "stateMutability": "nonpayable",
      "type": "constructor"
    },
    {
      "inputs": [
        {
          "internalType": "address",
          "name": "owner",
          "type": "address"
        }
      ],
      "name": "OwnableInvalidOwner",
      "type": "error"
    },
    {
      "inputs": [
        {
          "internalType": "address",
          "name": "account",
          "type": "address"
        }
      ],
      "name": "OwnableUnauthorizedAccount",
      "type": "error"
    },
    {
      "inputs": [],
      "name": "ReentrancyGuardReentrantCall",
      "type": "error"
    },
    {
      "anonymous": false,
      "inputs": [
        {
          "indexed": false,
          "internalType": "uint256",
          "name": "listingId",
          "type": "uint256"
        },
        {
          "indexed": false,
          "internalType": "address",
          "name": "winner",
          "type": "address"
        },
        {
          "indexed": false,
          "internalType": "uint256",
          "name": "price",
          "type": "uint256"
        }
      ],
      "name": "AuctionFinalized",
      "type": "event"
    },
    {
      "anonymous": false,
      "inputs": [
        {
          "indexed": false,
          "internalType": "uint256",
          "name": "listingId",
          "type": "uint256"
        },
        {
          "indexed": false,
          "internalType": "address",
          "name": "bidder",
          "type": "address"
        },
        {
          "indexed": false,
          "internalType": "uint256",
          "name": "bid",
          "type": "uint256"
        }
      ],
      "name": "BidPlaced",
      "type": "event"
    },
    {
      "anonymous": false,
      "inputs": [
        {
          "indexed": false,
          "internalType": "uint256",
          "name": "listingId",
          "type": "uint256"
        }
      ],
      "name": "ListingCancelled",
      "type": "event"
    },
    {
      "anonymous": false,
      "inputs": [
        {
          "indexed": false,
          "internalType": "uint256",
          "name": "listingId",
          "type": "uint256"
        },
        {
          "indexed": false,
          "internalType": "address",
          "name": "seller",
          "type": "address"
        },
        {
          "indexed": false,
          "internalType": "uint256",
          "name": "tokenId",
          "type": "uint256"
        },
        {
          "indexed": false,
          "internalType": "uint256",
          "name": "price",
          "type": "uint256"
        },
        {
          "indexed": false,
          "internalType": "enum PokemonMarketplace.ListingType",
          "name": "listingType",
          "type": "uint8"
        },
        {
          "indexed": false,
          "internalType": "uint256",
          "name": "auctionEndTime",
          "type": "uint256"
        }
      ],
      "name": "ListingCreated",
      "type": "event"
    },
    {
      "anonymous": false,
      "inputs": [
        {
          "indexed": false,
          "internalType": "uint256",
          "name": "listingId",
          "type": "uint256"
        },
        {
          "indexed": false,
          "internalType": "address",
          "name": "buyer",
          "type": "address"
        },
        {
          "indexed": false,
          "internalType": "uint256",
          "name": "price",
          "type": "uint256"
        }
      ],
      "name": "ListingSuccessful",
      "type": "event"
    },
    {
      "anonymous": false,
      "inputs": [
        {
          "indexed": true,
          "internalType": "address",
          "name": "previousOwner",
          "type": "address"
        },
        {
          "indexed": true,
          "internalType": "address",
          "name": "newOwner",
          "type": "address"
        }
      ],
      "name": "OwnershipTransferred",
      "type": "event"
    },
    {
      "inputs": [
        {
          "internalType": "uint256",
          "name": "listingId",
          "type": "uint256"
        }
      ],
      "name": "buyListing",
      "outputs": [],
      "stateMutability": "payable",
      "type": "function"
    },
    {
      "inputs": [
        {
          "internalType": "uint256",
          "name": "listingId",
          "type": "uint256"
        }
      ],
      "name": "cancelListing",
      "outputs": [],
      "stateMutability": "nonpayable",
      "type": "function"
    },
    {
      "inputs": [
        {
          "internalType": "uint256",
          "name": "tokenId",
          "type": "uint256"
        },
        {
          "internalType": "uint256",
          "name": "startingPrice",
          "type": "uint256"
        },
        {
          "internalType": "uint256",
          "name": "duration",
          "type": "uint256"
        }
      ],
      "name": "createAuction",
      "outputs": [],
      "stateMutability": "nonpayable",
      "type": "function"
    },
    {
      "inputs": [
        {
          "internalType": "uint256",
          "name": "tokenId",
          "type": "uint256"
        },
        {
          "internalType": "uint256",
          "name": "price",
          "type": "uint256"
        }
      ],
      "name": "createListing",
      "outputs": [],
      "stateMutability": "nonpayable",
      "type": "function"
    },
    {
      "inputs": [],
      "name": "emergencyStop",
      "outputs": [
        {
          "internalType": "bool",
          "name": "",
          "type": "bool"
        }
      ],
      "stateMutability": "view",
      "type": "function"
    },
    {
      "inputs": [],
      "name": "feePercentage",
      "outputs": [
        {
          "internalType": "uint256",
          "name": "",
          "type": "uint256"
        }
      ],
      "stateMutability": "view",
      "type": "function"
    },
    {
      "inputs": [
        {
          "internalType": "uint256",
          "name": "listingId",
          "type": "uint256"
        }
      ],
      "name": "finalizeAuction",
      "outputs": [],
      "stateMutability": "nonpayable",
      "type": "function"
    },
    {
      "inputs": [],
      "name": "getActiveListingCount",
      "outputs": [
        {
          "internalType": "uint256",
          "name": "",
          "type": "uint256"
        }
      ],
      "stateMutability": "view",
      "type": "function"
    },
    {
      "inputs": [],
      "name": "getTotalPendingWithdrawals",
      "outputs": [
        {
          "internalType": "uint256",
          "name": "",
          "type": "uint256"
        }
      ],
      "stateMutability": "view",
      "type": "function"
    },
    {
      "inputs": [
        {
          "internalType": "uint256",
          "name": "tokenId",
          "type": "uint256"
        }
      ],
      "name": "isTokenListed",
      "outputs": [
        {
          "internalType": "bool",
          "name": "",
          "type": "bool"
        }
      ],
      "stateMutability": "view",
      "type": "function"
    },
    {
      "inputs": [
        {
          "internalType": "uint256",
          "name": "",
          "type": "uint256"
        }
      ],
      "name": "listings",
      "outputs": [
        {
          "internalType": "uint256",
          "name": "listingId",
          "type": "uint256"
        },
        {
          "internalType": "address",
          "name": "seller",
          "type": "address"
        },
        {
          "internalType": "uint256",
          "name": "tokenId",
          "type": "uint256"
        },
        {
          "internalType": "uint256",
          "name": "price",
          "type": "uint256"
        },
        {
          "internalType": "enum PokemonMarketplace.ListingStatus",
          "name": "status",
          "type": "uint8"
        },
        {
          "internalType": "enum PokemonMarketplace.ListingType",
          "name": "listingType",
          "type": "uint8"
        },
        {
          "internalType": "uint256",
          "name": "auctionEndTime",
          "type": "uint256"
        },
        {
          "internalType": "address",
          "name": "highestBidder",
          "type": "address"
        },
        {
          "internalType": "uint256",
          "name": "highestBid",
          "type": "uint256"
        }
      ],
      "stateMutability": "view",
      "type": "function"
    },
    {
      "inputs": [],
      "name": "owner",
      "outputs": [
        {
          "internalType": "address",
          "name": "",
          "type": "address"
        }
      ],
      "stateMutability": "view",
      "type": "function"
    },
    {
      "inputs": [
        {
          "internalType": "address",
          "name": "",
          "type": "address"
        }
      ],
      "name": "pendingWithdrawals",
      "outputs": [
        {
          "internalType": "uint256",
          "name": "",
          "type": "uint256"
        }
      ],
      "stateMutability": "view",
      "type": "function"
    },
    {
      "inputs": [
        {
          "internalType": "uint256",
          "name": "listingId",
          "type": "uint256"
        }
      ],
      "name": "placeBid",
      "outputs": [],
      "stateMutability": "payable",
      "type": "function"
    },
    {
      "inputs": [],
      "name": "pokemonNFT",
      "outputs": [
        {
          "internalType": "contract PokemonNFT",
          "name": "",
          "type": "address"
        }
      ],
      "stateMutability": "view",
      "type": "function"
    },
    {
      "inputs": [],
      "name": "renounceOwnership",
      "outputs": [],
      "stateMutability": "nonpayable",
      "type": "function"
    },
    {
      "inputs": [
        {
          "internalType": "uint256",
          "name": "_feePercentage",
          "type": "uint256"
        }
      ],
      "name": "setFeePercentage",
      "outputs": [],
      "stateMutability": "nonpayable",
      "type": "function"
    },
    {
      "inputs": [],
      "name": "toggleEmergencyStop",
      "outputs": [],
      "stateMutability": "nonpayable",
      "type": "function"
    },
    {
      "inputs": [
        {
          "internalType": "uint256",
          "name": "",
          "type": "uint256"
        }
      ],
      "name": "tokenIdToListingId",
      "outputs": [
        {
          "internalType": "uint256",
          "name": "",
          "type": "uint256"
        }
      ],
      "stateMutability": "view",
      "type": "function"
    },
    {
      "inputs": [
        {
          "internalType": "address",
          "name": "newOwner",
          "type": "address"
        }
      ],
      "name": "transferOwnership",
      "outputs": [],
      "stateMutability": "nonpayable",
      "type": "function"
    },
    {
      "inputs": [],
      "name": "withdraw",
      "outputs": [],
      "stateMutability": "nonpayable",
      "type": "function"
    },
    {
      "inputs": [],
      "name": "withdrawFees",
      "outputs": [],
      "stateMutability": "nonpayable",
      "type": "function"
    }
  ],
  "bytecode": "0x608060405260196004556000600860006101000a81548160ff0219169083151502179055503480156200003157600080fd5b5060405162003cba38038062003cba83398181016040528101906200005791906200025f565b336001600081905550600073ffffffffffffffffffffffffffffffffffffffff168173ffffffffffffffffffffffffffffffffffffffff1603620000d55760006040517f1e4fbdf7000000000000000000000000000000000000000000000000000000008152600401620000cc9190620002a2565b60405180910390fd5b620000e6816200012f60201b60201c565b5080600360006101000a81548173ffffffffffffffffffffffffffffffffffffffff021916908373ffffffffffffffffffffffffffffffffffffffff16021790555050620002bf565b6000600160009054906101000a900473ffffffffffffffffffffffffffffffffffffffff16905081600160006101000a81548173ffffffffffffffffffffffffffffffffffffffff021916908373ffffffffffffffffffffffffffffffffffffffff1602179055508173ffffffffffffffffffffffffffffffffffffffff168173ffffffffffffffffffffffffffffffffffffffff167f8be0079c531659141344cd1fd0a4f28419497f9722a3daafe3b4186f6b6457e060405160405180910390a35050565b600080fd5b600073ffffffffffffffffffffffffffffffffffffffff82169050919050565b60006200022782620001fa565b9050919050565b62000239816200021a565b81146200024557600080fd5b50565b60008151905062000259816200022e565b92915050565b600060208284031215620002785762000277620001f5565b5b6000620002888482850162000248565b91505092915050565b6200029c816200021a565b82525050565b6000602082019050620002b9600083018462000291565b92915050565b6139eb80620002cf6000396000f3fe6080604052600436106101355760003560e01c80639979ef45116100ab578063cda4beef1161006f578063cda4beef1461039a578063de74e57b146103c3578063e808386314610408578063f2fde38b14610431578063f3f437031461045a578063f87190601461049757610135565b80639979ef45146102c45780639b83cddc146102e0578063a001ecdd1461031d578063a79123a914610348578063ae06c1b71461037157610135565b80634b7aac94116100fd5780634b7aac94146101d857806363a599a4146101ef57806365a503dd1461021a578063715018a614610257578063774208441461026e5780638da5cb5b1461029957610135565b806310877ac11461013a578063305a67a8146101655780633ccfd60b1461018e578063476343ee146101a55780634884f459146101bc575b600080fd5b34801561014657600080fd5b5061014f6104c2565b60405161015c9190612805565b60405180910390f35b34801561017157600080fd5b5061018c60048036038101906101879190612851565b6104d0565b005b34801561019a57600080fd5b506101a3610781565b005b3480156101b157600080fd5b506101ba6108a7565b005b6101d660048036038101906101d19190612851565b610911565b005b3480156101e457600080fd5b506101ed610dab565b005b3480156101fb57600080fd5b50610204610ddf565b6040516102119190612899565b60405180910390f35b34801561022657600080fd5b50610241600480360381019061023c9190612851565b610df2565b60405161024e9190612805565b60405180910390f35b34801561026357600080fd5b5061026c610e0a565b005b34801561027a57600080fd5b50610283610e1e565b6040516102909190612805565b60405180910390f35b3480156102a557600080fd5b506102ae610eb5565b6040516102bb91906128f5565b60405180910390f35b6102de60048036038101906102d99190612851565b610edf565b005b3480156102ec57600080fd5b5061030760048036038101906103029190612851565b611311565b6040516103149190612899565b60405180910390f35b34801561032957600080fd5b50610332611397565b60405161033f9190612805565b60405180910390f35b34801561035457600080fd5b5061036f600480360381019061036a9190612910565b61139d565b005b34801561037d57600080fd5b5061039860048036038101906103939190612851565b611980565b005b3480156103a657600080fd5b506103c160048036038101906103bc9190612950565b6119d6565b005b3480156103cf57600080fd5b506103ea60048036038101906103e59190612851565b612011565b6040516103ff99989796959493929190612a62565b60405180910390f35b34801561041457600080fd5b5061042f600480360381019061042a9190612851565b6120b9565b005b34801561043d57600080fd5b5061045860048036038101906104539190612b1b565b612556565b005b34801561046657600080fd5b50610481600480360381019061047c9190612b1b565b6125dc565b60405161048e9190612805565b60405180910390f35b3480156104a357600080fd5b506104ac6125f4565b6040516104b99190612ba7565b60405180910390f35b600080600090508091505090565b60006005600083815260200190815260200160002090503373ffffffffffffffffffffffffffffffffffffffff168160010160009054906101000a900473ffffffffffffffffffffffffffffffffffffffff1673ffffffffffffffffffffffffffffffffffffffff16148061057757503373ffffffffffffffffffffffffffffffffffffffff1661055f610eb5565b73ffffffffffffffffffffffffffffffffffffffff16145b6105b6576040517f08c379a00000000000000000000000000000000000000000000000000000000081526004016105ad90612c1f565b60405180910390fd5b600060028111156105ca576105c96129a3565b5b8160040160009054906101000a900460ff1660028111156105ee576105ed6129a3565b5b1461062e576040517f08c379a000000000000000000000000000000000000000000000000000000000815260040161062590612c8b565b60405180910390fd5b600180811115610641576106406129a3565b5b8160040160019054906101000a900460ff166001811115610665576106646129a3565b5b036106fe57600073ffffffffffffffffffffffffffffffffffffffff168160060160009054906101000a900473ffffffffffffffffffffffffffffffffffffffff1673ffffffffffffffffffffffffffffffffffffffff16146106fd576040517f08c379a00000000000000000000000000000000000000000000000000000000081526004016106f490612cf7565b60405180910390fd5b5b60028160040160006101000a81548160ff02191690836002811115610726576107256129a3565b5b02179055506006600082600201548152602001908152602001600020600090557f411aee90354c51b1b04cd563fcab2617142a9d50da19232d888547c8a1b7fd8a826040516107759190612805565b60405180910390a15050565b61078961261a565b6000600760003373ffffffffffffffffffffffffffffffffffffffff1673ffffffffffffffffffffffffffffffffffffffff16815260200190815260200160002054905060008111610810576040517f08c379a000000000000000000000000000000000000000000000000000000000815260040161080790612d63565b60405180910390fd5b6000600760003373ffffffffffffffffffffffffffffffffffffffff1673ffffffffffffffffffffffffffffffffffffffff168152602001908152602001600020819055503373ffffffffffffffffffffffffffffffffffffffff166108fc829081150290604051600060405180830381858888f1935050505015801561089b573d6000803e3d6000fd5b50506108a5612660565b565b6108af61266a565b6108b7610eb5565b73ffffffffffffffffffffffffffffffffffffffff166108fc6108d86104c2565b476108e39190612db2565b9081150290604051600060405180830381858888f1935050505015801561090e573d6000803e3d6000fd5b50565b61091961261a565b600860009054906101000a900460ff1615610969576040517f08c379a000000000000000000000000000000000000000000000000000000000815260040161096090612e58565b60405180910390fd5b600060056000838152602001908152602001600020905060006002811115610994576109936129a3565b5b8160040160009054906101000a900460ff1660028111156109b8576109b76129a3565b5b146109f8576040517f08c379a00000000000000000000000000000000000000000000000000000000081526004016109ef90612c8b565b60405180910390fd5b60006001811115610a0c57610a0b6129a3565b5b8160040160019054906101000a900460ff166001811115610a3057610a2f6129a3565b5b14610a70576040517f08c379a0000000000000000000000000000000000000000000000000000000008152600401610a6790612eea565b60405180910390fd5b8060030154341015610ab7576040517f08c379a0000000000000000000000000000000000000000000000000000000008152600401610aae90612f56565b60405180910390fd5b8060010160009054906101000a900473ffffffffffffffffffffffffffffffffffffffff1673ffffffffffffffffffffffffffffffffffffffff163373ffffffffffffffffffffffffffffffffffffffff1603610b49576040517f08c379a0000000000000000000000000000000000000000000000000000000008152600401610b4090612fe8565b60405180910390fd5b60018160040160006101000a81548160ff02191690836002811115610b7157610b706129a3565b5b021790555060006103e86004548360030154610b8d9190613008565b610b979190613079565b90506000818360030154610bab9190612db2565b905080600760008560010160009054906101000a900473ffffffffffffffffffffffffffffffffffffffff1673ffffffffffffffffffffffffffffffffffffffff1673ffffffffffffffffffffffffffffffffffffffff1681526020019081526020016000206000828254610c2091906130aa565b92505081905550600360009054906101000a900473ffffffffffffffffffffffffffffffffffffffff1673ffffffffffffffffffffffffffffffffffffffff166323b872dd8460010160009054906101000a900473ffffffffffffffffffffffffffffffffffffffff163386600201546040518463ffffffff1660e01b8152600401610cae939291906130de565b600060405180830381600087803b158015610cc857600080fd5b505af1158015610cdc573d6000803e3d6000fd5b505050506006600084600201548152602001908152602001600020600090558260030154341115610d5e573373ffffffffffffffffffffffffffffffffffffffff166108fc846003015434610d319190612db2565b9081150290604051600060405180830381858888f19350505050158015610d5c573d6000803e3d6000fd5b505b7f2a874701b7ea6bbde0fc434e0f3a8befb0bc72091995b805f8c6fa57bef2954984338560030154604051610d9593929190613115565b60405180910390a1505050610da8612660565b50565b610db361266a565b600860009054906101000a900460ff1615600860006101000a81548160ff021916908315150217905550565b600860009054906101000a900460ff1681565b60066020528060005260406000206000915090505481565b610e1261266a565b610e1c60006126f1565b565b600080600090506000600190505b610e3660026127b7565b8111610ead5760006002811115610e5057610e4f6129a3565b5b6005600083815260200190815260200160002060040160009054906101000a900460ff166002811115610e8657610e856129a3565b5b03610e9a578180610e969061314c565b9250505b8080610ea59061314c565b915050610e2c565b508091505090565b6000600160009054906101000a900473ffffffffffffffffffffffffffffffffffffffff16905090565b610ee761261a565b600860009054906101000a900460ff1615610f37576040517f08c379a0000000000000000000000000000000000000000000000000000000008152600401610f2e90612e58565b60405180910390fd5b600060056000838152602001908152602001600020905060006002811115610f6257610f616129a3565b5b8160040160009054906101000a900460ff166002811115610f8657610f856129a3565b5b14610fc6576040517f08c379a0000000000000000000000000000000000000000000000000000000008152600401610fbd90612c8b565b60405180910390fd5b600180811115610fd957610fd86129a3565b5b8160040160019054906101000a900460ff166001811115610ffd57610ffc6129a3565b5b1461103d576040517f08c379a0000000000000000000000000000000000000000000000000000000008152600401611034906131e0565b60405180910390fd5b80600501544210611083576040517f08c379a000000000000000000000000000000000000000000000000000000000815260040161107a9061324c565b60405180910390fd5b8060010160009054906101000a900473ffffffffffffffffffffffffffffffffffffffff1673ffffffffffffffffffffffffffffffffffffffff163373ffffffffffffffffffffffffffffffffffffffff1603611115576040517f08c379a000000000000000000000000000000000000000000000000000000000815260040161110c906132de565b60405180910390fd5b600073ffffffffffffffffffffffffffffffffffffffff168160060160009054906101000a900473ffffffffffffffffffffffffffffffffffffffff1673ffffffffffffffffffffffffffffffffffffffff16036111b95780600301543410156111b4576040517f08c379a00000000000000000000000000000000000000000000000000000000081526004016111ab90613370565b60405180910390fd5b61127e565b806007015434116111ff576040517f08c379a00000000000000000000000000000000000000000000000000000000081526004016111f690613402565b60405180910390fd5b8060070154600760008360060160009054906101000a900473ffffffffffffffffffffffffffffffffffffffff1673ffffffffffffffffffffffffffffffffffffffff1673ffffffffffffffffffffffffffffffffffffffff168152602001908152602001600020600082825461127691906130aa565b925050819055505b338160060160006101000a81548173ffffffffffffffffffffffffffffffffffffffff021916908373ffffffffffffffffffffffffffffffffffffffff1602179055503481600701819055507f0e54eff26401bf69b81b26f60bd85ef47f5d85275c1d268d84f68d6897431c478233346040516112fd93929190613115565b60405180910390a15061130e612660565b50565b600080600660008481526020019081526020016000205414158015611390575060006002811115611345576113446129a3565b5b600560006006600086815260200190815260200160002054815260200190815260200160002060040160009054906101000a900460ff16600281111561138e5761138d6129a3565b5b145b9050919050565b60045481565b600860009054906101000a900460ff16156113ed576040517f08c379a00000000000000000000000000000000000000000000000000000000081526004016113e490612e58565b60405180910390fd5b3373ffffffffffffffffffffffffffffffffffffffff16600360009054906101000a900473ffffffffffffffffffffffffffffffffffffffff1673ffffffffffffffffffffffffffffffffffffffff16636352211e846040518263ffffffff1660e01b815260040161145f9190612805565b602060405180830381865afa15801561147c573d6000803e3d6000fd5b505050506040513d601f19601f820116820180604052508101906114a09190613437565b73ffffffffffffffffffffffffffffffffffffffff16146114f6576040517f08c379a00000000000000000000000000000000000000000000000000000000081526004016114ed906134b0565b60405180910390fd5b60008111611539576040517f08c379a00000000000000000000000000000000000000000000000000000000081526004016115309061351c565b60405180910390fd5b600060066000848152602001908152602001600020541461158f576040517f08c379a000000000000000000000000000000000000000000000000000000000815260040161158690613588565b60405180910390fd5b3073ffffffffffffffffffffffffffffffffffffffff16600360009054906101000a900473ffffffffffffffffffffffffffffffffffffffff1673ffffffffffffffffffffffffffffffffffffffff1663081812fc846040518263ffffffff1660e01b81526004016116019190612805565b602060405180830381865afa15801561161e573d6000803e3d6000fd5b505050506040513d601f19601f820116820180604052508101906116429190613437565b73ffffffffffffffffffffffffffffffffffffffff1614806116fe5750600360009054906101000a900473ffffffffffffffffffffffffffffffffffffffff1673ffffffffffffffffffffffffffffffffffffffff1663e985e9c533306040518363ffffffff1660e01b81526004016116bc9291906135a8565b602060405180830381865afa1580156116d9573d6000803e3d6000fd5b505050506040513d601f19601f820116820180604052508101906116fd91906135fd565b5b61173d576040517f08c379a00000000000000000000000000000000000000000000000000000000081526004016117349061369c565b60405180910390fd5b61174760026127c5565b600061175360026127b7565b90506040518061012001604052808281526020013373ffffffffffffffffffffffffffffffffffffffff168152602001848152602001838152602001600060028111156117a3576117a26129a3565b5b8152602001600060018111156117bc576117bb6129a3565b5b815260200160008152602001600073ffffffffffffffffffffffffffffffffffffffff1681526020016000815250600560008381526020019081526020016000206000820151816000015560208201518160010160006101000a81548173ffffffffffffffffffffffffffffffffffffffff021916908373ffffffffffffffffffffffffffffffffffffffff160217905550604082015181600201556060820151816003015560808201518160040160006101000a81548160ff0219169083600281111561188d5761188c6129a3565b5b021790555060a08201518160040160016101000a81548160ff021916908360018111156118bd576118bc6129a3565b5b021790555060c0820151816005015560e08201518160060160006101000a81548173ffffffffffffffffffffffffffffffffffffffff021916908373ffffffffffffffffffffffffffffffffffffffff16021790555061010082015181600701559050508060066000858152602001908152602001600020819055507fcf6475363666dcade68b608a6f05eb7cb08f7052ae9823e0b87ff6bad4891c2581338585600080604051611973969594939291906136f7565b60405180910390a1505050565b61198861266a565b60648111156119cc576040517f08c379a00000000000000000000000000000000000000000000000000000000081526004016119c3906137a4565b60405180910390fd5b8060048190555050565b600860009054906101000a900460ff1615611a26576040517f08c379a0000000000000000000000000000000000000000000000000000000008152600401611a1d90612e58565b60405180910390fd5b3373ffffffffffffffffffffffffffffffffffffffff16600360009054906101000a900473ffffffffffffffffffffffffffffffffffffffff1673ffffffffffffffffffffffffffffffffffffffff16636352211e856040518263ffffffff1660e01b8152600401611a989190612805565b602060405180830381865afa158015611ab5573d6000803e3d6000fd5b505050506040513d601f19601f82011682018060405250810190611ad99190613437565b73ffffffffffffffffffffffffffffffffffffffff1614611b2f576040517f08c379a0000000000000000000000000000000000000000000000000000000008152600401611b26906134b0565b60405180910390fd5b60008211611b72576040517f08c379a0000000000000000000000000000000000000000000000000000000008152600401611b6990613836565b60405180910390fd5b60008111611bb5576040517f08c379a0000000000000000000000000000000000000000000000000000000008152600401611bac906138c8565b60405180910390fd5b6000600660008581526020019081526020016000205414611c0b576040517f08c379a0000000000000000000000000000000000000000000000000000000008152600401611c0290613588565b60405180910390fd5b3073ffffffffffffffffffffffffffffffffffffffff16600360009054906101000a900473ffffffffffffffffffffffffffffffffffffffff1673ffffffffffffffffffffffffffffffffffffffff1663081812fc856040518263ffffffff1660e01b8152600401611c7d9190612805565b602060405180830381865afa158015611c9a573d6000803e3d6000fd5b505050506040513d601f19601f82011682018060405250810190611cbe9190613437565b73ffffffffffffffffffffffffffffffffffffffff161480611d7a5750600360009054906101000a900473ffffffffffffffffffffffffffffffffffffffff1673ffffffffffffffffffffffffffffffffffffffff1663e985e9c533306040518363ffffffff1660e01b8152600401611d389291906135a8565b602060405180830381865afa158015611d55573d6000803e3d6000fd5b505050506040513d601f19601f82011682018060405250810190611d7991906135fd565b5b611db9576040517f08c379a0000000000000000000000000000000000000000000000000000000008152600401611db09061369c565b60405180910390fd5b611dc360026127c5565b6000611dcf60026127b7565b90506040518061012001604052808281526020013373ffffffffffffffffffffffffffffffffffffffff16815260200185815260200184815260200160006002811115611e1f57611e1e6129a3565b5b8152602001600180811115611e3757611e366129a3565b5b81526020018342611e4891906130aa565b8152602001600073ffffffffffffffffffffffffffffffffffffffff1681526020016000815250600560008381526020019081526020016000206000820151816000015560208201518160010160006101000a81548173ffffffffffffffffffffffffffffffffffffffff021916908373ffffffffffffffffffffffffffffffffffffffff160217905550604082015181600201556060820151816003015560808201518160040160006101000a81548160ff02191690836002811115611f1257611f116129a3565b5b021790555060a08201518160040160016101000a81548160ff02191690836001811115611f4257611f416129a3565b5b021790555060c0820151816005015560e08201518160060160006101000a81548173ffffffffffffffffffffffffffffffffffffffff021916908373ffffffffffffffffffffffffffffffffffffffff16021790555061010082015181600701559050508060066000868152602001908152602001600020819055507fcf6475363666dcade68b608a6f05eb7cb08f7052ae9823e0b87ff6bad4891c258133868660018742611ff191906130aa565b604051612003969594939291906138e8565b60405180910390a150505050565b60056020528060005260406000206000915090508060000154908060010160009054906101000a900473ffffffffffffffffffffffffffffffffffffffff16908060020154908060030154908060040160009054906101000a900460ff16908060040160019054906101000a900460ff16908060050154908060060160009054906101000a900473ffffffffffffffffffffffffffffffffffffffff16908060070154905089565b6120c161261a565b600860009054906101000a900460ff1615612111576040517f08c379a000000000000000000000000000000000000000000000000000000000815260040161210890612e58565b60405180910390fd5b60006005600083815260200190815260200160002090506000600281111561213c5761213b6129a3565b5b8160040160009054906101000a900460ff1660028111156121605761215f6129a3565b5b146121a0576040517f08c379a000000000000000000000000000000000000000000000000000000000815260040161219790612c8b565b60405180910390fd5b6001808111156121b3576121b26129a3565b5b8160040160019054906101000a900460ff1660018111156121d7576121d66129a3565b5b14612217576040517f08c379a000000000000000000000000000000000000000000000000000000000815260040161220e906131e0565b60405180910390fd5b806005015442101561225e576040517f08c379a000000000000000000000000000000000000000000000000000000000815260040161225590613995565b60405180910390fd5b60018160040160006101000a81548160ff02191690836002811115612286576122856129a3565b5b0217905550600073ffffffffffffffffffffffffffffffffffffffff168160060160009054906101000a900473ffffffffffffffffffffffffffffffffffffffff1673ffffffffffffffffffffffffffffffffffffffff160361233b576006600082600201548152602001908152602001600020600090557f411aee90354c51b1b04cd563fcab2617142a9d50da19232d888547c8a1b7fd8a8260405161232d9190612805565b60405180910390a15061254b565b60006103e860045483600701546123529190613008565b61235c9190613079565b905060008183600701546123709190612db2565b905080600760008560010160009054906101000a900473ffffffffffffffffffffffffffffffffffffffff1673ffffffffffffffffffffffffffffffffffffffff1673ffffffffffffffffffffffffffffffffffffffff16815260200190815260200160002060008282546123e591906130aa565b92505081905550600360009054906101000a900473ffffffffffffffffffffffffffffffffffffffff1673ffffffffffffffffffffffffffffffffffffffff166323b872dd8460010160009054906101000a900473ffffffffffffffffffffffffffffffffffffffff168560060160009054906101000a900473ffffffffffffffffffffffffffffffffffffffff1686600201546040518463ffffffff1660e01b8152600401612497939291906130de565b600060405180830381600087803b1580156124b157600080fd5b505af11580156124c5573d6000803e3d6000fd5b505050506006600084600201548152602001908152602001600020600090557f4d9113a1377d665eaa1f9168a9c9080f2e488cb820b10149de3d6d2e0f2780c7848460060160009054906101000a900473ffffffffffffffffffffffffffffffffffffffff16856007015460405161253f93929190613115565b60405180910390a15050505b612553612660565b50565b61255e61266a565b600073ffffffffffffffffffffffffffffffffffffffff168173ffffffffffffffffffffffffffffffffffffffff16036125d05760006040517f1e4fbdf70000000000000000000000000000000000000000000000000000000081526004016125c791906128f5565b60405180910390fd5b6125d9816126f1565b50565b60076020528060005260406000206000915090505481565b600360009054906101000a900473ffffffffffffffffffffffffffffffffffffffff1681565b600260005403612656576040517f3ee5aeb500000000000000000000000000000000000000000000000000000000815260040160405180910390fd5b6002600081905550565b6001600081905550565b6126726127e4565b73ffffffffffffffffffffffffffffffffffffffff16612690610eb5565b73ffffffffffffffffffffffffffffffffffffffff16146126ef576126b36127e4565b6040517f118cdaa70000000000000000000000000000000000000000000000000000000081526004016126e691906128f5565b60405180910390fd5b565b6000600160009054906101000a900473ffffffffffffffffffffffffffffffffffffffff16905081600160006101000a81548173ffffffffffffffffffffffffffffffffffffffff021916908373ffffffffffffffffffffffffffffffffffffffff1602179055508173ffffffffffffffffffffffffffffffffffffffff168173ffffffffffffffffffffffffffffffffffffffff167f8be0079c531659141344cd1fd0a4f28419497f9722a3daafe3b4186f6b6457e060405160405180910390a35050565b600081600001549050919050565b60018160000160008282546127da91906130aa565b9250508190555050565b600033905090565b6000819050919050565b6127ff816127ec565b82525050565b600060208201905061281a60008301846127f6565b92915050565b600080fd5b61282e816127ec565b811461283957600080fd5b50565b60008135905061284b81612825565b92915050565b60006020828403121561286757612866612820565b5b60006128758482850161283c565b91505092915050565b60008115159050919050565b6128938161287e565b82525050565b60006020820190506128ae600083018461288a565b92915050565b600073ffffffffffffffffffffffffffffffffffffffff82169050919050565b60006128df826128b4565b9050919050565b6128ef816128d4565b82525050565b600060208201905061290a60008301846128e6565b92915050565b6000806040838503121561292757612926612820565b5b60006129358582860161283c565b92505060206129468582860161283c565b9150509250929050565b60008060006060848603121561296957612968612820565b5b60006129778682870161283c565b93505060206129888682870161283c565b92505060406129998682870161283c565b9150509250925092565b7f4e487b7100000000000000000000000000000000000000000000000000000000600052602160045260246000fd5b600381106129e3576129e26129a3565b5b50565b60008190506129f4826129d2565b919050565b6000612a04826129e6565b9050919050565b612a14816129f9565b82525050565b60028110612a2b57612a2a6129a3565b5b50565b6000819050612a3c82612a1a565b919050565b6000612a4c82612a2e565b9050919050565b612a5c81612a41565b82525050565b600061012082019050612a78600083018c6127f6565b612a85602083018b6128e6565b612a92604083018a6127f6565b612a9f60608301896127f6565b612aac6080830188612a0b565b612ab960a0830187612a53565b612ac660c08301866127f6565b612ad360e08301856128e6565b612ae16101008301846127f6565b9a9950505050505050505050565b612af8816128d4565b8114612b0357600080fd5b50565b600081359050612b1581612aef565b92915050565b600060208284031215612b3157612b30612820565b5b6000612b3f84828501612b06565b91505092915050565b6000819050919050565b6000612b6d612b68612b63846128b4565b612b48565b6128b4565b9050919050565b6000612b7f82612b52565b9050919050565b6000612b9182612b74565b9050919050565b612ba181612b86565b82525050565b6000602082019050612bbc6000830184612b98565b92915050565b600082825260208201905092915050565b7f4f6e6c792073656c6c6572206f72206f776e65722063616e2063616e63656c00600082015250565b6000612c09601f83612bc2565b9150612c1482612bd3565b602082019050919050565b60006020820190508181036000830152612c3881612bfc565b9050919050565b7f4c697374696e67206973206e6f74206163746976650000000000000000000000600082015250565b6000612c75601583612bc2565b9150612c8082612c3f565b602082019050919050565b60006020820190508181036000830152612ca481612c68565b9050919050565b7f43616e6e6f742063616e63656c2061756374696f6e2077697468206269647300600082015250565b6000612ce1601f83612bc2565b9150612cec82612cab565b602082019050919050565b60006020820190508181036000830152612d1081612cd4565b9050919050565b7f4e6f2066756e647320746f207769746864726177000000000000000000000000600082015250565b6000612d4d601483612bc2565b9150612d5882612d17565b602082019050919050565b60006020820190508181036000830152612d7c81612d40565b9050919050565b7f4e487b7100000000000000000000000000000000000000000000000000000000600052601160045260246000fd5b6000612dbd826127ec565b9150612dc8836127ec565b9250828203905081811115612de057612ddf612d83565b5b92915050565b7f436f6e747261637420697320696e20656d657267656e63792073746f70206d6f60008201527f6465000000000000000000000000000000000000000000000000000000000000602082015250565b6000612e42602283612bc2565b9150612e4d82612de6565b604082019050919050565b60006020820190508181036000830152612e7181612e35565b9050919050565b7f54686973206973206e6f742061206669786564207072696365206c697374696e60008201527f6700000000000000000000000000000000000000000000000000000000000000602082015250565b6000612ed4602183612bc2565b9150612edf82612e78565b604082019050919050565b60006020820190508181036000830152612f0381612ec7565b9050919050565b7f496e73756666696369656e74207061796d656e74000000000000000000000000600082015250565b6000612f40601483612bc2565b9150612f4b82612f0a565b602082019050919050565b60006020820190508181036000830152612f6f81612f33565b9050919050565b7f53656c6c65722063616e6e6f7420627579207468656972206f776e206c69737460008201527f696e670000000000000000000000000000000000000000000000000000000000602082015250565b6000612fd2602383612bc2565b9150612fdd82612f76565b604082019050919050565b6000602082019050818103600083015261300181612fc5565b9050919050565b6000613013826127ec565b915061301e836127ec565b925082820261302c816127ec565b9150828204841483151761304357613042612d83565b5b5092915050565b7f4e487b7100000000000000000000000000000000000000000000000000000000600052601260045260246000fd5b6000613084826127ec565b915061308f836127ec565b92508261309f5761309e61304a565b5b828204905092915050565b60006130b5826127ec565b91506130c0836127ec565b92508282019050808211156130d8576130d7612d83565b5b92915050565b60006060820190506130f360008301866128e6565b61310060208301856128e6565b61310d60408301846127f6565b949350505050565b600060608201905061312a60008301866127f6565b61313760208301856128e6565b61314460408301846127f6565b949350505050565b6000613157826127ec565b91507fffffffffffffffffffffffffffffffffffffffffffffffffffffffffffffffff820361318957613188612d83565b5b600182019050919050565b7f54686973206973206e6f7420616e2061756374696f6e00000000000000000000600082015250565b60006131ca601683612bc2565b91506131d582613194565b602082019050919050565b600060208201905081810360008301526131f9816131bd565b9050919050565b7f41756374696f6e2068617320656e646564000000000000000000000000000000600082015250565b6000613236601183612bc2565b915061324182613200565b602082019050919050565b6000602082019050818103600083015261326581613229565b9050919050565b7f53656c6c65722063616e6e6f7420626964206f6e207468656972206f776e206160008201527f756374696f6e0000000000000000000000000000000000000000000000000000602082015250565b60006132c8602683612bc2565b91506132d38261326c565b604082019050919050565b600060208201905081810360008301526132f7816132bb565b9050919050565b7f426964206d757374206265206174206c6561737420746865207374617274696e60008201527f6720707269636500000000000000000000000000000000000000000000000000602082015250565b600061335a602783612bc2565b9150613365826132fe565b604082019050919050565b600060208201905081810360008301526133898161334d565b9050919050565b7f426964206d75737420626520686967686572207468616e2063757272656e742060008201527f6869676865737420626964000000000000000000000000000000000000000000602082015250565b60006133ec602b83612bc2565b91506133f782613390565b604082019050919050565b6000602082019050818103600083015261341b816133df565b9050919050565b60008151905061343181612aef565b92915050565b60006020828403121561344d5761344c612820565b5b600061345b84828501613422565b91505092915050565b7f596f7520646f6e2774206f776e207468697320746f6b656e0000000000000000600082015250565b600061349a601883612bc2565b91506134a582613464565b602082019050919050565b600060208201905081810360008301526134c98161348d565b9050919050565b7f5072696365206d7573742062652067726561746572207468616e207a65726f00600082015250565b6000613506601f83612bc2565b9150613511826134d0565b602082019050919050565b60006020820190508181036000830152613535816134f9565b9050919050565b7f546f6b656e20616c7265616479206c6973746564000000000000000000000000600082015250565b6000613572601483612bc2565b915061357d8261353c565b602082019050919050565b600060208201905081810360008301526135a181613565565b9050919050565b60006040820190506135bd60008301856128e6565b6135ca60208301846128e6565b9392505050565b6135da8161287e565b81146135e557600080fd5b50565b6000815190506135f7816135d1565b92915050565b60006020828403121561361357613612612820565b5b6000613621848285016135e8565b91505092915050565b7f4d61726b6574706c616365206e6f7420617070726f76656420746f207472616e60008201527f73666572207468697320746f6b656e0000000000000000000000000000000000602082015250565b6000613686602f83612bc2565b91506136918261362a565b604082019050919050565b600060208201905081810360008301526136b581613679565b9050919050565b6000819050919050565b60006136e16136dc6136d7846136bc565b612b48565b6127ec565b9050919050565b6136f1816136c6565b82525050565b600060c08201905061370c60008301896127f6565b61371960208301886128e6565b61372660408301876127f6565b61373360608301866127f6565b6137406080830185612a53565b61374d60a08301846136e8565b979650505050505050565b7f4665652070657263656e746167652063616e6e6f742065786365656420313025600082015250565b600061378e602083612bc2565b915061379982613758565b602082019050919050565b600060208201905081810360008301526137bd81613781565b9050919050565b7f5374617274696e67207072696365206d7573742062652067726561746572207460008201527f68616e207a65726f000000000000000000000000000000000000000000000000602082015250565b6000613820602883612bc2565b915061382b826137c4565b604082019050919050565b6000602082019050818103600083015261384f81613813565b9050919050565b7f4475726174696f6e206d7573742062652067726561746572207468616e207a6560008201527f726f000000000000000000000000000000000000000000000000000000000000602082015250565b60006138b2602283612bc2565b91506138bd82613856565b604082019050919050565b600060208201905081810360008301526138e1816138a5565b9050919050565b600060c0820190506138fd60008301896127f6565b61390a60208301886128e6565b61391760408301876127f6565b61392460608301866127f6565b6139316080830185612a53565b61393e60a08301846127f6565b979650505050505050565b7f41756374696f6e20686173206e6f7420656e6465642079657400000000000000600082015250565b600061397f601983612bc2565b915061398a82613949565b602082019050919050565b600060208201905081810360008301526139ae81613972565b905091905056fea26469706673582212203c047adb7f62b9c22b893cb7ff7505e7015649194939e8e65b6693cd74a91d9664736f6c63430008140033",
  "linkReferences": {},
  "deployedLinkReferences": {}
}